:020000040020DA
:100000008C4F0020B174210095742100A17421004F
:10001000A9742100A9742100A97421000000000026
:10002000000000000000000000000000A974210092
:10003000A974210000000000A9742100A974210006
:10004000A9742100A9742100A9742100A9742100B8
:1000500000000000A9742100A9742100A9742100E6
:10006000A974210000000000000000000000000052
:100070000000000000000000A97421000000000042
:100080000000000000000000A9742100A9742100F4
:10009000A9742100A9742100A9742100A974210068
:1000A000A9742100A9742100A9742100A974210058
:1000B000A9742100A9742100A9742100A974210048
:1000C000A9742100A9742100A9742100A974210038
:1000D000A9742100000000000000000000000000E2
:1000E0000000000000000000000000000000000010
:1000F000A974210000000000A9742100A974210046
:1001000000000000000000000000000000000000EF
:1001100000000000000000000000000000000000DF
:1001200000000000000000000000000000000000CF
:1001300000000000000000000000000000000000BF
:1001400000000000000000000000000000000000AF
:10015000000000000000000000000000000000009F
:10016000000000000000000000000000000000008F
:10017000000000000000000000000000000000007F
:10018000000000000000000000000000000000006F
:10019000000000000000000000000000000000005F
:1001A000000000000000000000000000000000004F
:1001B000000000000000000000000000000000003F
:1001C000000000000000000000000000000000002F
:1001D000000000000000000000000000000000001F
:1001E000000000000000000000000000000000000F
:1001F00000000000000000000000000000000000FF
:1002000000000000000000000000000000000000EE
:1002100000000000000000000000000000000000DE
:1002200000000000000000000000000000000000CE
:1002300000000000000000000000000000000000BE
:1002400000000000000000000000000000000000AE
:10025000000000000000000000000000000000009E
:10026000000000000000000000000000000000008E
:10027000A9742100A9742100A9742100A974210086
:10028000A9742100A9742100A974210080B500AFD0
:1002900015F0FEFD13F0CAFD00F006F813F0D8FDCE
:1002A0000023184680BD00BF80B500AF15F056F89A
:1002B00013F058FE0DF044F90DF0BCFB0EF086F87B
:1002C00000F020F804F006FF06F078FA03F060F87A
:1002D00004F084FA0AF086FB08F0DCFD0AF060FC0A
:1002E0000BF00CFC0BF07EFC0BF0DCFD0CF0AEFE1A
:1002F0000FF096FA01203F210022002313F0DEFECA
:1003000080BD00BFB0B582B002AF344800214FF4C9
:10031000DA721AF0E5FD3248002110221AF0E0FDF1
:100320002E4B002283F882212C4B012283F8A1213D
:100330002A4B002283F8A221284B40F28F22A3F8F7
:10034000A621264B0122C3F86021244B254A03F540
:10035000C27413460FCB84E80F000DF041F9034639
:10036000002B03D0012002F095FC02E0002002F0F7
:1003700091FC02F0EDFC1C4B00229A7116F0CEFDB0
:100380001A4816F03BFD1A4816F046FD01200021E0
:1003900014F0F4FF03461A46104B83F8A8210F4BC4
:1003A00093F8A8410D4BB3F8A6311D4617F010F88D
:1003B0000246104B009320462946012315F070F9A0
:1003C00002F0EEFE0020002114F0D8FF03461A468A
:1003D000024B83F8B021BD46B0BD00BFA04F002046
:1003E0006451002050B02100545100202D082000FD
:1003F000010920006106200080B584B000AF78605C
:1004000019F02EF8264B1A787B681B789A4204D094
:1004100019F01AF84FF0FF333EE00023FB60204B49
:10042000B3F801309AB27B68B3F801309BB29A42BC
:100430000CD119F009F81A4BB3F803309BB21A46E5
:100440007B68B3F803309BB2D31A25E0144BB3F8A2
:1004500001309BB21A467B68B3F801309BB2D31AC5
:10046000012B13D10E4BB3F803309BB2FB607B68BA
:10047000B3F803309BB21A46FB689B1A03F57F431F
:10048000FF33FB60FB680133FB6002E04FF0FF339A
:10049000FB6018F0D9FFFB6818461037BD4680BDD9
:1004A000A04F002080B485B000AF786039607B68D1
:1004B0001A783B681B789A4202D04FF6FF733BE0F4
:1004C0000023FB817B68B3F801309AB23B68B3F834
:1004D00001309BB29A420BD17B68B3F803309AB2D9
:1004E0003B68B3F803309BB2D31A9BB29BB223E0B4
:1004F0007B68B3F801309BB21A463B68B3F8013011
:100500009BB2D31A012B13D17B68B3F803309BB293
:10051000FB81FA893B68B3F803309BB2D31A9BB2D4
:10052000013B9BB2FB81FB8901339BB2FB8102E063
:100530004FF6FF73FB81FB891BB218461437BD468B
:100540005DF8047B704700BF80B586B000AF0346FE
:100550003960FB800023FB750023BB7500237B758E
:1005600000237B8200233B8207F108031846002109
:1005700005221AF0B5FC02F0B5FA03461A4640F21D
:10058000311303FB02F31F4A82FB03121213DB1722
:10059000D31A7B75FA887B7D92FBF3F33B823B8A0F
:1005A000DBB23B723B8A1B0A9BB2DBB27B723868C0
:1005B00001F020FF0023FB751EE0FB7D3A68134429
:1005C0001B789AB2FB7D07F118010B4413F8103C1D
:1005D0009BB213449AB2BB7D9BB213447B82FB7DDA
:1005E0003A6813447A8AD2B21A707B8A1B0A9BB289
:1005F000BB75FB7D0133FB75FB7D042BDDD9183703
:10060000BD4680BDAD8BDB6880B483B000AF786041
:1006100039607B681B789AB27B6801331B789BB288
:100620001B029BB213449AB23B68A3F803207B6879
:1006300002331B789AB27B6803331B789BB21B0290
:100640009BB213449AB23B68A3F801207B681A79E5
:100650003B681A700C37BD465DF8047B704700BFDD
:1006600080B584B002AF0346FB7115F0A1F90246D4
:100670001D4BC3F8AC211C4B93F8A8111A4BD3F8AF
:10068000AC211A4B0093084640F28F21012315F04C
:1006900007F8154B40F28F22A3F8A621124B1B7CC2
:1006A00083F00103DBB2002B13D00CF099FF03465B
:1006B000002B0BD0012002F0EDFA01F07FFE05F0D7
:1006C0001BFE03461A46084B1A8104E000F0C4F9E9
:1006D00001E000F03FFC064B1B680133044A136045
:1006E0000837BD4680BD00BFA04F00206106200036
:1006F0006451002080B582B000AF0346FB71444BCB
:1007000093F86431023B162B6CD801A252F823F007
:10071000FF072000E50720006D0720007307200079
:10072000790720007F072000850720008B07200025
:1007300091072000970720009D072000A3072000B5
:10074000E5072000A9072000AF072000B50720001B
:10075000BB072000C1072000C7072000CD072000ED
:10076000D3072000D9072000DF07200000F0B6FDE6
:1007700046E000F009FE43E000F018FE40E000F023
:1007800033FE3DE000F078FE3AE000F0F1FE37E0A5
:1007900000F020FF34E000F02FFF31E000F04AFFCE
:1007A0002EE000F0A9FF2BE001F0F2F828E001F0C4
:1007B00021F925E001F030F922E001F04BF91FE0CA
:1007C00001F088F91CE001F071FB19E001F048FC30
:1007D00016E001F057FC13E001F072FC10E001F0AC
:1007E000B7FC0DE00A4B93F864319AB2084BDB88F2
:1007F0000920262113F0A0FC02F07CFB00E000BFE2
:10080000044B5B680133034A53600837BD4680BD23
:10081000A04F00206451002080B582B000AF034695
:10082000FB7113F033FF0837BD4680BD80B584B03F
:1008300000AF7860304BD3F8AC317A68D31AFB60E4
:100840002D4B1B7C83F00103DBB2002B03D0F86837
:1008500000F0C0F947E0284B93F86431073B102BB8
:1008600034D801A252F823F0AD082000CD082000B2
:10087000CD082000CD082000B5082000B5082000D4
:10088000CD082000CD082000CD082000CD08200094
:10089000BD082000BD082000CD082000CD082000A4
:1008A000CD082000CD082000C5082000F86800F021
:1008B000ADFD18E0F86800F0E9FE14E0F86801F01A
:1008C000CFF810E0F86801F00DFC0CE00A4B93F84B
:1008D00064319AB2084BDB880920272113F00CFC05
:1008E00002F008FB00BF054B9B680133034A93608D
:1008F0001037BD4680BD00BFA04F002064510020CE
:1009000080B584B000AF7860304BD3F8AC317A68F2
:10091000D31AFB602D4B1B7C83F00103DBB2002B51
:1009200003D0F86800F072F947E0284B93F864317F
:10093000083B102B34D801A252F823F08109200083
:10094000A1092000A1092000A1092000A10920007F
:1009500089092000A1092000A1092000A109200087
:10096000A1092000A109200091092000A10920006F
:10097000A1092000A1092000A10920009909200057
:10098000F86800F08BFD18E0F86800F0C7FE14E08E
:10099000F86801F0B1F810E0F86801F0EBFB0CE04A
:1009A0000A4B93F864319AB2084BDB88092028215E
:1009B00013F0A2FB02F09EFA00BF054BDB68013387
:1009C000034AD3601037BD4680BD00BFA04F002052
:1009D0006451002080B582B000AF0D4B1B783B7096
:1009E0000B4BB3F801309BB2A7F80130084BB3F8BA
:1009F00003309BB2A7F803303B460420194605227A
:100A000013F020FB012318460837BD4680BD00BF08
:100A1000A04F002080B582B000AF0023FB71074BD0
:100A20001B7CFB71FB1D00201946012213F00AFB01
:100A3000012318460837BD4680BD00BFA04F0020E7
:100A400080B500AF052003490F2213F0FBFA012304
:100A5000184680BD5451002090B583B002AF594B69
:100A600093F86431022B00D1A8E016F0B1FC0246E5
:100A7000544BC3F89821534B012283F8A021514BCA
:100A800093F86431012B1BD0012002F0DFF916F03E
:100A90004BFA0DF0BDFC0346DBB203F00F03DBB2F3
:100AA0000B33DAB2474B83F88021464B93F8803101
:100AB000184616F0E5F916F0BFFA16F0CDFA3BE04D
:100AC000414BD3F807303F4AB2F8A62113443E4ABF
:100AD000C2F807303C4BD3F80B303A4AB2F8A621A3
:100AE0001344394AC2F80B30364BB3F803309AB28C
:100AF000364BA3FB0213D9090B469B000B445B0149
:100B0000D31A9BB2002B13D116F00EFA0DF080FC15
:100B10000346DBB203F00F03DBB20B33DAB2294B2F
:100B200083F88021274B93F88031184616F0A8F9F6
:100B300016F082FA16F090FA224B93F86431012BEA
:100B40001FD1204B93F88331002B1AD016F0ECF90B
:100B50001C4B93F88231184602F04EF903461A46B0
:100B6000184B83F88021174B93F88031184616F004
:100B700087F916F061FA16F06FFA124B002283F82B
:100B80008321104BB3F803309BB201339AB20D4B63
:100B9000A3F803200B4B93F8B0110A4BB3F8A6311E
:100BA000203B1C46074BD3F8AC21094B0093084669
:100BB0002146012314F074FD13F076FD0437BD4681
:100BC00090BD00BFA04F002054510020CDCCCCCC14
:100BD0001908200080B582B000AF78600A4B93F806
:100BE0006431012B00D00CE013F050FD022002F024
:100BF0002DF9054A7B68C2F87831034A7B68C2F850
:100C00007C310837BD4680BDA04F0020B0B596B0FE
:100C100002AF7860AA4B93F86431022B0AD0A84B3C
:100C200093F864319BB2092024211A46002313F063
:100C300063FA42E1032002F009F909200CF056FFA3
:100C400002469F4BC3F86C219D4BD3F86C31002BAF
:100C500006D1092036210022002313F04DFA2CE1A1
:100C6000974BD3F86C3109221A70954BD3F86C313D
:100C700009225A70924BD3F86C31914AD2F86C2108
:100C8000C9325A608E4BD3F86C3158688C4BD3F80C
:100C90006C3103F108018A4BD3F86C3103F1C504C0
:100CA000874BD3F86C3103F1C602854BD3F86C3116
:100CB000C733009201938222234616F0E7F9804B56
:100CC000D3F86C311B7A012B05D97D4BD3F86C31ED
:100CD0001B7A802B0AD97A4BD3F86C311B7A9BB2E2
:100CE00009204121002213F007FAD9E0744BD3F810
:100CF0006C31184602210DF03BFF714BD3F86C317B
:100D000093F8C73083F00103DBB2002B00D0C7E0BB
:100D10006B4BD3F86C2107F11003104619460EF007
:100D200009FB3B7C83F00103DBB2002B00D0B7E072
:100D3000634BD3F86C31BA7C83F85320604BD3F803
:100D40006C317A7E83F854205D4BD3F86C3142339A
:100D50001A4607F13D031D685C689868D9681560FC
:100D600054609060D1601B7C1374554BD3F86C2198
:100D700007F110031046194602F0FEFA034683F00D
:100D80000103DBB2002B00D08AE04D4BD3F86C316D
:100D900093F8A930002B19D0494B1B7C83F0010339
:100DA000DBB2002B7CD0BB7C002B79D1444BD3F839
:100DB0006C2107F110031046194601F08DFB034624
:100DC00083F00103DBB2002B00D069E03C4BD3F889
:100DD0006C217B7C104619460DF086FE0023FB81BA
:100DE0003B7C002B21D0FB7D002B1ED0BB7C002B3D
:100DF0001BD104200CF02EFC024607F110030B332C
:100E0000184611460DF050FD0346002B0DD02C4B1B
:100E1000D3F86C2107F10E031046194600F052F882
:100E20000346002B01D0012300E00023002B00D15A
:100E300036E016F079F816F0CBFA0246204BD3F8DC
:100E40009831D31A1E4AD2F89C2113441C4AC2F886
:100E50009C311B4BD3F86C21FB89DBB21046194641
:100E60000DF042FE164BD3F87C31184601F066FEB9
:100E7000012001F00FFF124BDB88092022211A46C6
:100E8000002313F01BF90E4BD3F86C31184601F018
:100E900041FF0B4B0022C3F86C2102F02BF80CE051
:100EA000074BD3F86C3118460CF07EFE044B002241
:100EB000C3F86C21012001F0C9FF5037BD46B0BD19
:100EC000A04F002080B584B000AF786039607868AA
:100ED000396801F059FB0346002B2DD001F048FD85
:100EE0001B4BDB88184605F0DFF905F005FA0346D1
:100EF0001A46174B1A810023FB730EE0144B93F82C
:100F000080310B3BFA7B12490A4492F884219342C8
:100F100000D105E0FB7B0133FB73FB7B0F2BEDD98D
:100F200005F076FA03461A46FB7B9B1ADAB2084BA9
:100F300083F88121012306E00920462103220023B2
:100F400013F0DAF8002318461037BD4680BD00BF05
:100F5000A04F002080B58AB002AF0023BB7701F01C
:100F6000D5F915F0EBFAA44BDB88002B01D115F075
:100F7000C7FA0CF035FB034683F00103DBB2002B0C
:100F80002CD09D4BDA689C4BD3F860319A4208D93B
:100F9000994BDA68984BD3F86031D31A964AD360EC
:100FA0001CE0954B0122C3F86021002001F072FE85
:100FB000914BDB88092021211A46002313F09CF86D
:100FC00006200021002213F073F98C4B9B7901332A
:100FD000DAB28A4B9A7101F08DFF77E1864B93F874
:100FE0006431002B0CD0844B93F864319AB2824B5D
:100FF000DB880920252113F07FF801F07BFF65E1F4
:101000007D4B0122C3F860217B4BDA887A4B1B8928
:101010009A4272D105F060F905F0FAF903461846D4
:1010200001F0EAFE03461A46734B83F8802105F06F
:1010300063F903461A46704B1A810CF0F9FA03461D
:10104000002B5DD00CF0CCFA034683F00103DBB239
:10105000002B55D0684B1A89674BDB889A420AD916
:10106000654B1B891A46644BDB88D31A1A46624BC0
:10107000C3F860210DE005F053F903461A465E4BB4
:101080001B8913445C4AD2889B1A1A465A4BC3F8F0
:101090006021594B93F8A801574BD3F8603140F2C7
:1010A0008F2202FB03F1544BD3F8AC21544B009335
:1010B000012314F0F5FA504BD3F860319BB21A4675
:1010C00092011A44520013441A4691001A460B46E4
:1010D00013449AB2484BA3F8A6210023FB7704E0FF
:1010E00001F014F9FB7F0133FB77FA7F424BD3F811
:1010F0006031013B9A42F3D302E001F0FBFEE5E0F0
:1011000005F020F903467B777B7F022B00F0BF8040
:10111000032B02D0012B40F0CE80374B0022C3F8C6
:10112000682107F10C03184605F048F905F084F929
:101130000346002B54D007F10C0318460DF098FA23
:10114000034683F00103DBB2002B36D007F10C031A
:1011500018460DF065F80246274BC3F86821264B68
:10116000D3F86831002B08D107F10C0318460CF0B6
:101170004DFF0246204BC3F8682105F0F7F80346FF
:1011800083F00103DBB2002B2AD01B4BD3F868316C
:10119000002B0BD0184BD3F86831012283F8A8201C
:1011A00007F10C031846012103F00AFC07F10C03B8
:1011B0001846012103F07CFB12E00CF071FF02469F
:1011C0000D4BC3F868210C4BD3F86831002B07D1C5
:1011D0000123BB770CF0D6FE0246074BC3F868210B
:1011E000054BD3F86831002B0CD17B7F012B4ED1FE
:1011F00001F080FE6AE000BFA04F002054510020A3
:1012000061062000042001F021FE324BD3F8683142
:1012100009225A70BB7F002B1FD03B1D184601F0DE
:10122000E9F80BF0D7F803461B0A9BB2DBB2013B8F
:10123000DBB2FB70274BD3F86831D3F898203B1D05
:1012400010461946052219F0D5FD224BD3F8683116
:10125000D3F898300533FA781A701E4BD3F86831FA
:1012600093F856200132D2B283F85620194B93F8E6
:10127000A801184BD3F8783103F18F01154BD3F83F
:10128000AC21154B0093012314F00AFA1EE00F2045
:1012900001F0DCFD0F4B93F8A8010E4BD3F8783129
:1012A00003F176010B4BD3F8AC210B4B00930123D8
:1012B00014F0F6F90AE07B7F9AB2064BDB8809202E
:1012C0001F2112F039FF01F015FE00BF2037BD4687
:1012D00080BD00BFA04F0020F506200080B582B081
:1012E00002AF052001F0B2FD244B93F8A801234B77
:1012F000D3F8783103F19E01204BD3F8AC21204B79
:101300000093012314F0CCF91C4BD3F868311D482D
:1013100019460DF049FC194B93F8BD30002B08D04D
:10132000184801F0E9FF0346002B02D001F0E2FD6E
:1013300021E0144802210DF0FDFB104B93F88031A1
:10134000184615F09DFD0D4B9A690C4B1B7F9BB207
:101350001046194615F0FCFD15F036FE16F038F86B
:101360000246064BC3F89821044B012283F8A021C2
:10137000062001F06BFDBD4680BD00BFA04F0020E0
:10138000F5062000B44F002080B500AF064B93F85F
:1013900064319AB2044BDB880920292112F0ACFE9B
:1013A00001F0A8FD80BD00BFA04F002080B582B035
:1013B00002AF072001F04AFD094B93F8A801084B42
:1013C000D3F8783103F1CB01054BD3F8AC21054BB1
:1013D0000093012314F064F915F006FEBD4680BDAC
:1013E000A04F0020F506200080B500AF064B93F813
:1013F00064319AB2044BDB8809202E2112F07CFE66
:1014000001F078FD80BD00BFA04F002090B585B0F1
:1014100002AF7860082001F019FD144B93F8A81171
:10142000124BB3F8A6311C46104BD3F8AC21104B2D
:10143000009308462146012314F032F90B4A7B68D9
:10144000C2F87831094B93F8A801084BD3F87831EA
:1014500003F1A401054BD3F8AC21064B0093012303
:1014600014F01EF90C37BD4690BD00BFA04F002000
:1014700061062000F506200080B500AF064B93F80A
:1014800064319AB2044BDB8809202D2112F034FE1E
:1014900001F030FD80BD00BFA04F002090B587B0A7
:1014A00002AF7860092001F0D1FC2E4B93F8A8110F
:1014B0002C4BB3F8A6311C462A4BD3F8AC212A4B4F
:1014C000009308462146012314F0EAF815F02CFD9C
:1014D00015F07EFF0246234BD3F89831D31A214AE8
:1014E000D2F89C2113441F4AC2F89C311D4A7B68E4
:1014F000C2F878311B4BD3F86831423318460DF0EF
:10150000B7F80346002B02D00023FB7301E0012350
:10151000FB73FB7B002B10D0124B93F8A801114BEF
:10152000D3F8783103F19B010E4BD3F8AC210F4B6C
:101530000093012314F0B4F810E00A48012104F0EC
:10154000F3FF084BD3F868311846002101F0C2FBC5
:10155000044B0022C3F8682101F0CCFC1437BD46CF
:1015600090BD00BFA04F002061062000F5062000BE
:1015700080B582B002AF0A2001F068FC134B93F8EB
:10158000A801124BD3F8783103F1A5010F4BD3F822
:10159000AC210F4B0093012314F082F80B4B93F80E
:1015A0008031184615F06CFC15F046FD15F010FF63
:1015B0000246064BC3F89821044B012283F8A02170
:1015C0000B2001F043FCBD4680BD00BFA04F0020B2
:1015D000F506200080B500AF064B93F864319AB24F
:1015E000044BDB8809202A2112F086FD01F082FCE1
:1015F00080BD00BFA04F002080B582B002AF0C209C
:1016000001F024FC15F028FD084B93F8A801074BC6
:10161000D3F8783103F1C501044BD3F8AC21044B66
:101620000093012314F03CF8BD4680BDA04F00207C
:10163000F506200080B500AF1348002104F074FFC8
:10164000114BD3F8683193F85520013AD2B283F8A0
:1016500055200D4BD3F8683193F85530002B07D146
:10166000094BD3F868311846012101F033FB04E03F
:10167000054BD3F868310A225A70034B0022C3F895
:10168000682101F037FC80BDA04F002090B585B0E7
:1016900002AF78600D2001F0D9FB144B93F8A8112C
:1016A000124BB3F8A6311C46104BD3F8AC21104BAB
:1016B000009308462146012313F0F2FF0B4A7B6892
:1016C000C2F87831094B93F8A801084BD3F8783168
:1016D00003F16201054BD3F8AC21064B00930123C3
:1016E00013F0DEFF0C37BD4690BD00BFA04F0020B9
:1016F00061062000F506200080B500AF064B93F888
:1017000064319AB2044BDB880920302112F0F4FCDA
:1017100001F0F0FB80BD00BFA04F0020B0B594B039
:1017200002AF78600E2001F091FB974B93F8A8115F
:10173000954BB3F8A6311C46934BD3F8AC21934B91
:10174000009308462146012313F0AAFF15F0ECFB95
:1017500015F03EFE02468C4BD3F89831D31A8A4AD4
:10176000D2F89C211344884AC2F89C31864A7B688F
:10177000C2F8783109200CF0B9F90246824BC3F85F
:101780007421814BD3F87431002B08D10920362104
:101790000022002312F0B0FC01F0ACFBF0E07A4B29
:1017A000D3F8743109221A70774BD3F874310922B7
:1017B0005A70754BD3F87431734AD2F87421C93218
:1017C0005A60714BD3F8743158686F4BD3F8743149
:1017D00003F108016C4BD3F8743103F1C5046A4B73
:1017E000D3F8743103F1C602674BD3F87431C733B1
:1017F000009201938222234615F048FC624BD3F8F5
:1018000074311B7A012B05D95F4BD3F874311B7AE5
:10181000802B0AD95C4BD3F874311B7A9BB2092018
:101820004121012212F068FC9EE0574BD3F874313D
:10183000184602210DF09CF9534BD3F8743193F8FC
:10184000C73083F00103DBB2002B00D08CE04E4B9D
:10185000D3F8742107F10803104619460DF06AFD0C
:101860003B7A83F00103DBB2002B00D07CE0464BD7
:10187000D3F87431BA7A83F85320434BD3F87431D8
:101880007A7C83F85420404BD3F8743142331A46A3
:1018900007F135031D685C689868D9681560546065
:1018A0009060D1601B7C1374374BD3F8742107F11F
:1018B00008031046194601F05FFD034683F001035B
:1018C000DBB2002B00D04FE02F4BD3F8743193F8EC
:1018D000A930002B09D02C4BD3F87431184601F0F5
:1018E00017FD0346002B00D03EE0274BD3F87421B0
:1018F0007B7A104619460DF0F7F8234BD3F8683180
:1019000007F108021046194600F0C6FC034683F0B2
:101910000103DBB2002B00D026E00BF061FE034692
:1019200083F00103DBB2002B0FD0174BD3F87431D7
:10193000423318460AF01AFD0346002B05D0B7F8CB
:1019400046301BB2184601F05DF90F48012104F042
:10195000EBFD0D4BD3F868311846002101F0BAF9C0
:10196000094B0022C3F86821074BD3F8743118469D
:101970000CF01AF9044B0022C3F8742101F0BAFAF2
:101980004837BD46B0BD00BFA04F00206106200013
:1019900080B582B002AF102001F058FA134B93F8D3
:1019A000A801124BD3F8783103F180010F4BD3F823
:1019B000AC210F4B0093012313F072FE0B4B93F8F5
:1019C0008031184615F05CFA15F036FB15F000FD75
:1019D0000246064BC3F89821044B012283F8A0214C
:1019E000112001F033FABD4680BD00BFA04F00209A
:1019F000F506200080B500AF064B93F864319AB22B
:101A0000044BDB8809202B2112F076FB01F072FADF
:101A100080BD00BFA04F002080B582B002AF122071
:101A200001F014FA15F018FB084B93F8A801074BC6
:101A3000D3F8783103F1D601044BD3F8AC21044B31
:101A40000093012313F02CFEBD4680BDA04F002063
:101A5000F506200080B500AF01F04CFA80BD00BF54
:101A600090B585B002AF7860132001F0EFF9164B06
:101A700093F8A811144BB3F8A6311C46124BD3F8B7
:101A8000AC21124B009308462146012313F008FEB7
:101A90000D4A7B68C2F878310B4A7B68C2F87C310A
:101AA000094B93F8A801084BD3F8783103F1A4014E
:101AB000054BD3F8AC21064B0093012313F0F0FD46
:101AC0000C37BD4690BD00BFA04F0020610620002E
:101AD000F506200080B500AF064B93F864319AB24A
:101AE000044BDB8809202D2112F006FB01F002FADD
:101AF00080BD00BFA04F0020B0B59AB002AF7860A3
:101B00000023FB83142001F0A1F9B74B93F8A8112F
:101B1000B54BB3F8A6311C46B34BD3F8AC21B34B4D
:101B2000009308462146012313F0BAFD15F0FCF995
:101B300015F04EFC0246AC4BD3F89831D31AAA4AA2
:101B4000D2F89C211344A84AC2F89C3109200BF01A
:101B5000CDFF0246A44BC3F86C21A34BD3F86C31E4
:101B6000002B08D1092036210022002312F0C4FAEC
:101B700001F0C0F995E19C4BD3F86C3109221A7041
:101B8000994BD3F86C3109225A70974BD3F86C31CA
:101B9000954AD2F86C21C9325A60934BD3F86C3114
:101BA0005868914BD3F86C3103F108018E4BD3F890
:101BB0006C3103F1C5048C4BD3F86C3103F1C602D0
:101BC000894BD3F86C31C7330092019382222346AC
:101BD00015F05CFA844BD3F86C311B7A012B05D9D4
:101BE000814BD3F86C311B7A802B0AD97E4BD3F80A
:101BF0006C311B7A9BB209204121022212F07CFA3F
:101C000043E1794BD3F86C31184602210CF0B0FF58
:101C1000754BD3F86C3193F8C73083F00103DBB216
:101C2000002B00D031E1704BD3F86C2107F1200379
:101C3000104619460DF07EFB97F8203083F0010323
:101C4000DBB2002B00D020E1674BD3F86C3197F862
:101C5000222083F85320644BD3F86C3197F8292065
:101C600083F85420604BD3F86C3197F8272083F821
:101C7000A1205D4BD3F86C3142331A4607F14D0376
:101C80001D685C689868D968156054609060D16080
:101C90001B7C1374544BD3F86C2107F120031046BE
:101CA000194601F069FB034683F00103DBB2002B08
:101CB00000D0EAE04C4BD3F86C3193F8A930002BFC
:101CC00023D001F0D9FA0346002B09D0464BD3F8B4
:101CD0006C31184601F01CFB0346002B15D0D4E0F4
:101CE000414BD3F86C3193F85330002B0CD13E4B61
:101CF000D3F86C213C4BD3F86C3193F8BD301046CF
:101D000019460CF035FF00E0BFE0374BD3F86C21EB
:101D100097F82130104619460CF0E6FE97F822306D
:101D2000002B21D197F82730002B1DD004200BF079
:101D300091FC024607F120030B33184611460CF0C4
:101D4000B3FD0346002B0FD0274BD3F86C2107F1CE
:101D50001E0310461946FFF7B5F8034683F001034A
:101D6000DBB2002B00D090E01F4BD3F86C21FB8B33
:101D7000DBB2104619460CF0B7FE1B4A7B68C2F86E
:101D8000783107F12003184600F04EFA034683F03D
:101D90000103DBB2002B00D077E0134BD3F86C319A
:101DA000114AD2F87C2192B2C2F1AB0292B292B245
:101DB000A3F8A62097F82530002B1BD00A4B93F8E8
:101DC000A131002B16D0084B93F8A801064BD3F88D
:101DD000783103F19901044BD3F8AC21044B009303
:101DE000012313F05DFC5CE0A04F002061062000A1
:101DF000F50620000BF0F4FB034683F00103DBB291
:101E0000002B35D0284BD3F86C31423318460AF0FA
:101E1000ADFA0346002B25D101F02EFA034683F0DC
:101E20000103DBB2002B1DD107F10C0318460AF0A9
:101E300077FA034683F00103DBB2002B12D107F1DE
:101E40000C0318460AF06CFA0346002B10D007F179
:101E50000C03184604F03EF9034683F00103DBB29D
:101E6000002B05D0104BD3F87C31184600F066FEED
:101E70000D4BD3F86C31184600F04CFF0A4B002292
:101E8000C3F86C2101F036F80BE0074BD3F86C3146
:101E900018460BF089FE044B0022C3F86C2101F0B8
:101EA00029F86037BD46B0BDA04F002090B583B083
:101EB00002AF152000F0CAFF674B93F8A801664BEC
:101EC000D3F8783103F1A801634BD3F8AC21634B0D
:101ED0000093012313F0E4FB09200BF007FE0246F8
:101EE0005D4BC3F870215C4BD3F87031002B12D1DD
:101EF000092036210022002312F0FEF8564BD3F8B9
:101F00006C31184600F006FF534B0022C3F86C21D9
:101F100000F0F0FF9CE0504BD3F8703109221A70AA
:101F20004D4BD3F8703109225A704B4BD3F87C31AA
:101F30009BB2C3F1AB039BB29AB2474BA3F8A42167
:101F4000454BD3F87031022283F85320424BD3F82B
:101F50007031414AD2F86C2192F8542083F8542011
:101F60003D4BD3F870313C4AD2F86C2192F8A9204D
:101F700083F8A920384BD3F87031374AD2F86C2156
:101F800092F8AA2083F8AA20334BD3F87031324A52
:101F9000D2F86C2192F8AB2083F8AB202E4BD3F80B
:101FA00070112D4BD3F8703193F853202A4BD3F88E
:101FB0006C3193F85440284BD3F86C314233009382
:101FC00008461146002223460DF068F8224BD3F84C
:101FD000703193F8A930002B11D01F4BD3F870311A
:101FE000184601F089F90346002B08D01A4BD3F8A4
:101FF000703118460BF0D8FD00F07CFF28E0164B3E
:10200000D3F87031184602210CF094FD124B93F86E
:102010008031184614F034FF0F4BD3F870315A68F2
:102020000D4BD3F870311B7A9BB21046194614F051
:102030008FFF14F0C9FF15F0CBF90246064BC3F829
:102040009821054B012283F8A021162000F0FEFE06
:102050000437BD4690BD00BFA04F0020F50620000C
:1020600080B500AF064B93F864319AB2044BDB881D
:1020700009202C2112F040F800F03CFF80BD00BF89
:10208000A04F002080B582B002AF172000F0DEFE26
:10209000094B93F8A801084BD3F8783103F1D50127
:1020A000054BD3F8AC21054B0093012313F0F8FA4C
:1020B00014F09AFFBD4680BDA04F0020F506200019
:1020C00080B500AF064B93F864319AB2044BDB88BD
:1020D00009202F2112F010F800F00CFF80BD00BF86
:1020E000A04F002090B585B002AF7860182000F0B6
:1020F000ADFE144B93F8A811124BB3F8A6311C4651
:10210000104BD3F8AC21104B009308462146012315
:1021100013F0C6FA0B4A7B68C2F87831094B93F882
:10212000A801084BD3F8783103F16201054BD3F8CD
:10213000AC21064B0093012313F0B2FA0C37BD46D5
:1021400090BD00BFA04F002061062000F5062000D2
:1021500080B500AF064B93F864319AB2044BDB882C
:102160000920302111F0C8FF00F0C4FE80BD00BF7F
:10217000A04F002090B585B002AF7860192000F024
:1021800065FE274B93F8A811254BB3F8A6311C46E2
:10219000234BD3F8AC21234B00930846214601235F
:1021A00013F07EFA1E4A7B68C2F878311C4BD3F8D4
:1021B000703118460BF0F8FC194B0022C3F870215F
:1021C0000BF00EFA034683F00103DBB2002B09D0BB
:1021D000134BD3F86C31423318460AF0C7F8034664
:1021E000002B07D101F048F8034683F00103DBB26E
:1021F000002B05D00A4BD3F87C31184600F09EFC2A
:10220000074BD3F86C31184600F084FD044B0022D4
:10221000C3F86C2100F06EFE0C37BD4690BD00BFC8
:10222000A04F00206106200090B583B000AF786019
:102230007B681B78002B27D07B689B78012B03D011
:102240007B689B78002B1FD17B6803F10B04042073
:102250000BF000FA0346204619460CF025FB034616
:10226000002B11D07B681C3318460BF097FA0346FD
:10227000002B07D17B681C3318460CF0F9F9034694
:10228000002B01D0012300E0002303F00103DBB2A7
:1022900018460C37BD4690BD90B583B000AF78604E
:1022A00039607B681B78002B27D07B689B78022BDA
:1022B00023D17B6803F10B0404200BF0CBF9034618
:1022C000204619460CF0F0FA0346002B15D07B6827
:1022D0001C3318460BF062FA0346002B0DD07B68C6
:1022E00003F12D023B684233104619460CF0DCFA2C
:1022F0000346002B01D0012300E0002303F001037B
:10230000DBB218460C37BD4690BD00BF80B582B029
:1023100000AF284BB3F803309BB201339AB2254B80
:10232000A3F80320234BB3F803309BB2002B14D146
:10233000204BB3F801309BB201339AB21D4BA3F886
:1023400001201C4BB3F801309BB2002B05D1194B77
:102350001B780133DAB2174B1A7003F0E1FF034622
:10236000FB80FB88002B06D1124BDB8801339AB22D
:10237000104BDA800BE00F4BDB880133FA8893FBBC
:10238000F2F102FB01F29B1A9AB20A4BDA80094B76
:1023900093F881315A1C084B1340002B03DA013BA0
:1023A00063F00F030133DAB2024B83F8812108375F
:1023B000BD4680BDA04F00200F00008080B400AF5C
:1023C0000B4B0022DA800A4B002283F88121084B54
:1023D00000221A70064B00225A7000229A70044B99
:1023E0000022DA7000221A71BD465DF8047B704746
:1023F000A04F002080B483B000AF7860164BB3F8D4
:1024000003309BB2DAB27B681A707B680133124AE0
:10241000B2F8032092B2120A92B2D2B21A707B685A
:1024200002330D4AB2F8012092B2D2B21A707B6820
:102430000333094AB2F8012092B2120A92B2D2B220
:102440001A707B680433044A12781A700C37BD4640
:102450005DF8047B704700BFA04F002080B483B0BC
:1024600000AF054BB3F8A431FB80FB8818460C374E
:10247000BD465DF8047B7047A04F002080B483B058
:1024800000AF78603960074BD3F807207B681A608B
:10249000044BD3F80B203B681A600C37BD465DF83F
:1024A000047B70475451002080B483B000AF0346D2
:1024B000FB71084BD3F86C31FA7983F8A020054BF7
:1024C000D3F86C31012283F8A3200C37BD465DF8A8
:1024D000047B7047A04F002090B585B000AF7860B6
:1024E00039603B685B78786819460CF0FDFA002388
:1024F000FB813B681B78002B20D03B68DB79002BED
:102500001CD03B689B78002B18D13B6803F10B046F
:1025100004200BF09FF80346204619460CF0C4F93E
:102520000346002B0AD007F10E0378681946FEF720
:10253000C9FC0346002B01D0012300E00023002B3F
:1025400001D100231CE03B685B78786819460CF0E9
:10255000A5FA00F091FE0346002B07D0786800F042
:10256000D7FE0346002B0AD1012309E07B6893F8CC
:10257000BD30786819460CF0FBFA012300E0002317
:1025800018461437BD4690BD80B58EB002AF786056
:102590003960002387F82F30002387F82E3000237E
:1025A00087F82D30002387F82C30002387F82B3054
:1025B000002387F82A3035E07B685A6897F82B307B
:1025C00013441B78BB847B685A6897F82B3001331F
:1025D00013441B781B029AB2BB8C13439BB2BB847F
:1025E00097F82B30023387F82B30BB8C87F82830D4
:1025F000BB8C03F4F043DB12012B03D1BB8C1BB269
:10260000002B07DB97F82B2097F82830134487F826
:102610002B3007E0012387F82A3097F82B3087F812
:10262000293005E07B681B7A97F82B209A42C3D3A8
:1026300097F82A3083F00103DBB2002B01D000238E
:1026400065E123E17B685A6897F82B3013441B78C7
:10265000BB847B685A6897F82B30013313441B788E
:102660001B029AB2BB8C13439BB2BB8497F82B30EE
:10267000023387F82B30BB8CDB0B9BB287F82330FF
:1026800097F82330012B1BD1BB8C03F4F043DB12F2
:1026900087F82230BB8C87F8273097F82230092B37
:1026A00000D00CE07B685A6897F82B3013441B78F5
:1026B000184600F033FA012387F82F3000BFDEE020
:1026C000BB8C03F4FE431B1287F82230BB8C87F8C7
:1026D000273097F822301B2B27D01C2B18D01A2B11
:1026E00000D0CCE07B685A6897F82B30134418462A
:1026F00000F012F97B685A6897F82B3005331344C1
:102700001B781846FFF7D0FE012387F82D30B6E07E
:102710007B685A6897F82B3013441B78184600F0F2
:10272000EDF9012387F82E30A9E07B685A6897F805
:102730002B3013441B78184602F02AFE7B685A6837
:1027400097F82B30013313441B78184602F00EFE25
:1027500003F0E6FD034687F8213097F82130002B7F
:1027600040F089807B685A6897F82B300233134415
:102770001B78BB847B685A6897F82B30033313446B
:102780001B781B029AB2BB8C13439BB2BB84BB8CDD
:10279000184602F0D1FD7B685A6897F82B30043355
:1027A00013441B7887F8203007F1080318460021EE
:1027B000112218F095FB06233B72002387F8263080
:1027C00053E07B68596897F82B0097F8262013464A
:1027D0009B001344034405330B441B78FB837B6845
:1027E000596897F82B0097F8262013469B0013444E
:1027F000034406330B441B781B029AB2FB8B134332
:102800009BB2FB837B68596897F82B0097F82620CA
:1028100013469B001344034407330B441B78BB83CC
:102820007B68596897F82B0097F8262013469B0081
:102830001344034408330B441B781B029AB2BB8B2E
:1028400013439BB2BB83BB8BDBB2FA8B009307F1C4
:1028500008030193104603210122002302F0FAFD30
:1028600097F82630013387F8263097F8262097F816
:1028700020309A42A5D3012387F82C3000BF97F867
:102880002B2097F82730134487F82B3097F82B200C
:1028900097F8291097F828300B449A421FDA97F8D6
:1028A0002F3083F00103DBB2002B7FF4CBAE97F81F
:1028B0002E3083F00103DBB2002B7FF4C3AE97F818
:1028C0002D3083F00103DBB2002B7FF4BBAE97F811
:1028D0002C3083F00103DBB2002B7FF4B3AE97F80A
:1028E0002F30002B12D097F82E30002B0ED097F8F7
:1028F0002D30002B0AD097F82C30002B06D07B68A7
:102900001B7A9AB23B681A80012300E00023184624
:102910003037BD4680BD00BF80B483B000AF786063
:102920007B681B789AB27B6801331B789BB21B02D1
:102930009BB213449AB20D4BA3F803207B68023379
:102940001B789AB27B6803331B789BB21B029BB245
:1029500013449AB2054BA3F801207B681A79034B04
:102960001A700C37BD465DF8047B7047A04F0020FD
:1029700080B582B000AF03F0D3FC0346BB80314B7F
:102980001B783B60BA883B68B3FBF2F102FB01F2B3
:102990009B1A3B603B681B043B602A4BB3F8013039
:1029A0009BB21A463B6813443B60BA883B68B3FB52
:1029B000F2F102FB01F29B1A3B603B681B043B6097
:1029C000204BB3F803309BB21A463B6813443B607C
:1029D000BA883B68B3FBF2F102FB01F29B1A3B6041
:1029E0003B689AB2174BDA80164BDB88184603F027
:1029F0005BFC03F081FC03461A46124B1A8100234C
:102A0000FB710EE00F4B93F880310B3BFA790D49C7
:102A10000A4492F88421934200D105E0FB79013306
:102A2000FB71FB790F2BEDD903F0F2FC03461A463C
:102A3000FB799B1ADAB2034B83F881210837BD4634
:102A400080BD00BFA04F002080B483B000AF03461C
:102A5000FB71044AFB7982F8A1310C37BD465DF861
:102A6000047B7047A04F002080B483B000AF0346C2
:102A7000FB71FB790A2B02D9FB791A2B03D9FB795D
:102A8000002B00D007E0064AFB7982F88231044B24
:102A9000012283F883210C37BD465DF8047B704723
:102AA000A04F002080B483B000AF0346FB71044AFE
:102AB000FB7982F8A2310C37BD465DF8047B704784
:102AC000A04F002080B483B000AF0346FB80044ACF
:102AD000FB88A2F8A6310C37BD465DF8047B704731
:102AE000A04F002080B400AF034BB3F8A6311846C6
:102AF000BD465DF8047B7047A04F002080B483B0D2
:102B000000AF0346FB71044AFB7982F894310C371D
:102B1000BD465DF8047B7047A04F002080B483B0B1
:102B200000AF0346FB71044AFB7982F895310C37FC
:102B3000BD465DF8047B7047A04F002080B588B08B
:102B400002AF786012F02CFF02462B4BD3F8AC3169
:102B5000D31A3B61284BB3F8A631FB607B68AB3BD3
:102B6000BB603A697B689A4202D2BB687B6103E032
:102B7000FA68BB6813447B617A693B69D31A042BFA
:102B800005DC7B6903F28F237B61FFF7BFFB1A4BE8
:102B900093F8A811184BD3F8AC21184B00930846B2
:102BA0007969012312F07CFD7B699AB2124BA3F87C
:102BB000A621114B40F2D662DA600F4B1B7C002B32
:102BC0000ED0BB6813F1050F02DBBB68052B07DDD8
:102BD000BB689BB2092023211A46002311F08CFA0E
:102BE000074B1B780133DAB2054B1A70B86800F056
:102BF000DFF81837BD4680BDA04F002061062000D9
:102C00005451002080B586B002AF78601E4BB3F8F7
:102C1000A631FB60FA687B681344BB601A4B93F8DB
:102C2000A811194BD3F8AC21184B00930846B9688A
:102C3000012312F035FDBB689AB2134BA3F8A6210D
:102C4000114B40F2D662DA600F4B1B7C002B0ED08A
:102C50007B6813F1050F02DB7B68052B07DD7B68C2
:102C60009BB2092023211A46012311F045FA084B93
:102C70005B780133DAB2064B5A70786800F098F846
:102C80001037BD4680BD00BFA04F00206106200068
:102C90005451002080B582B000AF0346FB710C4A4E
:102CA000FB7913740A4B1B7C002B09D013F0DEFE5A
:102CB00000F04EF802200021002211F0F9FA03E0A2
:102CC00013F0DAFE03F000FC0837BD4680BD00BFFC
:102CD000A04F002080B582B000AF78600B46FB703B
:102CE0007B68FA7883F841207B685733074A10687D
:102CF000186012791A717B680B225A7004480221FD
:102D000011F0D6F80837BD4680BD00BFA04F0020A7
:102D1000BD6D200080B582B000AF78607B6857330E
:102D2000094A1068186012791A717B68573318467F
:102D300003F0DCFB7B680B225A700448012111F080
:102D4000B7F80837BD4680BDA04F0020856E200033
:102D500080B400AF154B00221A70144B00225A7039
:102D6000124B002242F07F029A700022DA700F4B61
:102D7000002262F07E021A714FF0FF325A710B4B43
:102D80000022DA7100221A7200225A7200229A720C
:102D9000064B0022DA7200221A7300225A730022B4
:102DA0009A73BD465DF8047B704700BF5451002004
:102DB00080B483B000AF78600E4BB3F902309BB2A1
:102DC0001AB27B689A4203DD7B689AB2094B5A803B
:102DD000084BB3F904309BB21AB27B689A4203DA0B
:102DE0007B689AB2034B9A800C37BD465DF8047B32
:102DF000704700BF5451002080B483B000AF034639
:102E0000FB71114B93F882310A2B08D90E4B93F8C2
:102E100082311A2B03D80C4B93F882310DE00A4B08
:102E200093F881311A46FB79134403F00F03064AE5
:102E3000134493F884310B33DBB218460C37BD468C
:102E40005DF8047B704700BFA04F002080B582B0C2
:102E500000AF0346FB71264AFB7982F86431244BAC
:102E600093F86431192B40D801A252F823F000BF27
:102E7000DF2E2000D92E2000E52E2000E52E200098
:102E8000D92E2000E52E2000E52E2000E52E200082
:102E9000E52E2000E52E2000E52E2000E52E200066
:102EA000E52E2000E52E2000E52E2000DF2E20005C
:102EB000E52E2000E52E2000E52E2000E52E200046
:102EC000E52E2000E52E2000E52E2000E52E200036
:102ED000E52E2000E52E200013F062FB05E013F044
:102EE00055FB02E013F048FB00BF0837BD4680BD2C
:102EF000A04F002090B58DB002AF14F015F89E4B96
:102F000093F8A031002B0DD014F062FA02469A4BD0
:102F1000D3F89831D31A984AD2F89C211344964A90
:102F2000C2F89C31944B93F8A811934BB3F8A63197
:102F30001C46914BD3F8AC21904B00930846214698
:102F4000012312F0ADFB8C4B0022C3F878218A4B91
:102F50000022C3F87C218A4BD3F80720864BD3F894
:102F60009C311344864AC2F80730854BD3F80B30A6
:102F7000814AB2F8A6211344814AC2F80B30804B33
:102F8000D3F80B30002B0DDA7D4BD3F80B305B08F8
:102F90007B4AC2F80B307A4BD3F807305B08784A8B
:102FA000C2F80730744B0022C3F89C21724B0022F8
:102FB00083F8A021704BD3F86831002B24D06E48E1
:102FC000002103F0B1FA6C4BD3F8683193F8552027
:102FD000013AD2B283F85520674BD3F8683193F8A1
:102FE0005530002B07D1644BD3F8683118460121C6
:102FF000FFF770FE04E0604BD3F868310A225A7084
:103000005D4B0022C3F8682103F09CF9034687F862
:10301000273097F82730022B29D1574BD3F86C3142
:10302000002B07D0544BD3F86C31423318460221A1
:1030300001F0C6FC03F0AEF90346002B0CD03B4672
:10304000184609F06DF90346002B10D03B46184690
:10305000022101F02DFC0AE007F11403184603F0E9
:10306000ADF907F114031846022101F021FC424B8F
:10307000D3F86C31002B09D03F4BD3F86C31184694
:10308000FFF748FE3C4B0022C3F86C213A4BD3F8C3
:103090007031002B09D0384BD3F8703118460AF044
:1030A00083FD354B0022C3F87021334BD3F87431C4
:1030B000002B09D0304BD3F8743118460AF074FD58
:1030C0002D4B0022C3F8742103F08EF903461A46F3
:1030D000294BDB889A421FD103F05CF90346002B91
:1030E0001AD003F02FF90346012B15D107F1140371
:1030F000184603F063F907F1140318460BF090F833
:103100000346002B08D11C4BDA8807F11403104644
:103110000121012202F074FB0020FFF797FE164BFD
:103120001B7C002B11D0144B93F8B011124BB3F849
:10313000A631203B1C46104BD3F8AC21114B009319
:1031400008462146012312F0ABFA0B4BB3F8A63127
:103150001A46094BD3F8AC31D41812F021FC0346BF
:10316000E31A203B044AB2F8A621934201D211F09F
:103170009BFA2C37BD4690BDA04F00206106200071
:10318000545100201908200080B400AF034B1B7C71
:103190001846BD465DF8047B704700BFA04F002075
:1031A00080B500AF0B4B00221A700A4B01225A70F7
:1031B000084B00229A7008480021102217F090FE58
:1031C000044B0022DA7405480021102217F088FE13
:1031D00080BD00BF7451002077510020885100202D
:1031E00080B400AF034B9B781846BD465DF8047B66
:1031F000704700BF7451002080B400AF034BDB7CEC
:103200001846BD465DF8047B704700BF745100202E
:1032100090B482B000AF03463960FB71084AFB7975
:103220009370074B3A680333146850689168D2680A
:103230001C6058609960DA600837BD4690BC7047E2
:103240007451002090B482B000AF03463960FB7126
:10325000084AFB79D374074B3A68143314685068F2
:103260009168D2681C6058609960DA600837BD4682
:1032700090BC70477451002080B400AF0C4B1B7899
:1032800083F00103DBB2002B01D001230AE0084BDD
:103290009B78002B05D0064BDB7C002B01D0012353
:1032A00000E000231846BD465DF8047B704700BF70
:1032B0007451002080B400AF034B01221A70BD4648
:1032C0005DF8047B704700BF7451002080B483B068
:1032D00000AF786000BF0C37BD465DF8047B7047D7
:1032E00080B483B000AF7860396000BF0C37BD4652
:1032F0005DF8047B704700BF80B483B000AF786096
:10330000002318460C37BD465DF8047B704700BFAC
:1033100080B483B000AF7860002318460C37BD46F8
:103320005DF8047B704700BF80B483B000AF0346F4
:10333000FB71002318460C37BD465DF8047B7047CF
:1033400080B483B000AF0346FB710B46BB711346DC
:103350007B71002318460C37BD465DF8047B70472F
:1033600080B483B000AF7860002318460C37BD46A8
:103370005DF8047B704700BF80B483B000AF786015
:103380003960012318460C37BD465DF8047B704751
:1033900080B500AF0348002140F2964217F0A0FD2F
:1033A00080BD00BFDC42002080B483B000AF0023AA
:1033B000BB710023FB7110E0FA790D4913469B00A5
:1033C0001344DB009B1A0B441B78002B02D0BB7903
:1033D0000133BB71FB790133FB71FB791D2BEBD9F9
:1033E000BB7918460C37BD465DF8047B704700BFBB
:1033F000DC42002080B483B000AF0346FB71FA7951
:10340000074913469B001344DB009B1A0B441033FF
:10341000DB889BB218460C37BD465DF8047B7047CD
:10342000DC42002080B483B000AF0346FB71FA7920
:10343000074913469B001344DB009B1A0B441833C7
:103440001B785BB218460C37BD465DF8047B7047AD
:10345000DC42002080B483B000AF0346FB71FA79F0
:10346000074913469B001344DB009B1A0B44183397
:103470009B7818460C37BD465DF8047B704700BF4B
:10348000DC42002080B584B000AF0346FB8007F12A
:103490000D03184608F030FF0346002B2AD07B7B33
:1034A0001A46174913469B001344DB009B1A0B4432
:1034B0001B78002B1ED07B7B1A4613469B001344BF
:1034C000DB009B1A18330E4A134405331846FCF7E9
:1034D00093FF0346FB81FA89FB889A420AD97B7BDA
:1034E0001A4613469B001344DB009B1A044A1344FC
:1034F000053300E0002318461037BD4680BD00BFED
:10350000DC42002080B483B000AFFF23BB710023F6
:103510003B600023FB713AE0FA79224913469B0095
:103520001344DB009B1A0B441B78002B2CD0FA7938
:103530001C4913469B001344DB009B1A0B44DB78A9
:10354000002B21D0FA79174913469B001344DB0066
:103550009B1A0B4420339B78BA799A4214D3FA7998
:1035600013469B001344DB009B1A0E4A1344053399
:103570003B60FA790B4913469B001344DB009B1A0E
:103580000B4420339B78BB71FB790133FB71FB79D2
:103590001D2BC1D93B6818460C37BD465DF8047B2E
:1035A000704700BFDC42002080B483B000AF034608
:1035B000FB71FA79074913469B001344DB009B1A01
:1035C0000B442033DB7818460C37BD465DF8047B8E
:1035D000704700BFDC42002080B584B000AF786047
:1035E0000023FB7313E0FA7B13469B001344DB00BC
:1035F0009B1A0F4A13440533786819460BF054F9A7
:103600000346002B00D005E0FB7B0133FB73FB7B03
:103610001D2BE8D9FA7B064913469B001344DB00B7
:103620009B1A0B4420331B7918461037BD4680BDCA
:10363000DC42002080B58CB000AF7860002387F8B2
:103640002E307B681B78032B0DD107F1080207F1A0
:103650001C03786811461A460AF04AFF00BF00238F
:1036600087F82F302BE07B681B789BB20D203B2125
:103670001A46002310F060FD97F82E3025E007F180
:103680001C0297F82F301046194601F06BF80346DC
:10369000002B0FD097F82F200E4913469B001344A0
:1036A000DB009B1A0B44DB78002B03D0012387F847
:1036B0002E3008E097F82F30013387F82F3097F835
:1036C0002F301D2BDBD997F82E3018463037BD46EA
:1036D00080BD00BFDC42002080B483B000AF034651
:1036E000FB71FA79104913469B001344DB009B1AC7
:1036F0000B44DB78002B0CD0FA790B4913469B0066
:103700001344DB009B1A0B441B78002B01D00123D0
:1037100000E0002303F00103DBB218460C37BD467E
:103720005DF8047B704700BFDC42002080B584B0A8
:1037300000AF78600123BB737B681B78022B0AD033
:103740007B681B789BB20D203B211A46012310F0A9
:10375000F3FCBB7B1DE000BF0023FB7315E0FB7B8C
:103760007868194600F0FEFF0346002B0AD0FA7B6A
:103770000A4913469B001344DB009B1A0B445B78F9
:10378000BB7305E0FB7B0133FB73FB7B1D2BE6D991
:10379000BB7B18461037BD4680BD00BFDC42002011
:1037A00090B585B000AF0346FB71FA791149134615
:1037B0009B001344DB009B1A0B441B78002B12D098
:1037C000FA790C4913469B001344DB009B1A0B4407
:1037D0001033DB889CB208F0FDFD03469C4202D307
:1037E0000123FB7301E00023FB73FB7B18461437B6
:1037F000BD4690BDDC42002080B485B000AF0346DA
:10380000FB71FA79104913469B001344DB009B1AA5
:103810000B441B78002B0ED0FA790B4913469B0002
:103820001344DB009B1A0B4418339B78102B02D9EE
:103830000123FB7301E00023FB73FB7B1846143765
:10384000BD465DF8047B7047DC42002090B589B02E
:1038500002AFF8607A601A460B46FB721346BB72E1
:103860000123BB750023FB750BE1FB7DF86819464E
:1038700000F078FF0346002B00F000810023BB75A9
:10388000FA7D8C4913469B001344DB009B1A0B44C2
:1038900097F82C205A70FA7D864913469B001344F2
:1038A000DB009B1A0B4418335B780133D8B2814993
:1038B00013469B001344DB009B1A0B44183302464B
:1038C0005A70FA7D7B4913469B001344DB009B1A18
:1038D0000B441833FA7A1A70FA7D13469B0013448E
:1038E000DB009B1A1833734A134405337A68116856
:1038F000196012791A71BB7A002B0BD0FA7D6D49D1
:1039000013469B001344DB009B1A0B44203397F8AB
:1039100028209A70FA7D674913469B001344DB0008
:103920009B1A0B44DB7883F00103DBB2002B4CD0F5
:10393000FA7D604913469B001344DB009B1A0B443D
:1039400018331B785BB213F1450F33DBFA7D59490D
:1039500013469B001344DB009B1A0B441B79013375
:10396000D8B2544913469B001344DB009B1A0B4406
:1039700002461A71FA7D4F4913469B001344DB003F
:103980009B1A0B441B79022B77D9FA7D49491346C0
:103990009B001344DB009B1A0B4400221A71FA7D32
:1039A000444913469B001344DB009B1A0B4401223D
:1039B000DA7062E0FA7D3F4913469B001344DB0056
:1039C0009B1A0B4400221A715FE0FA7D39491346B5
:1039D0009B001344DB009B1A0B44DB78002B4CD07C
:1039E000FA7D344913469B001344DB009B1A0B44B9
:1039F00018331B785BB213F1500F33DAFA7D2D497F
:103A000013469B001344DB009B1A0B441B790133C4
:103A1000D8B2284913469B001344DB009B1A0B4481
:103A200002461A71FA7D234913469B001344DB00BA
:103A30009B1A0B441B79022B1FD9FA7D1D49134693
:103A40009B001344DB009B1A0B4400221A71FA7D81
:103A5000184913469B001344DB009B1A0B440022B9
:103A6000DA7012E0FA7D134913469B001344DB0021
:103A70009B1A0B4400221A7107E006E0FB7D01331C
:103A8000FB75FB7D1D2B7FF6F0AEBB7D002B0ED0B2
:103A900097F90B20BC7A97F82830009397F82C30D0
:103AA0000193F86811467A68234600F069FC1C37D8
:103AB000BD4690BDDC42002080B584B000AF786088
:103AC000084611461A460346FB700B46BB70134668
:103AD0007B7078680AF0CCFD0346002B00D0C7E06D
:103AE0000023FB73C0E0FB7B7868194600F03AFEC8
:103AF0000346002B00F0B580FA7B5F4913469B001C
:103B00001344DB009B1A0B44203301225A71FA7BC9
:103B1000594913469B001344DB009B1A0B44203386
:103B200000229A717B78002B0ED0FA7B13469B0003
:103B30001344DB009B1A18334F4A13440533BA6908
:103B40001168196012791A71BB78002B00F0888017
:103B5000FA7B494913469B001344DB009B1A0B4434
:103B600018339B781A46FB78C3F1FF039A4243DD72
:103B7000FA7B414913469B001344DB009B1A0B441C
:103B800018331B790133D8B23B4913469B001344C9
:103B9000DB009B1A0B44183302461A71FA7BF97B3F
:103BA00035480B469B000B44DB005B1A034418337B
:103BB0009B785B08D8B2304913469B001344DB0066
:103BC0009B1A0B44183302469A70FA7BF97B2A48F9
:103BD0000B469B000B44DB005B1A03441833DB7875
:103BE0005B08D8B2244913469B001344DB009B1AA0
:103BF0000B4418330246DA70FA7BF97B1E480B46F9
:103C00009B000B44DB005B1A034418339978FB7864
:103C10000B44D8B2184913469B001344DB009B1A8F
:103C20000B44183302469A707B78002B15D0FA7B30
:103C3000114913469B001344DB009B1A0B441833B5
:103C4000DB780133D8B20C4913469B001344DB00E8
:103C50009B1A0B4418330246DA7008F0D7FB07E0D2
:103C600006E0FB7B0133FB73FB7B1D2B7FF63BAF39
:103C70001037BD4680BD00BFDC42002080B584B057
:103C800000AF78600023FB7342E0FA7B13469B0091
:103C90001344DB009B1A214A134405337868194604
:103CA0000AF002FE0346002B2FD0FA7BF97B1B485B
:103CB0000B469B000B44DB005B1A034420331B794B
:103CC0000133D8B2154913469B001344DB009B1AFD
:103CD0000B44203302461A71FA7B104913469B00AD
:103CE0001344DB009B1A0B4420331B79002B0BD1B0
:103CF000FA7B0A4913469B001344DB009B1A0B44D2
:103D0000203301221A7106E005E0FB7B0133FB73CF
:103D1000FB7B1D2BB9D91037BD4680BDDC4200208E
:103D200080B584B000AF78600023FB731EE0FA7B9F
:103D300013469B001344DB009B1A0F4A13440533C0
:103D4000786819460AF0B0FD0346002B0BD0FA7BC9
:103D5000094913469B001344DB009B1A0B44203394
:103D600000221A7105E0FB7B0133FB73FB7B1D2BEB
:103D7000DDD91037BD4680BDDC42002080B584B05F
:103D800000AF78600B46FB701346BB700023FB73DB
:103D9000FB78022B1DD17B68591CBA7813469B0017
:103DA0001344DB009B1A124A13449A1D0B461168F8
:103DB000526819605A607B6802221A70BA780C49FE
:103DC00013469B001344DB009B1A0B441B78FB73C8
:103DD00008E0FB789BB20D203B211A46022310F02D
:103DE000ABF900BFFB7B18461037BD4680BD00BF56
:103DF000DC42002090B585B000AF78600023FB73F3
:103E000059E0FA7B13469B001344DB009B1A2D4AB2
:103E100013440533786819460AF046FD0346002B23
:103E200046D0FA7B274913469B001344DB009B1ABC
:103E30000B4420335B79042B15D8FA7B21491346B8
:103E40009B001344DB009B1A0B4420335B79013346
:103E5000D8B21C4913469B001344DB009B1A0B4449
:103E6000203302465A71FC7B0AF0D2FA0346D8B2DC
:103E7000FA7B144913469B001344DB009B1A0B4446
:103E800020335B791A4601239340DBB2013BDBB25E
:103E9000DBB202461340DBB2D9B20A4A23469B008A
:103EA0002344DB001B1B134420330A469A7105E0B0
:103EB000FB7B0133FB73FB7B1D2BA2D91437BD4663
:103EC00090BD00BFDC42002080B584B000AF7860B8
:103ED0000023FB7336E0FA7B13469B001344DB00A0
:103EE0009B1A1B4A13440533786819460AF0DCFC18
:103EF0000346002B23D0FA7B154913469B0013443D
:103F0000DB009B1A0B4420339B79002B16D0FA7BE5
:103F10000F4913469B001344DB009B1A0B442033CC
:103F20009B79013BD8B20A4913469B001344DB003E
:103F30009B1A0B44203302469A7106E005E0FB7B96
:103F40000133FB73FB7B1D2BC5D91037BD4680BDEC
:103F5000DC42002080B584B000AF78600023BB73E2
:103F60000023FB7322E0FA7B13469B001344DB0023
:103F70009B1A154A13440533786819460AF094FCD5
:103F80000346002B0FD0FA7B0F4913469B001344C6
:103F9000DB009B1A0B4420339B79002B0CBF0123C1
:103FA0000023BB7305E0FB7B0133FB73FB7B1D2B05
:103FB000D9D9FB7B1E2B01D10123BB73BB7B1846D8
:103FC0001037BD4680BD00BFDC42002080B584B004
:103FD00000AF78600023FB7329E0FA7B13469B0057
:103FE0001344DB009B1A154A1344053378681946BD
:103FF0000AF05AFC0346002B16D0FA7B0F491346F1
:104000009B001344DB009B1A0B44203301225A719E
:10401000FA7B0A4913469B001344DB009B1A0B44AE
:10402000203300229A7105E0FB7B0133FB73FB7B9D
:104030001D2BD2D91037BD4680BD00BFDC42002009
:1040400080B483B000AF03460A46FB711346BB80C1
:10405000FA79074913469B001344DB009B1A0B4473
:104060001033BA88DA800C37BD465DF8047B7047A0
:10407000DC42002080B584B000AF78600023FB7381
:1040800018E0FB7B7868194600F06CFB0346002BB8
:104090000DD0FA7B0A4913469B001344DB009B1AA0
:1040A0000B4420330122DA7008F0B0F905E0FB7B05
:1040B0000133FB73FB7B1D2BE3D91037BD4680BD5D
:1040C000DC42002080B483B000AF03460A46FB7197
:1040D0001346BB71FA79B879064913469B0013441D
:1040E000DB009B1A0B4402469A700C37BD465DF804
:1040F000047B7047DC42002080B485B000AF0346EB
:10410000FB71FA79394913469B001344DB009B1A73
:104110000B441833DB78002B33D1FA79334913463B
:104120009B001344DB009B1A0B4418339B78042B31
:1041300023D9FA792D4913469B001344DB009B1ABF
:104140000B4418339B780F2B13D8FA792749134661
:104150009B001344DB009B1A0B4418339B789BB2E3
:104160001A46520013441B029BB2A3F50073FB8155
:1041700035E04FF6FF73FB8131E04FF42063FB81A4
:104180002DE0FA79194913469B001344DB009B1A72
:104190000B4418339B789B02BB60BA6813465B00E4
:1041A00013441B021846FA79104913469B00134426
:1041B000DB009B1A0B441833DB78B0FBF3F3BB60D6
:1041C000BB68A3F50023BB60BB68B3F1806F03D36A
:1041D0004FF6FF73FB8102E0BB689B0AFB81FB8902
:1041E00018461437BD465DF8047B7047DC4200205A
:1041F00080B588B000AF3B1D184608F091F8034623
:1042000083F00103DBB2002B64D13B1D184608F09C
:1042100087F80346002B09D03B1D184601F076FEB7
:10422000034683F00103DBB2002B53D10023FB775D
:104230004DE0FA7F294913469B001344DB009B1A8B
:104240000B441B78002B3FD0FA7F13469B0013448E
:10425000DB009B1A1833214A134405331846FCF738
:10426000CBF8B861BB6940F6AC5293422CD9FA7FC7
:104270001A4913469B001344DB009B1A0B4420335E
:10428000DB7883F00103DBB2002B1DD0FA7F1349EA
:1042900013469B001344DB009B1A0B449B78002BB6
:1042A00012D1FA7F13469B001344DB009B1A0B4A82
:1042B00013440533184609F0B3FF0346002B03D11E
:1042C000FB7F184600F084F9FB7F0133FB77FB7F0F
:1042D0001D2BAED92037BD4680BD00BFDC4200207B
:1042E000F0B58BB000AF244B93F894345A1C234B99
:1042F00082FB030153181911D317C91A0B461B016E
:104300005B1A5B00D11ACAB21B4B83F894241A4B78
:1043100093F894343B70184B93F894341A4616492A
:1043200013469B001344DB009B1A0B44781C03F1DB
:10433000200402461946D1F800E04E688D68C9682D
:10434000C2F800E056609560D16010331030A3428F
:10435000EFD102461968116099889B799180937119
:104360003B460920194628220FF06CFE012318460F
:104370002C37BD46F0BD00BFDC420020898888880C
:10438000B0B586B000AFF8607A601A460B46FB7293
:104390001346BB72FB681B78022B09D0FB681B78A5
:1043A0009BB20D203B211A4603230FF0C5FEEBE024
:1043B000F86800F0EFF8034683F00103DBB2002B4E
:1043C00000F0E2800023FB75D0E0FA7D70491346CF
:1043D0009B001344DB009B1A0B441B7883F0010302
:1043E000DBB2002B00F0BF8097F90B3013F1500FB8
:1043F00000DABFE0FA7D664913469B001344DB00F8
:104400009B1A0B4401221A70FA7D614913469B00E6
:104410001344DB009B1A0B4497F82C205A70FA7D4A
:104420005B4913469B001344DB009B1A0B4401229B
:10443000DA70FA7D564913469B001344DB009B1A41
:104440000B4400221A71FA7D13469B001344DB00D3
:104450009B1A4F4A13440533FA68156854689068EC
:10446000D1681D605C609860D960127C1A74FA7D16
:10447000474913469B001344DB009B1A0B4410333F
:104480004FF0FF329A714FF0FF32DA71FA7D4049F6
:1044900013469B001344DB009B1A0B441833FA7A33
:1044A0001A70FA7D3A4913469B001344DB009B1AAD
:1044B0000B44183301225A70FA7D354913469B008C
:1044C0001344DB009B1A0B44183300229A70FA7DC8
:1044D0002F4913469B001344DB009B1A0B441833EF
:1044E0000022DA70FA7D13469B001344DB009B1A0E
:1044F0001833274A134405337A6811681960127912
:104500001A71FA7D224913469B001344DB009B1A63
:104510000B44203301225A71FA7D1D4913469B003A
:104520001344DB009B1A0B44203300229A71BB7AA0
:10453000002B0CD0FA7D164913469B001344DB0078
:104540009B1A0B44203397F828209A7012E0FA7DCA
:104550000F4913469B001344DB009B1A0B44203386
:10456000FF229A7006E0FB7D0133FB75FB7D1D2B5E
:104570007FF62BAFFB7D1E2B06D10D2018211E22AE
:1045800000230FF0B9FD00BF1837BD46B0BD00BF16
:10459000DC42002080B584B000AF78600023FB735C
:1045A0000023FB730CE0FB7B7868194600F0DAF817
:1045B0000346002B01D0012306E0FB7B0133FB7394
:1045C000FB7B1D2BEFD9002318461037BD4680BD5D
:1045D00080B483B000AF0346FB71FA79604913469B
:1045E0009B001344DB009B1A0B4400221A70FA79DB
:1045F0005B4913469B001344DB009B1A0B440022CB
:104600009A70FA79564913469B001344DB009B1AB3
:104610000B440022DA70FA79514913469B00134487
:10462000DB009B1A0B4400221A71FA794C4913469D
:104630009B001344DB009B1A0B4410334FF0FF32F6
:104640009A714FF0FF32DA71FA79454913469B00AF
:104650001344DB009B1A0B44183300221A70FA79BA
:104660003F4913469B001344DB009B1A0B4418334D
:1046700000225A70FA793A4913469B001344DB0032
:104680009B1A0B44183300229A70FA793449134666
:104690009B001344DB009B1A0B4418330022DA7092
:1046A000FA792F4913469B001344DB009B1A0B44F5
:1046B000183300221A7200225A72FA7928491346D6
:1046C0009B001344DB009B1A0B44183300229A71A1
:1046D0000022DA71FA79224913469B001344DB0069
:1046E0009B1A0B44183300225A71FA791C4913465D
:1046F0009B001344DB009B1A0B4420330022DA702A
:10470000FA79174913469B001344DB009B1A0B44AC
:10471000203300221A71FA79114913469B00134481
:10472000DB009B1A0B44203301225A71FA790C49A1
:1047300013469B001344DB009B1A0B4420330022DA
:104740009A71FA79064913469B001344DB009B1AC1
:104750000B4400225A710C37BD465DF8047B70474C
:10476000DC42002080B582B000AF78600B46FB7061
:104770007B681B78022B21D1FA78174913469B00DE
:104780001344DB009B1A0B441B78002B11D0FA78E2
:1047900013469B001344DB009B1A0F4A1344053356
:1047A000786819460AF080F80346002B01D00123EF
:1047B00000E0002303F00103DBB209E07B681B7813
:1047C0009BB20D203B211A4604230FF0B5FC0023B9
:1047D00018460837BD4680BDDC42002090B589B040
:1047E00002AF2D480021122216F07AFB2A4B00223C
:1047F0005A702A482A492B4A2B4B02F065F83B1D78
:1048000018460021112216F06BFB06233B71022093
:1048100008F020FF0346184600F0EAFB03461C465A
:10482000022008F017FF0346184600F003FC034679
:1048300000933B1D0193204602210022012300F03A
:1048400009FEFF200A2110F099FD03461A46124B7B
:10485000DA71114B47F230521A810F4BDC790E4B53
:104860001A890D4B1B891046194609F00BFE0346A9
:104870001A460E4B0093204611460022002310F0EA
:10488000E1FDFF200A2110F079FD03461A46024B94
:104890009A721C37BD4690BD98510020154A2000E1
:1048A000254A2000354A2000454A2000F94A2000C8
:1048B00080B582B000AF78600B46FB70786807F077
:1048C00055FD034683F00103DBB2002B00D06EE000
:1048D000FB78012B02D0022B07D068E0354BDB7848
:1048E0000133DAB2334BDA7006E0324B5B790133D5
:1048F000DAB2304B5A7100BF2E4BDB78402B25D1FA
:104900002C4B00221A732B4B00229A73294B1A79D5
:10491000284B1A74274B1B79302B06D9254B0122C3
:104920001A7325480A210FF0C3FA224B1B790F2B6B
:1049300006D8204B01229A7320480A210FF0B8FABA
:104940001C4B0022DA701B4B00221A71786801F0B0
:10495000ABF90346002B00D129E0164B5B79402BC5
:1049600025D1144B00225A73124B0022DA73114BDB
:104970009A79104B5A740F4B9B79302B06D90D4BFB
:1049800001225A730C480A210FF092FA094B9B79C5
:104990000F2B06D8074B0122DA7308480A210FF0C3
:1049A00087FA044B00225A71024B00229A71083791
:1049B000BD4680BD98510020854B2000354C20001D
:1049C00080B582B000AF78600B46FB70786807F066
:1049D000CDFC034683F00103DBB2002B00D013E0D3
:1049E000FB78012B02D0022B07D00DE0084B1B797E
:1049F0000133DAB2064B1A7106E0054B9B7901339D
:104A0000DAB2034B9A7100BF0837BD4680BD00BFC4
:104A10009851002080B400AF00231846BD465DF8D1
:104A2000047B704780B400AF00231846BD465DF894
:104A3000047B704780B400AF00231846BD465DF884
:104A4000047B704780B586B002AF03463960FB71C6
:104A5000FB79032B02D0FB79092B1ED11A4B0122C3
:104A6000DA7209F0D5FC0346184AA2FB0312520B76
:104A700047F2305101FB02F29B1A9BB203F5EA4365
:104A80003033FB81104B997AFA89114B0093084619
:104A900011460022012310F0D5FCFB79062B02D031
:104AA000FB79072B03D10B480A210FF001FAFB79A0
:104AB000082B02D13868FFF7DDFA3868FFF7DEF817
:104AC0001037BD4680BD00BF9851002073B2E74546
:104AD000D94A20003D4B200080B483B000AF03468C
:104AE000FB71044B0022DA720C37BD465DF8047B83
:104AF000704700BF9851002080B584B000AF0346D6
:104B0000FB710A4B1A89094B1B891046194609F09B
:104B1000B9FC0346FB60054BDB791846F96810F0D9
:104B2000E7FE00F005F81037BD4680BD9851002023
:104B300080B500AF00F0CEF980BD00BF80B58CB06D
:104B400006AF3B1D184607F0EBFB0346FB75FB7DEC
:104B500083F00103DBB2002B10D13A1D0023009338
:104B60000023019300230293002303930023049363
:104B7000072011460122012301F0C0FE1837BD466F
:104B800080BD00BF90B593B006AFFEF7FDFA0346B7
:104B900083F00103DBB2002B00D045E0244BDB7A2D
:104BA000002B00D040E007F11C03184607F0B8FBCB
:104BB000034687F82E3097F82E3083F00103DBB2DE
:104BC000002B00D030E01A4B1B7B002B03D00123BD
:104BD00087F82F3008E0164B5B7B002B03D00223B5
:104BE00087F82F3000E01FE03B461846012100F017
:104BF0009DF8034683F00103DBB2002B00D013E0E5
:104C000007F11C0297F82F403B46009300230193C5
:104C100000230293002303930023049301201146F1
:104C20000122234601F06AFE3437BD4690BD00BF25
:104C30009851002090B593B006AFFEF7A5FA034651
:104C400083F00103DBB2002B00D059E02E4BDB7A5E
:104C5000002B00D054E007F11C03184607F060FB5E
:104C6000034687F82E3097F82E3083F00103DBB22D
:104C7000002B00D044E0244B9B7B002B0AD007F193
:104C80001C03184601F010F80346012B02D81E4BF6
:104C900000229A731C4B9B7B002B03D0012387F8C7
:104CA0002F3008E0184BDB7B002B03D0022387F862
:104CB0002F3000E024E0394607F11C0297F82F302E
:104CC00008461146012200F08BF8034683F00103E9
:104CD000DBB2002B00D013E007F11C0297F82F4045
:104CE000002300933B460193002302930023039388
:104CF00000230493022011460122234601F0FEFD09
:104D00003437BD4690BD00BF9851002080B483B0B9
:104D100000AF0346FB71044AFB7953700C37BD4664
:104D20005DF8047B704700BF9851002090B585B0B6
:104D300000AF78600B46FB7078680021192216F0EE
:104D4000CFF80023BB730023FB7338E009F060FB4E
:104D500003461C4601F0E4FA0346B4FBF3F203FBFE
:104D600002F3E31ABB81BB89184600F0F9FE034643
:104D7000002B21D0BA7B13469B0013447A6813445E
:104D8000BA89A3F80120BA7B13469B0013447A68C2
:104D9000D41809F03DFB034603F00F039BB2A4F8BF
:104DA0000330BA7B13469B0013447A6813440122F4
:104DB0001A70BB7B0133BB73FB7B0133FB73FB7B43
:104DC000042BC3D9BA7BFB789A4202D3FB78002B21
:104DD00001D1002300E0012318461437BD4690BDE1
:104DE00090B58DB000AFF860B96011461A460B4619
:104DF000FB711346BB71F8680021192216F070F898
:104E0000002387F82E30002387F82F304DE097F8E5
:104E10002F309AB207F114031046194600F0CAFA6F
:104E200007F11403B868194609F03EFD0346002B4C
:104E300036D097F82530BA799A4231D197F82B308D
:104E400083F00103DBB2002B2AD097F82E20134603
:104E50009B001344FA68134497F82F2092B2A3F8EA
:104E6000012097F82E2013469B001344FA68134440
:104E700097F82A2092B2A3F8032097F82E20134621
:104E80009B001344FA68134401221A7097F82E30DD
:104E9000013387F82E3097F82E30052B00D10CE027
:104EA00097F82F30013387F82F3097F82F309CB2C6
:104EB00001F036FA03469C42A9D397F82E20FB79DD
:104EC0009A4201D2002300E0012318463437BD4640
:104ED00090BD00BF80B59EB006AFFEF755F9034602
:104EE00083F00103DBB2002B00D07CE007F14C0320
:104EF000184607F015FA034687F85F3097F85F30D9
:104F000083F00103DBB2002B00D06CE007F14C0210
:104F100007F138031046194601F024F90346002B27
:104F200012D007F1380200230093002301930023DD
:104F300002930023039300230493072011460122C8
:104F4000012301F0DBFC4EE007F14C03184600F0B2
:104F5000ABFE0346002B05D1244B01221A73FFF749
:104F600011FE40E0214BDB7A002B00D03BE007F143
:104F70004C03184600F028FF034683F00103DBB220
:104F8000002B00D02FE03B4618460021192215F0D7
:104F9000A7FF07F14C023B461046194600F04EFFB2
:104FA0000346002B1FD007F11C0318460121FFF711
:104FB000BDFE034683F00103DBB2002B00D012E0FC
:104FC00007F14C0207F11C0300933B4601930023B9
:104FD000029300230393002304930320114601222C
:104FE000012301F08BFC6037BD4680BD9851002045
:104FF00080B485B000AF78607B68DB799BB21B0220
:105000009AB27B681B7A9BB21344FB81FB89084AE6
:10501000A2FB03125209642101FB02F29B1A9BB20C
:1050200001339BB218461437BD465DF8047B7047C8
:105030001F85EB5180B485B000AF78607B68DB7969
:105040009BB21B029AB27B681B7A9BB21344FB8112
:10505000FB89DBB203F00F03DBB218461437BD4601
:105060005DF8047B704700BF80B483B000AF034697
:10507000FB71044AFB7913700C37BD465DF8047B65
:10508000704700BF9851002080B400AF034B1B78DD
:105090001846BD465DF8047B704700BF985100205C
:1050A00080B483B000AF0346FB71FB79012B02D0C3
:1050B000022B03D005E0064B1B7C03E0044B5B7C1A
:1050C00000E0002318460C37BD465DF8047B7047AE
:1050D0009851002080B582B000AF2148002140F6F1
:1050E000EC0215F0FDFE0023BB7124E0BB796C22BD
:1050F00002FB03F31A4A1344184601F0EFFA0023A7
:10510000FB7112E0B979FA791346DB0013449B0076
:105110006C2202FB01F213442033114A1344184657
:1051200001F016FBFB790133FB71FB79012BE9D907
:10513000BB790133BB71BB79142BD7D9084B012242
:1051400083F8E628064B1522A3F8E22808F048FA6F
:105150000346002B01D000F005F80837BD4680BD9E
:10516000AC51002080B588B002AF0023BB82174B42
:10517000B3F8E038002B02D1652000F0DDF8002004
:1051800000F0F4F8012000F003F93B461846002136
:10519000112215F0A5FE06233B70BB8AFB820DE0B1
:1051A000FA8A002300933B46019310460321012213
:1051B000002300F04FF9FB8A0133FB82FA8ABB8A95
:1051C00001339A42ECDB1837BD4680BDAC5100205C
:1051D000B0B588B000AF4B4B93F8E8380133494A7B
:1051E000B2F8E22893FBF2F102FB01F29B1ADAB269
:1051F000444B83F8E828434B93F8E8383B70414B25
:1052000093F8E83819463F4A6C2303FB01F3134433
:105210001B88A7F801303B4B93F8E8381946394A08
:105220006C2303FB01F313449B78FB70354B93F81D
:10523000E8381946334A6C2303FB01F31344DB7847
:105240003B71304B93F8E83819462E4A6C2303FB28
:1052500001F313445B797B712A4B93F8E8381A46C3
:105260006C2303FB02F3274A13449A1DBB1D1568E8
:1052700054689068D1681D605C609860D960127C49
:105280001A74204B93F8E83819461E4A6C2303FB26
:1052900001F313441033DB79FB751A4B93F8E838AC
:1052A0001946184A6C2303FB01F3134418331B7887
:1052B0003B76144B93F8E8381946124A6C2303FBEB
:1052C00001F3134418335B787B760E4B93F8E83880
:1052D0001A466C2303FB02F318330A4A13449A1C40
:1052E00007F11A031168196012791A713B460620FA
:1052F00019461F220EF0A6FE012318462037BD4690
:10530000B0BD00BFAC51002080B582B000AF094BEA
:1053100093F8E6383B71074B93F8E7387B713B1DF8
:105320000720194602220EF08DFE01231846083789
:10533000BD4680BDAC51002080B582B000AF0346B1
:10534000FB8014F08DF8084AFB88A2F8E038FB884F
:10535000152B03D8044AFB88A2F8E23814F074F83D
:105360000837BD4680BD00BFAC51002080B582B07B
:1053700000AF0346FB7114F073F8044AFB7982F81E
:10538000E43814F061F80837BD4680BDAC51002008
:1053900080B582B000AF0346FB7114F061F8044A97
:1053A000FB7982F8E53814F04FF80837BD4680BD28
:1053B000AC51002080B584B000AF03463960FB805B
:1053C000234BFB6023E0FB681B88FA889A421BD1C1
:1053D000FB689A783B685A74FB68DA783B689A7481
:1053E0003B68FA889A82FB685A793B689A75FB6831
:1053F0001A793B68DA753A68FB6806331046194635
:10540000112215F0F7FC20E0FB686C33FB60104BB9
:10541000B3F8E238013B6C2202FB03F30C4A1A4456
:10542000FB689A42CFD23B6800225A743B68002244
:105430009A743B6800229A753B680022DA753B68D3
:1054400018460021112215F04BFD1037BD4680BDD6
:10545000AC51002090B58BB000AF04460846114611
:105460001A462346FB8003467B710B463B7113466D
:10547000FB7013F0F5FF0023BB7600237B768D4B8A
:105480007B627B6A9B78002B2ED07B6A1B88FA8814
:105490009A4225D10023FB7619E0FA7E796A1346F9
:1054A000DB0013449B000B4420331B78002B0BD1F3
:1054B00001237B76FA7E1346DB0013449B002033E6
:1054C0007A6A1344FB6105E0FB7E0133FB76FB7EC9
:1054D000012BE2D97B7E002B02D00123BB7612E0A8
:1054E0007B6A6C337B6202E00123BB760BE0714B7D
:1054F000B3F8E238013B6C2202FB03F36D4A1A4415
:105500007B6A9A42BDD2BB7E83F00103DBB2002BE3
:1055100009D013F099FF0E201B21002200230EF06A
:10552000EBFD012366E17B7E002B00F0C5800023AC
:105530003B767B6A1B79002B0CD0FB78002B0ED0BE
:105540007B6A9B78022B0AD17B79012B07D101233F
:105550003B7604E0FB78002B01D001233B763B7EB9
:10556000002B6DD07B6A9A78FB691A707B6ADA78B7
:10557000FB695A707B6A5A79FB69DA707B6A1A791F
:10558000FB699A70FB691A1D7B6A0633104619463F
:10559000112215F02FFC7B6ADA7DFB695A757B6A54
:1055A0001A7EFB699A757B6A5A7EFB69DA757B6A9B
:1055B0009A7EFB691A767B6AB3F81D309AB2FB6952
:1055C000A3F81B207B6AB3F81D309AB2FB69A3F8DD
:1055D0001B207B6A9A6EFB691A627B6A7A799A70E1
:1055E0007B6A3A79DA707B6A97F838205A717B6A5D
:1055F000FA781A717B6A06331846F96B112215F096
:10560000F9FB07F10C031846FCF7F4FE7B7B9BB219
:105610001B029AB23B7B9BB213449AB27B6AA3F8FB
:105620001D20FB7B9BB21B029AB2BB7B9BB2134437
:105630009AB27B6AA3F81B203A7C7B6A9A7635E0A3
:10564000FB697A791A70FB693A795A70FB6997F8A5
:105650003820DA70FB69FA789A70FB6904331846CF
:10566000F96B112215F0C6FB07F10C031846FCF785
:10567000C1FE7B7B9BB21B029AB23B7B9BB2134465
:105680009AB2FB69A3F81B20FB7B9BB21B029AB268
:10569000BB7B9BB213449AB2FB69A3F819203A7CF6
:1056A000FB691A767B6A9A6EFB691A6213F0CCFE6C
:1056B00000239FE0AC5100207B6AFA881A807B6A45
:1056C0007A799A707B6A3A79DA707B6A97F838202F
:1056D0005A717B6AFA781A717B6A06331846F96B3D
:1056E000112215F087FB07F10C031846FCF782FE28
:1056F0007B7B9BB21B029AB23B7B9BB213449AB258
:105700007B6AA3F81D20FB7B9BB21B029AB2BB7B7A
:105710009BB213449AB27B6AA3F81B203A7C7B6A43
:105720009A76364BD3F8DC38002B07D17B6A7A6A3D
:105730009A66324A7B6AC2F8DC3858E02F4BD3F8BD
:10574000DC383B623B6A9B6E7B613B6A1A887B6AF2
:105750001B889A4205D27B6A1A887B691B889A4209
:105760003FD33B6A1A887B6A1B889A4205D27B69C1
:105770001A883B6A1B889A4233D97B6A1A887B69EC
:105780001B889A4205D27B691A883B6A1B889A4219
:1057900027D93B6A1A887B6A1B889A421ED17B6A8A
:1057A0001B880E2045211A4600230EF0A5FC7B6ABB
:1057B00000221A807B6A00229A707B6A0022DA70CB
:1057C0007B6A00225A717B6A063318460021112237
:1057D00015F086FB13F038FE01230BE07B693B627A
:1057E000B0E73B6A7A6A9A667B6A7A699A6613F0CE
:1057F0002BFE002318462C37BD4690BDAC5100202F
:1058000080B588B000AF3B600346FB800B467B71E0
:1058100013463B7113F024FE0023BB7700237B77F4
:10582000B94B3B6156E03B691B88FA889A424ED1DE
:105830003B6906333868194609F036F80346002BF1
:1058400002D00123BB7751E00023FB7736E0FA7FDB
:105850001346DB0013449B0020333A69134404339E
:105860003868194609F020F80346002B23D0FA7F48
:1058700039691346DB0013449B000B4420331B782B
:105880007A799A4217D1FA7F39691346DB001344BB
:105890009B000B4420335B783A799A420BD1012369
:1058A0007B77FA7F1346DB0013449B0020333A6971
:1058B0001344BB6105E0FB7F0133FB77FB7F012BCA
:1058C000C5D97B7F002B02D00123BB770EE03B695B
:1058D0006C333B618C4BB3F8E238013B6C2202FB2A
:1058E00003F3894A1A443B699A429CD2BB7F83F0F6
:1058F0000103DBB2002B09D013F0A6FD0E203821E6
:10590000002200230EF018FC012322E17B7F002BF4
:1059100026D0BB6900221A70BB6900225A70BB698D
:105920000022DA70BB6900221A71BB690533184680
:105930000021082215F0D4FABB690022DA76002291
:105940001A77BB6900225A7600229A76BB69002238
:105950001A76BB6900221A6213F076FD0023F8E084
:105960000223FB750023FB7726E0FA7F3969134693
:10597000DB0013449B000B4420331B78002B18D012
:10598000FB7FFB75FA7F39691346DB0013449B00EC
:105990000B4420339B78002B0BD0FA7F39691346D8
:1059A000DB0013449B000B4420331B78012B00D1F8
:1059B00005E0FB7F0133FB77FB7F012BD5D9FB7D16
:1059C000012B00F29380FA7D39691346DB00134402
:1059D0009B000B4420331A783B699A70FA7D396931
:1059E0001346DB0013449B000B4420335A783B6979
:1059F000DA70FA7D39691346DB0013449B000B44CF
:105A00002033DA783B695A71FA7D39691346DB0035
:105A100013449B000B4420339A783B691A713B690D
:105A2000991DFA7D1346DB0013449B0020333A692D
:105A30001344043308461946112215F0DBF9FA7DA8
:105A400039691346DB0013449B000B4430339A79C9
:105A50003B691A76FA7D39691346DB0013449B00D3
:105A60000B4430335A793B69DA75FA7D396913464C
:105A7000DB0013449B000B443033DA793B695A76E0
:105A8000FA7D39691346DB0013449B000B4438331D
:105A9000B3F803309AB23B69A3F81D20FA7D396947
:105AA0001346DB0013449B000B443833B3F801303A
:105AB0009AB23B69A3F81B20FA7D39691346DB00D3
:105AC00013449B000B4438331A783B699A76FA7D6D
:105AD0001346DB0013449B0020333A6913441846F5
