:020000040020DA
:100000008C4F0020ED6B2100D16B2100DD6B2100B6
:10001000E56B2100E56B2100E56B2100000000008D
:10002000000000000000000000000000E56B21005F
:10003000E56B210000000000E56B2100E56B21006D
:10004000E56B2100E56B2100E56B2100E56B2100EC
:1000500000000000E56B2100E56B2100E56B21004D
:10006000E56B21000000000000000000000000001F
:100070000000000000000000E56B2100000000000F
:100080000000000000000000E56B2100E56B21008E
:10009000E56B2100E56B2100E56B2100E56B21009C
:1000A000E56B2100E56B2100E56B2100E56B21008C
:1000B000E56B2100E56B2100E56B2100E56B21007C
:1000C000E56B2100E56B2100E56B2100E56B21006C
:1000D000E56B2100000000000000000000000000AF
:1000E0000000000000000000000000000000000010
:1000F000E56B210000000000E56B2100E56B2100AD
:1001000000000000000000000000000000000000EF
:1001100000000000000000000000000000000000DF
:1001200000000000000000000000000000000000CF
:1001300000000000000000000000000000000000BF
:1001400000000000000000000000000000000000AF
:10015000000000000000000000000000000000009F
:10016000000000000000000000000000000000008F
:10017000000000000000000000000000000000007F
:10018000000000000000000000000000000000006F
:10019000000000000000000000000000000000005F
:1001A000000000000000000000000000000000004F
:1001B000000000000000000000000000000000003F
:1001C000000000000000000000000000000000002F
:1001D000000000000000000000000000000000001F
:1001E000000000000000000000000000000000000F
:1001F00000000000000000000000000000000000FF
:1002000000000000000000000000000000000000EE
:1002100000000000000000000000000000000000DE
:1002200000000000000000000000000000000000CE
:1002300000000000000000000000000000000000BE
:1002400000000000000000000000000000000000AE
:10025000000000000000000000000000000000009E
:10026000000000000000000000000000000000008E
:10027000E56B2100E56B2100E56B2100E56B2100BA
:10028000E56B2100E56B2100E56B210080B500AF37
:1002900015F0A8F913F076F900F006F813F084F9D8
:1002A0000023184680BD00BF80B500AF14F002FCEB
:1002B00013F004FA0CF004FE0DF07CF80DF072FE61
:1002C00000F020F804F022FF05F0F6FF03F03AF802
:1002D00004F0ACFA0AF052F808F0A8FA0AF02CF987
:1002E0000BF0D8F80BF04AF90BF0A8FA0CF06EFB03
:1002F0000FF082F8012034210022002313F08AFA43
:1003000080BD00BFB0B582B002AF344800214FF4C9
:10031000DA721AF083F93248002110221AF07EF9BD
:100320002E4B002283F882212C4B012283F8A1213D
:100330002A4B002283F8A221284B4FF4A472A3F881
:10034000A621264B0122C3F86021244B254A03F540
:10035000C27413460FCB84E80F000CF001FE034675
:10036000002B03D0012002F0C9FC02E0002002F0C3
:10037000C5FC02F021FD1C4B00229A7116F074F9A5
:100380001A4816F0E1F81A4816F0ECF8012000219E
:1003900014F0A0FB03461A46104B83F8A8210F4B1C
:1003A00093F8A8410D4BB3F8A6311D4616F0AEFBED
:1003B0000246104B009320462946012314F01CFDF1
:1003C00002F0C8FE0020002114F084FB03461A4608
:1003D000024B83F8B021BD46B0BD00BFA04F002046
:1003E000645100208CA72100545100202D082000CA
:1003F000010920006106200080B584B000AF78605C
:1004000018F0CCFB264B1A787B681B789A4204D0F4
:1004100018F0B8FB4FF0FF333EE00023FB60204BA9
:10042000B3F801309AB27B68B3F801309BB29A42BC
:100430000CD118F0A7FB1A4BB3F803309BB21A4645
:100440007B68B3F803309BB2D31A25E0144BB3F8A2
:1004500001309BB21A467B68B3F801309BB2D31AC5
:10046000012B13D10E4BB3F803309BB2FB607B68BA
:10047000B3F803309BB21A46FB689B1A03F57F431F
:10048000FF33FB60FB680133FB6002E04FF0FF339A
:10049000FB6018F077FBFB6818461037BD4680BD3F
:1004A000A04F002080B485B000AF786039607B68D1
:1004B0001A783B681B789A4202D04FF6FF733BE0F4
:1004C0000023FB817B68B3F801309AB23B68B3F834
:1004D00001309BB29A420BD17B68B3F803309AB2D9
:1004E0003B68B3F803309BB2D31A9BB29BB223E0B4
:1004F0007B68B3F801309BB21A463B68B3F8013011
:100500009BB2D31A012B13D17B68B3F803309BB293
:10051000FB81FA893B68B3F803309BB2D31A9BB2D4
:10052000013B9BB2FB81FB8901339BB2FB8102E063
:100530004FF6FF73FB81FB891BB218461437BD468B
:100540005DF8047B704700BF80B586B000AF0346FE
:100550003960FB800023FB750023BB7500237B758E
:1005600000237B8200233B8207F108031846002109
:1005700005221AF053F802F0E9FA03461A4640F24F
:10058000311303FB02F31F4A82FB03121213DB1722
:10059000D31A7B75FA887B7D92FBF3F33B823B8A0F
:1005A000DBB23B723B8A1B0A9BB2DBB27B723868C0
:1005B00001F06CFF0023FB751EE0FB7D3A681344DD
:1005C0001B789AB2FB7D07F118010B4413F8103C1D
:1005D0009BB213449AB2BB7D9BB213447B82FB7DDA
:1005E0003A6813447A8AD2B21A707B8A1B0A9BB289
:1005F000BB75FB7D0133FB75FB7D042BDDD9183703
:10060000BD4680BDAD8BDB6880B483B000AF786041
:1006100039607B681B789AB27B6801331B789BB288
:100620001B029BB213449AB23B68A3F803207B6879
:1006300002331B789AB27B6803331B789BB21B0290
:100640009BB213449AB23B68A3F801207B681A79E5
:100650003B681A700C37BD465DF8047B704700BFDD
:1006600080B584B002AF0346FB7114F04DFD024625
:100670001D4BC3F8AC211C4B93F8A8111A4BD3F8AF
:10068000AC211A4B009308464FF4A471012314F0D7
:10069000B3FB154B4FF4A472A3F8A621124B1B7C9D
:1006A00083F00103DBB2002B13D00CF059FC03469E
:1006B000002B0BD0012002F021FB01F0CBFE05F056
:1006C000FFFB03461A46084B1A8104E000F0C4F908
:1006D00001E000F03FFC064B1B680133044A136045
:1006E0000837BD4680BD00BFA04F00206106200036
:1006F0006451002080B582B000AF0346FB71444BCB
:1007000093F86431023B162B6CD801A252F823F007
:10071000FF072000E50720006D0720007307200079
:10072000790720007F072000850720008B07200025
:1007300091072000970720009D072000A3072000B5
:10074000E5072000A9072000AF072000B50720001B
:10075000BB072000C1072000C7072000CD072000ED
:10076000D3072000D9072000DF07200000F002FE99
:1007700046E000F055FE43E000F064FE40E000F08B
:100780007FFE3DE000F0C4FE3AE000F03DFF37E0C0
:1007900000F06CFF34E000F07BFF31E000F096FFEA
:1007A0002EE000F0F5FF2BE001F03EF928E001F02B
:1007B0006DF925E001F07CF922E001F097F91FE0E6
:1007C00001F0D4F91CE001F0BDFB19E001F094FC4C
:1007D00016E001F0A3FC13E001F0BEFC10E001F014
:1007E00003FD0DE00A4B93F864319AB2084BDB88A5
:1007F00009201E2113F04CF802F0B0FB00E000BF0E
:10080000044B5B680133034A53600837BD4680BD23
:10081000A04F00206451002080B582B000AF034695
:10082000FB7113F0DFFA0837BD4680BD80B584B098
:1008300000AF7860304BD3F8AC317A68D31AFB60E4
:100840002D4B1B7C83F00103DBB2002B03D0F86837
:1008500000F0C0F947E0284B93F86431073B102BB8
:1008600034D801A252F823F0AD082000CD082000B2
:10087000CD082000CD082000B5082000B5082000D4
:10088000CD082000CD082000CD082000CD08200094
:10089000BD082000BD082000CD082000CD082000A4
:1008A000CD082000CD082000C5082000F86800F021
:1008B000F9FD18E0F86800F035FF14E0F86801F081
:1008C0001BF910E0F86801F059FC0CE00A4B93F8B2
:1008D00064319AB2084BDB8809201F2112F0B8FF5F
:1008E00002F03CFB00BF054B9B680133034A936059
:1008F0001037BD4680BD00BFA04F002064510020CE
:1009000080B584B000AF7860304BD3F8AC317A68F2
:10091000D31AFB602D4B1B7C83F00103DBB2002B51
:1009200003D0F86800F072F947E0284B93F864317F
:10093000083B102B34D801A252F823F08109200083
:10094000A1092000A1092000A1092000A10920007F
:1009500089092000A1092000A1092000A109200087
:10096000A1092000A109200091092000A10920006F
:10097000A1092000A1092000A10920009909200057
:10098000F86800F0D7FD18E0F86800F013FF14E0F5
:10099000F86801F0FDF810E0F86801F037FC0CE0B1
:1009A0000A4B93F864319AB2084BDB880920202166
:1009B00012F04EFF02F0D2FA00BF054BDB680133A4
:1009C000034AD3601037BD4680BD00BFA04F002052
:1009D0006451002080B582B000AF0D4B1B783B7096
:1009E0000B4BB3F801309BB2A7F80130084BB3F8BA
:1009F00003309BB2A7F803303B460420194605227A
:100A000012F0CCFE012318460837BD4680BD00BF5A
:100A1000A04F002080B582B000AF0023FB71074BD0
:100A20001B7CFB71FB1D00201946012212F0B6FE53
:100A3000012318460837BD4680BD00BFA04F0020E7
:100A400080B500AF052003490F2212F0A7FE012355
:100A5000184680BD5451002090B583B002AF594B69
:100A600093F86431022B00D1A8E016F04FF802464B
:100A7000544BC3F89821534B012283F8A021514BCA
:100A800093F86431012B1BD0012002F013FA15F00A
:100A9000F1FD0DF0A9FA0346DBB203F00F03DBB260
:100AA0000B33DAB2474B83F88021464B93F8803101
:100AB000184615F08BFD15F065FE15F073FE3BE052
:100AC000414BD3F807303F4AB2F8A62113443E4ABF
:100AD000C2F807303C4BD3F80B303A4AB2F8A621A3
:100AE0001344394AC2F80B30364BB3F803309AB28C
:100AF000364BA3FB0213D9090B469B000B445B0149
:100B0000D31A9BB2002B13D115F0B4FD0DF06CFA83
:100B10000346DBB203F00F03DBB20B33DAB2294B2F
:100B200083F88021274B93F88031184615F04EFD4D
:100B300015F028FE15F036FE224B93F86431012B98
:100B40001FD1204B93F88331002B1AD015F092FD62
:100B50001C4B93F88231184602F082F903461A467C
:100B6000184B83F88021174B93F88031184615F005
:100B70002DFD15F007FE15F015FE124B002283F82F
:100B80008321104BB3F803309BB201339AB20D4B63
:100B9000A3F803200B4B93F8B0110A4BB3F8A6311E
:100BA000203B1C46074BD3F8AC21094B0093084669
:100BB0002146012314F020F913F022F90437BD4631
:100BC00090BD00BFA04F002054510020CDCCCCCC14
:100BD0001908200080B582B000AF78600A4B93F806
:100BE0006431012B00D00CE013F0FCF8022002F07D
:100BF00061F9054A7B68C2F87831034A7B68C2F81C
:100C00007C310837BD4680BDA04F0020B0B596B0FE
:100C100002AF7860AA4B93F86431022B0AD0A84B3C
:100C200093F864319BB209201C211A46002312F06C
:100C30000FFE42E1032002F03DF909200CF00EFC0A
:100C400002469F4BC3F86C219D4BD3F86C31002BAF
:100C500006D109202B210022002312F0F9FD2CE1FE
:100C6000974BD3F86C3109221A70954BD3F86C313D
:100C700009225A70924BD3F86C31914AD2F86C2108
:100C8000C9325A608E4BD3F86C3158688C4BD3F80C
:100C90006C3103F108018A4BD3F86C3103F1C504C0
:100CA000874BD3F86C3103F1C602854BD3F86C3116
:100CB000C733009201938222234615F08DFD804BAD
:100CC000D3F86C311B7A012B05D97D4BD3F86C31ED
:100CD0001B7A802B0AD97A4BD3F86C311B7A9BB2E2
:100CE00009203621002212F0B3FDD9E0744BD3F86D
:100CF0006C31184602210DF027FD714BD3F86C3191
:100D000093F8C73083F00103DBB2002B00D0C7E0BB
:100D10006B4BD3F86C2107F11003104619460EF007
:100D2000F5F83B7C83F00103DBB2002B00D0B7E089
:100D3000634BD3F86C31BA7C83F85320604BD3F803
:100D40006C317A7E83F854205D4BD3F86C3142339A
:100D50001A4607F13D031D685C689868D9681560FC
:100D600054609060D1601B7C1374554BD3F86C2198
:100D700007F110031046194602F0D8FA034683F033
:100D80000103DBB2002B00D08AE04D4BD3F86C316D
:100D900093F8A930002B19D0494B1B7C83F0010339
:100DA000DBB2002B7CD0BB7C002B79D1444BD3F839
:100DB0006C2107F110031046194601F0C3FB0346EE
:100DC00083F00103DBB2002B00D069E03C4BD3F889
:100DD0006C217B7C104619460DF072FC0023FB81D0
:100DE0003B7C002B21D0FB7D002B1ED0BB7C002B3D
:100DF0001BD104200CF0EEF8024607F110030B3370
:100E0000184611460DF03CFB0346002B0DD02C4B31
:100E1000D3F86C2107F10E031046194600F052F882
:100E20000346002B01D0012300E00023002B00D15A
:100E300036E015F01FFC15F069FE0246204BD3F892
:100E40009831D31A1E4AD2F89C2113441C4AC2F886
:100E50009C311B4BD3F86C21FB89DBB21046194641
:100E60000DF02EFC164BD3F87C31184601F09AFE9B
:100E7000012001F043FF124BDB8809201A211A469A
:100E8000002312F0C7FC0E4BD3F86C31184601F06A
:100E900075FF0B4B0022C3F86C2102F05FF80CE0E9
:100EA000074BD3F86C3118460CF036FB044B00228C
:100EB000C3F86C21012001F0FDFF5037BD46B0BDE5
:100EC000A04F002080B584B000AF786039607868AA
:100ED000396801F08FFB0346002B2DD001F07CFD1B
:100EE0001B4BDB88184604F0C3FF04F0E9FF034600
:100EF0001A46174B1A810023FB730EE0144B93F82C
:100F000080310B3BFA7B12490A4492F884219342C8
:100F100000D105E0FB7B0133FB73FB7B0F2BEDD98D
:100F200005F032F803461A46FB7B9B1ADAB2084BEF
:100F300083F88121012306E009203F2103220023B9
:100F400012F086FC002318461037BD4680BD00BF56
:100F5000A04F002080B590B002AF002387F8363054
:100F600001F020FA14F090FEC74BDB88002B01D172
:100F700014F06CFE0BF0F4FF034683F00103DBB2C8
:100F8000002B27D0C04BDA68BF4BD3F860319A42B0
:100F900008D9BD4BDA68BC4BD3F86031D31ABA4AD2
:100FA000D36017E0B84B0122C3F86021002001F0A4
:100FB000A5FEB54BDB88092019211A46002312F043
:100FC00047FCB24B9B790133DAB2B04B9A7101F016
:100FD000C5FFC7E1AC4B93F86431002B0CD0AA4B92
:100FE00093F864319AB2A84BDB8809201D2112F0D6
:100FF0002FFC01F0B3FFB5E1A34B0122C3F8602140
:10100000A14BDA88A04B1B899A4240F0838004F000
:1010100047FF04F0B9FF0346184601F021FF0346DD
:101020001A46994B83F8802104F04AFF03461A467A
:10103000954B1A810BF0BCFF0346002B59D00BF0E7
:101040008FFF034683F00103DBB2002B51D08E4BA0
:101050001A898D4BDB889A420AD98B4B1B891A4619
:10106000894BDB88D31A1A46874BC3F860210DE001
:1010700004F03AFF03461A46834B1B891344824A05
:10108000D2889B1A1A46804BC3F860217E4B93F896
:10109000A8017D4BD3F860314FF4A47202FB03F139
:1010A000794BD3F8AC217A4B0093012313F0A4FEC3
:1010B000754BD3F860319BB21A4692001A44D200A5
:1010C0001344DB009AB2704BA3F8A621002387F8E3
:1010D000373006E001F066F997F83730013387F8CA
:1010E000373097F83720684BD3F86031013B9A428C
:1010F000F0D304F0E5FE03461A46634B1A8104F070
:1011000005FF034687F8353097F83530022B00F09D
:10111000098102E001F022FF24E1032B02D0012B20
:1011200040F01481584B0022C3F8682107F12403D2
:10113000184604F013FF04F03BFF0346002B00F0B9
:10114000978007F1240318460DF07EF8034683F0DC
:101150000103DBB2002B3BD004F0ECFE0346002B76
:1011600009D007F1240318460CF078FE0246464BDE
:10117000C3F868217CE007F1240318460CF0FAFD5F
:101180000246414BC3F868213F4BD3F86831002B2E
:1011900008D107F1240318460CF0E2FC02463A4B52
:1011A000C3F86821384BD3F86831002B0AD0364B8E
:1011B000D3F86831012283F8A82007F124031846E8
:1011C00003F0EEFB07F12403184603F0B1FB4FE0F8
:1011D00004F0B0FE0346002B14D00CF00BFD0246C9
:1011E000294BC3F86821284BD3F86831002B3FD135
:1011F000012387F836300CF06FFC0246224BC3F80F
:10120000682135E003F076FF0346002B08D007F194
:10121000240318460CF022FE02461B4BC3F868213B
:10122000194BD3F86831002B14D107F1100318467D
:101230000021112219F0F2F907F11003184604F009
:10124000C7FC07F1100318460CF0BCFB02460E4B1E
:10125000C3F868210C4BD3F86831002B08D107F193
:10126000240318460CF018FB0246074BC3F868210C
:10127000054BD3F86831002B0CD197F83530012B92
:1012800050D101F06BFE6DE0A04F002054510020C2
:1012900061062000042001F00DFE344BD3F86831C4
:1012A00009225A7097F83630002B21D007F1080335
:1012B000184601F0EBF80AF059FD03461B0A9BB2F1
:1012C000DBB2013BDBB2FB71284BD3F86831D3F8BA
:1012D000982007F1080310461946052219F028F94D
:1012E000224BD3F86831D3F898300533FA791A7065
:1012F0001E4BD3F8683193F856200132D2B283F8EE
:1013000056201A4B93F8A801184BD3F8783103F103
:101310003401164BD3F8AC21154B0093012313F085
:101320006BFD1FE00F2001F0C5FD104B93F8A801E5
:101330000E4BD3F8783103F11E010C4BD3F8AC21DE
:101340000B4B0093012313F057FD0BE097F835305A
:101350009AB2064BDB880920172112F099FA01F0A6
:10136000FDFD00BF3837BD4680BD00BFA04F002047
:10137000F506200080B582B002AF052001F09AFD8D
:10138000244B93F8A801234BD3F8783103F13E01A5
:10139000204BD3F8AC21204B0093012313F02CFDFC
:1013A0001C4BD3F868311D4819460DF0E9F9194B6B
:1013B00093F8BD30002B08D0184801F077FF0346A2
:1013C000002B02D001F0CAFD21E0144802210DF0EB
:1013D0009DF9104B93F88031184615F0F7F80D4B36
:1013E0009A690C4B1B7F9BB21046194615F056F9B3
:1013F00015F090F915F08AFB0246064BC3F89821C8
:10140000044B012283F8A021062001F053FDBD46C4
:1014100080BD00BFA04F0020F5062000B44F002083
:1014200080B500AF064B93F864319AB2044BDB8869
:101430000920212112F00CFA01F090FD80BD00BFBF
:10144000A04F002080B582B002AF072001F032FD2E
:10145000094B93F8A801084BD3F8783103F16B01DD
:10146000054BD3F8AC21054B0093012313F0C4FCCA
:1014700015F060F9BD4680BDA04F0020F5062000A4
:1014800080B500AF064B93F864319AB2044BDB8809
:101490000920262112F0DCF901F060FD80BD00BFBB
:1014A000A04F002090B585B002AF7860082001F011
:1014B00001FD144B93F8A811124BB3F8A6311C464A
:1014C000104BD3F8AC21104B009308462146012362
:1014D00013F092FC0B4A7B68C2F87831094B93F801
:1014E000A801084BD3F8783103F1A401054BD3F8D8
:1014F000AC21064B0093012313F07EFC0C37BD4654
:1015000090BD00BFA04F002061062000F50620001E
:1015100080B500AF064B93F864319AB2044BDB8878
:101520000920252112F094F901F018FD80BD00BFBB
:10153000A04F002090B587B002AF7860092001F07D
:10154000B9FC2E4B93F8A8112C4BB3F8A6311C46CE
:101550002A4BD3F8AC212A4B00930846214601239D
:1015600013F04AFC15F086F815F0D0FA0246234B2A
:10157000D3F89831D31A214AD2F89C2113441F4A38
:10158000C2F89C311D4A7B68C2F878311B4BD3F8F6
:101590006831423318460CF057FE0346002B02D048
:1015A0000023FB7301E00123FB73FB7B002B10D0B6
:1015B000124B93F8A801114BD3F8783103F10A01CB
:1015C0000E4BD3F8AC210F4B0093012313F014FC06
:1015D00010E00A48012104F063FD084BD3F868319C
:1015E0001846002101F0AAFB044B0022C3F8682131
:1015F00001F0B4FC1437BD4690BD00BFA04F0020E1
:1016000061062000F506200080B582B002AF0A20F6
:1016100001F050FC134B93F8A801124BD3F878312A
:1016200003F114010F4BD3F8AC210F4B00930123AE
:1016300013F0E2FB0B4B93F88031184614F0C6FF11
:1016400015F0A0F815F062FA0246064BC3F898218F
:10165000044B012283F8A0210B2001F02BFCBD4696
:1016600080BD00BFA04F0020F506200080B500AF70
:10167000064B93F864319AB2044BDB88092022218F
:1016800012F0E6F801F06AFC80BD00BFA04F002018
:1016900080B582B002AF0C2001F00CFC15F082F88E
:1016A000084B93F8A801074BD3F8783103F12E01CA
:1016B000044BD3F8AC21044B0093012313F09CFBA3
:1016C000BD4680BDA04F0020F506200080B500AFCC
:1016D0001348002104F0E4FC114BD3F8683193F86F
:1016E0005520013AD2B283F855200D4BD3F868311A
:1016F00093F85530002B07D1094BD3F868311846C1
:10170000012101F01BFB04E0054BD3F868310A22EC
:101710005A70034B0022C3F8682101F01FFC80BD02
:10172000A04F002090B585B002AF78600D2001F089
:10173000C1FB144B93F8A811124BB3F8A6311C4609
:10174000104BD3F8AC21104B0093084621460123DF
:1017500013F052FB0B4A7B68C2F87831094B93F8BF
:10176000A801084BD3F8783103F16201054BD3F897
:10177000AC21064B0093012313F03EFB0C37BD4612
:1017800090BD00BFA04F002061062000F50620009C
:1017900080B500AF064B93F864319AB2044BDB88F6
:1017A0000920282112F054F801F0D8FB80BD00BFB9
:1017B000A04F0020B0B594B002AF78600E2001F0C9
:1017C00079FB974B93F8A811954BB3F8A6311C46BB
:1017D000934BD3F8AC21934B009308462146012349
:1017E00013F00AFB14F046FF15F090F902468C4BFB
:1017F000D3F89831D31A8A4AD2F89C211344884AE4
:10180000C2F89C31864A7B68C2F8783109200BF017
:1018100025FE0246824BC3F87421814BD3F8743104
:10182000002B08D109202B210022002312F010F8F0
:1018300001F094FBF0E07A4BD3F8743109221A706E
:10184000774BD3F8743109225A70754BD3F8743141
:10185000734AD2F87421C9325A60714BD3F874318B
:1018600058686F4BD3F8743103F108016C4BD3F80F
:10187000743103F1C5046A4BD3F8743103F1C60225
:10188000674BD3F87431C733009201938222234609
:1018900014F0A2FF624BD3F874311B7A012B05D9E7
:1018A0005F4BD3F874311B7A802B0AD95C4BD3F889
:1018B00074311B7A9BB209203621012211F0C8FF36
:1018C0009EE0574BD3F87431184602210CF03CFFD0
:1018D000534BD3F8743193F8C73083F00103DBB274
:1018E000002B00D08CE04E4BD3F8742107F1080395
:1018F000104619460DF00AFB3B7A83F00103DBB278
:10190000002B00D07CE0464BD3F87431BA7A83F8D0
:101910005320434BD3F874317A7C83F85420404BE6
:10192000D3F8743142331A4607F135031D685C68F9
:101930009868D968156054609060D1601B7C1374FE
:10194000374BD3F8742107F108031046194601F00C
:10195000EDFC034683F00103DBB2002B00D04FE027
:101960002F4BD3F8743193F8A930002B09D02C4BAE
:10197000D3F87431184601F0A5FC0346002B00D0C3
:101980003EE0274BD3F874217B7A104619460CF0C1
:1019900097FE234BD3F8683107F108021046194629
:1019A00000F0C6FC034683F00103DBB2002B00D03D
:1019B00026E00BF0D5FA034683F00103DBB2002BDF
:1019C0000FD0174BD3F87431423318460AF09AF906
:1019D0000346002B05D0B7F846301BB2184601F07D
:1019E00045F90F48012104F05BFB0D4BD3F868313A
:1019F0001846002101F0A2F9094B0022C3F8682122
:101A0000074BD3F8743118460BF086FD044B0022C7
:101A1000C3F8742101F0A2FA4837BD46B0BD00BF3B
:101A2000A04F00206106200080B582B002AF1020D8
:101A300001F040FA134B93F8A801124BD3F8783118
:101A400003F122010F4BD3F8AC210F4B009301237C
:101A500013F0D2F90B4B93F88031184614F0B6FD11
:101A600014F090FE15F052F80246064BC3F8982188
:101A7000044B012283F8A021112001F01BFABD467E
:101A800080BD00BFA04F0020F506200080B500AF4C
:101A9000064B93F864319AB2044BDB88092023216A
:101AA00011F0D6FE01F05AFA80BD00BFA04F002011
:101AB00080B582B002AF122001F0FCF914F072FE82
:101AC000084B93F8A801074BD3F8783103F16A016A
:101AD000044BD3F8AC21044B0093012313F08CF991
:101AE000BD4680BDA04F0020F506200080B500AFA8
:101AF00001F034FA80BD00BF90B585B002AF7860C8
:101B0000132001F0D7F9164B93F8A811144BB3F832
:101B1000A6311C46124BD3F8AC21124B0093084659
:101B20002146012313F068F90D4A7B68C2F8783129
:101B30000B4A7B68C2F87C31094B93F8A801084B2B
:101B4000D3F8783103F1A401054BD3F8AC21064B4F
:101B50000093012313F050F90C37BD4690BD00BF30
:101B6000A04F002061062000F506200080B500AFE0
:101B7000064B93F864319AB2044BDB880920252187
:101B800011F066FE01F0EAF980BD00BFA04F002011
:101B9000B0B59AB002AF78600023FB83142001F047
:101BA00089F9B74B93F8A811B54BB3F8A6311C4689
:101BB000B34BD3F8AC21B34B009308462146012325
:101BC00013F01AF914F056FD14F0A0FF0246AC4BC6
:101BD000D3F89831D31AAA4AD2F89C211344A84AC0
:101BE000C2F89C3109200BF039FC0246A44BC3F823
:101BF0006C21A34BD3F86C31002B08D109202B2189
:101C00000022002311F024FE01F0A8F995E19C4B7D
:101C1000D3F86C3109221A70994BD3F86C31092230
:101C20005A70974BD3F86C31954AD2F86C21C9326F
:101C30005A60934BD3F86C315868914BD3F86C31A0
:101C400003F108018E4BD3F86C3103F1C5048C4BC2
:101C5000D3F86C3103F1C602894BD3F86C31C7332A
:101C6000009201938222234614F0B6FD844BD3F8F0
:101C70006C311B7A012B05D9814BD3F86C311B7A5F
:101C8000802B0AD97E4BD3F86C311B7A9BB209208A
:101C90003621022211F0DCFD43E1794BD3F86C319F
:101CA000184602210CF050FD754BD3F86C3193F8B7
:101CB000C73083F00103DBB2002B00D031E1704B61
:101CC000D3F86C2107F12003104619460DF01EF9D8
:101CD00097F8203083F00103DBB2002B00D020E125
:101CE000674BD3F86C3197F8222083F85320644B6C
:101CF000D3F86C3197F8292083F85420604BD3F83F
:101D00006C3197F8272083F8A1205D4BD3F86C3114
:101D100042331A4607F14D031D685C689868D9681C
:101D2000156054609060D1601B7C1374544BD3F8E1
:101D30006C2107F120031046194601F0F7FA03461B
:101D400083F00103DBB2002B00D0EAE04C4BD3F868
:101D50006C3193F8A930002B23D001F067FA0346C9
:101D6000002B09D0464BD3F86C31184601F0AAFA83
:101D70000346002B15D0D4E0414BD3F86C3193F8D7
:101D80005330002B0CD13E4BD3F86C213C4BD3F895
:101D90006C3193F8BD30104619460CF0D5FC00E0CC
:101DA000BFE0374BD3F86C2197F821301046194625
:101DB0000CF086FC97F82230002B21D197F82730C1
:101DC000002B1DD004200BF005F9024607F120037B
:101DD0000B33184611460CF053FB0346002B0FD073
:101DE000274BD3F86C2107F11E0310461946FFF765
:101DF00069F8034683F00103DBB2002B00D090E0CA
:101E00001F4BD3F86C21FB8BDBB2104619460CF04C
:101E100057FC1B4A7B68C2F8783107F1200318464B
:101E200000F04EFA034683F00103DBB2002B00D032
:101E300077E0134BD3F86C31114AD2F87C2192B27F
:101E4000C2F1460292B292B2A3F8A62097F82530CA
:101E5000002B1BD00A4B93F8A131002B16D0084B56
:101E600093F8A801064BD3F8783103F10A01044B2B
:101E7000D3F8AC21044B0093012312F0BDFF5CE0CA
:101E8000A04F002061062000F50620000BF068F846
:101E9000034683F00103DBB2002B35D0284BD3F887
:101EA0006C314233184609F02DFF0346002B25D133
:101EB00001F0BCF9034683F00103DBB2002B1DD116
:101EC00007F10C03184609F0F7FE034683F00103FF
:101ED000DBB2002B12D107F10C03184609F0ECFE1F
:101EE0000346002B10D007F10C03184603F0CCFE7C
:101EF000034683F00103DBB2002B05D0104BD3F86F
:101F00007C31184600F04EFE0D4BD3F86C3118466C
:101F100000F034FF0A4B0022C3F86C2101F01EF8D8
:101F20000BE0074BD3F86C3118460BF0F5FA044B75
:101F30000022C3F86C2101F011F86037BD46B0BD36
:101F4000A04F002090B583B002AF152000F0B2FF83
:101F5000674B93F8A801664BD3F8783103F1190168
:101F6000634BD3F8AC21634B0093012312F044FF81
:101F700009200BF073FA02465D4BC3F870215C4BED
:101F8000D3F87031002B12D109202B21002200231D
:101F900011F05EFC564BD3F86C31184600F0EEFEA3
:101FA000534B0022C3F86C2100F0D8FF9CE0504B4B
:101FB000D3F8703109221A704D4BD3F870310922D1
:101FC0005A704B4BD3F87C319BB2C3F146039BB2A2
:101FD0009AB2474BA3F8A421454BD3F870310222A3
:101FE00083F85320424BD3F87031414AD2F86C2128
:101FF00092F8542083F854203D4BD3F870313C4A7A
:10200000D2F86C2192F8A92083F8A920384BD3F894
:102010007031374AD2F86C2192F8AA2083F8AA20AE
:10202000334BD3F87031324AD2F86C2192F8AB209E
:1020300083F8AB202E4BD3F870112D4BD3F87031B1
:1020400093F853202A4BD3F86C3193F85440284B23
:10205000D3F86C31423300930846114600222346E0
:102060000CF008FE224BD3F8703193F8A930002B06
:1020700011D01F4BD3F87031184601F017F9034601
:10208000002B08D01A4BD3F8703118460BF044FAE5
:1020900000F064FF28E0164BD3F870311846022197
:1020A0000CF034FB124B93F88031184614F08EFA82
:1020B0000F4BD3F870315A680D4BD3F870311B7A3F
:1020C0009BB21046194614F0E9FA14F023FB14F001
:1020D0001DFD0246064BC3F89821054B012283F8EB
:1020E000A021162000F0E6FE0437BD4690BD00BFDB
:1020F000A04F0020F506200080B500AF064B93F8F6
:1021000064319AB2044BDB880920242111F0A0FB32
:1021100000F024FF80BD00BFA04F002080B582B03A
:1021200002AF172000F0C6FE094B93F8A801084B38
:10213000D3F8783103F14601054BD3F8AC21054BB8
:102140000093012312F058FE14F0F4FABD4680BD4E
:10215000A04F0020F506200080B500AF064B93F895
:1021600064319AB2044BDB880920272111F070FBFF
:1021700000F0F4FE80BD00BFA04F002090B585B0F8
:1021800002AF7860182000F095FE144B93F8A81168
:10219000124BB3F8A6311C46104BD3F8AC21104BB0
:1021A000009308462146012312F026FE0B4A7B6865
:1021B000C2F87831094B93F8A801084BD3F878316D
:1021C00003F16201054BD3F8AC21064B00930123C8
:1021D00012F012FE0C37BD4690BD00BFA04F00208C
:1021E00061062000F506200080B500AF064B93F88D
:1021F00064319AB2044BDB880920282111F028FBB6
:1022000000F0ACFE80BD00BFA04F002090B585B0AF
:1022100002AF7860192000F04DFE274B93F8A8110B
:10222000254BB3F8A6311C46234BD3F8AC21234BE6
:10223000009308462146012312F0DEFD1E4A7B680A
:10224000C2F878311C4BD3F8703118460BF064F9A2
:10225000194B0022C3F870210AF082FE034683F076
:102260000103DBB2002B09D0134BD3F86C3142339E
:10227000184609F047FD0346002B07D100F0D6FFB2
:10228000034683F00103DBB2002B05D00A4BD3F8E1
:102290007C31184600F086FC074BD3F86C311846A9
:1022A00000F06CFD044B0022C3F86C2100F056FED8
:1022B0000C37BD4690BD00BFA04F00206106200036
:1022C00090B583B000AF78607B681B78002B27D077
:1022D0007B689B78012B03D07B689B78002B1FD1F8
:1022E0007B6803F10B0404200AF074FE03462046C9
:1022F00019460CF0C5F80346002B11D07B681C333F
:1023000018460AF00BFF0346002B07D17B681C33ED
:1023100018460BF099FF0346002B01D0012300E083
:10232000002303F00103DBB218460C37BD4690BD15
:1023300090B583B000AF786039607B681B78002B64
:1023400027D07B689B78022B23D17B6803F10B0499
:1023500004200AF03FFE0346204619460CF090F890
:102360000346002B15D07B681C3318460AF0D6FEB6
:102370000346002B0DD07B6803F12D023B684233EE
:10238000104619460CF07CF80346002B01D00123BF
:1023900000E0002303F00103DBB218460C37BD4612
:1023A00090BD00BF80B582B000AF284BB3F80330BA
:1023B0009BB201339AB2254BA3F80320234BB3F809
:1023C00003309BB2002B14D1204BB3F801309BB2E9
:1023D00001339AB21D4BA3F801201C4BB3F8013016
:1023E0009BB2002B05D1194B1B780133DAB2174B86
:1023F0001A7003F079FD0346FB80FB88002B06D1A1
:10240000124BDB8801339AB2104BDA800BE00F4B92
:10241000DB880133FA8893FBF2F102FB01F29B1A8D
:102420009AB20A4BDA80094B93F881315A1C084B57
:102430001340002B03DA013B63F00F030133DAB2E0
:10244000024B83F881210837BD4680BDA04F002094
:102450000F00008080B400AF0B4B0022DA800A4BE3
:10246000002283F88121084B00221A70064B0022BB
:102470005A7000229A70044B0022DA7000221A71FE
:10248000BD465DF8047B7047A04F002080B483B048
:1024900000AF7860164BB3F803309BB2DAB27B68BA
:1024A0001A707B680133124AB2F8032092B2120A02
:1024B00092B2D2B21A707B6802330D4AB2F8012090
:1024C00092B2D2B21A707B680333094AB2F8012083
:1024D00092B2120A92B2D2B21A707B680433044AE2
:1024E00012781A700C37BD465DF8047B704700BF48
:1024F000A04F002080B483B000AF054BB3F8A431E7
:10250000FB80FB8818460C37BD465DF8047B70479E
:10251000A04F002080B483B000AF0346FB71084B8E
:10252000D3F86C31FA7983F8A020054BD3F86C31DD
:10253000012283F8A3200C37BD465DF8047B704769
:10254000A04F002090B585B000AF786039603B683F
:102550005B78786819460CF0B3F80023FB813B6880
:102560001B78002B20D03B68DB79002B1CD03B680C
:102570009B78002B18D13B6803F10B0404200AF070
:1025800029FD0346204619460BF07AFF0346002B2F
:102590000AD007F10E0378681946FEF793FC03464C
:1025A000002B01D0012300E00023002B01D10023E8
:1025B0001CE03B685B78786819460CF05BF800F02B
:1025C00035FE0346002B07D0786800F07BFE0346FB
:1025D000002B0AD1012309E07B6893F8BD307868AD
:1025E00019460CF0B1F8012300E000231846143717
:1025F000BD4690BD90B58FB002AF786039600023C2
:1026000087F82F30002387F82E30002387F82D30ED
:10261000002387F82C30002387F82B30002387F81D
:102620002A3035E07B685A6897F82B3013441B78C2
:10263000BB847B685A6897F82B30013313441B78AE
:102640001B029AB2BB8C13439BB2BB8497F82B300E
:10265000023387F82B30BB8C87F82830BB8C03F40F
:10266000F043DB12012B03D1BB8C1BB2002B07DB29
:1026700097F82B2097F82830134487F82B3007E081
:10268000012387F82A3097F82B3087F8293005E0A6
:102690007B681B7A97F82B209A42C3D397F82A308D
:1026A00083F00103DBB2002B01D0002364E122E1BF
:1026B0007B685A6897F82B3013441B78BB847B687F
:1026C0005A6897F82B30013313441B781B029AB2D7
:1026D000BB8C13439BB2BB8497F82B30023387F833
:1026E0002B30BB8CDB0B9BB287F8233097F8233061
:1026F000012B1BD1BB8C03F4F043DB1287F8223093
:10270000BB8C87F8273097F82230092B00D00CE0DB
:102710007B685A6897F82B3013441B78184600F0F2
:1027200031FA012387F82F3000BFDDE0BB8C03F4C2
:10273000FE431B1287F82230BB8C87F8273097F8AE
:1027400022301B2B27D01C2B18D01A2B00D0CBE00B
:102750007B685A6897F82B301344184600F010F93C
:102760007B685A6897F82B30053313441B7818465A
:10277000FFF7D0FE012387F82D30B5E07B685A685B
:1027800097F82B3013441B78184600F0EBF901231F
:1027900087F82E30A8E07B685A6897F82B301344EE
:1027A0001B78184602F0FEFD7B685A6897F82B30BC
:1027B000013313441B78184602F0E2FD03F094FB4A
:1027C000034687F8213097F82130002B40F08880AD
:1027D0007B685A6897F82B30023313441B78BB840C
:1027E0007B685A6897F82B30033313441B781B021D
:1027F0009AB2BB8C13439BB2BB84BB8C184602F0CD
:10280000A5FD7B685A6897F82B30043313441B7876
:1028100087F8203007F1080318460021112217F02D
:10282000FDFE06233B72002387F8263052E07B68CA
:10283000596897F82B0097F8262013469B001344FD
:10284000034405330B441B78FB837B68596897F876
:102850002B0097F8262013469B00134403440633AD
:102860000B441B781B029AB2FB8B13439BB2FB8376
:102870007B68596897F82B0097F8262013469B0031
:102880001344034407330B441B78BB837B685968AC
:1028900097F82B0097F8262013469B001344034417
:1028A00008330B441B781B029AB2BB8B13439BB2B9
:1028B000BB83BB8BDCB2FA8B07F108030093104695
:1028C00003210122234602F0C9FD97F82630013387
:1028D00087F8263097F8262097F820309A42A6D31A
:1028E000012387F82C3000BF97F82B2097F827306A
:1028F000134487F82B3097F82B2097F8291097F876
:1029000028300B449A421FDA97F82F3083F00103E6
:10291000DBB2002B7FF4CCAE97F82E3083F00103AE
:10292000DBB2002B7FF4C4AE97F82D3083F00103A7
:10293000DBB2002B7FF4BCAE97F82C3083F00103A0
:10294000DBB2002B7FF4B4AE97F82F30002B12D0FF
:1029500097F82E30002B0ED097F82D30002B0AD090
:1029600097F82C30002B06D07B681B7A9AB23B6814
:102970001A80012300E0002318463437BD4690BD7D
:1029800080B483B000AF78607B681B789AB27B68B4
:1029900001331B789BB21B029BB213449AB20D4BBE
:1029A000A3F803207B6802331B789AB27B68033359
:1029B0001B789BB21B029BB213449AB2054BA3F83F
:1029C00001207B681A79034B1A700C37BD465DF8FD
:1029D000047B7047A04F002080B582B000AF03F0A9
:1029E00083FA0346BB80314B1B783B60BA883B6857
:1029F000B3FBF2F102FB01F29B1A3B603B681B0444
:102A00003B602A4BB3F801309BB21A463B68134433
:102A10003B60BA883B68B3FBF2F102FB01F29B1A00
:102A20003B603B681B043B60204BB3F803309BB218
:102A30001A463B6813443B60BA883B68B3FBF2F12B
:102A400002FB01F29B1A3B603B689AB2174BDA809B
:102A5000164BDB88184603F00BFA03F031FA0346F5
:102A60001A46124B1A810023FB710EE00F4B93F8AC
:102A700080310B3BFA790D490A4492F88421934244
:102A800000D105E0FB790133FB71FB790F2BEDD908
:102A900003F07AFA03461A46FB799B1ADAB2034B23
:102AA00083F881210837BD4680BD00BFA04F0020BC
:102AB00080B483B000AF0346FB71044AFB7982F80F
:102AC000A1310C37BD465DF8047B7047A04F002054
:102AD00080B483B000AF0346FB71FB790A2B02D9A7
:102AE000FB791A2B03D9FB79002B00D007E0064AAB
:102AF000FB7982F88231044B012283F883210C3761
:102B0000BD465DF8047B7047A04F002080B483B0C1
:102B100000AF0346FB71044AFB7982F8A2310C37FF
:102B2000BD465DF8047B7047A04F002080B483B0A1
:102B300000AF0346FB80044AFB88A2F8A6310C379D
:102B4000BD465DF8047B7047A04F002080B400AF05
:102B5000034BB3F8A6311846BD465DF8047B7047B9
:102B6000A04F002080B483B000AF0346FB71044A3D
:102B7000FB7982F894310C37BD465DF8047B7047D1
:102B8000A04F002080B483B000AF0346FB71044A1D
:102B9000FB7982F895310C37BD465DF8047B7047B0
:102BA000A04F002080B588B002AF786012F0A4FA80
:102BB00002462B4BD3F8AC31D31A3B61284BB3F808
:102BC000A631FB607B68463BBB603A697B689A42F2
:102BD00002D2BB687B6103E0FA68BB6813447B6187
:102BE0007A693B69D31A042B05DC7B6903F5A4736E
:102BF0007B61FFF7D7FB1A4B93F8A811184BD3F85A
:102C0000AC21184B009308467969012312F0F4F8BF
:102C10007B699AB2124BA3F8A621114B40F2D662FF
:102C2000DA600F4B1B7C002B0ED0BB6813F1050F35
:102C300002DBBB68052B07DDBB689BB209201B21AB
:102C40001A46002310F004FE074B1B780133DAB25A
:102C5000054B1A70B86800F0DFF81837BD4680BD24
:102C6000A04F0020610620005451002080B586B09E
:102C700002AF78601E4BB3F8A631FB60FA687B6840
:102C80001344BB601A4B93F8A811194BD3F8AC212D
:102C9000184B00930846B968012312F0ADF8BB68E1
:102CA0009AB2134BA3F8A621114B40F2D662DA6018
:102CB0000F4B1B7C002B0ED07B6813F1050F02DB42
:102CC0007B68052B07DD7B689BB209201B211A4618
:102CD000012310F0BDFD084B5B780133DAB2064BDF
:102CE0005A70786800F098F81037BD4680BD00BF74
:102CF000A04F0020610620005451002080B582B012
:102D000000AF0346FB710C4AFB7913740A4B1B7C22
:102D1000002B09D013F050FA00F04EF802200021E9
:102D2000002210F071FE03E013F04CFA03F088F972
:102D30000837BD4680BD00BFA04F002080B582B0DF
:102D400000AF78600B46FB707B68FA7883F841200F
:102D50007B685733074A1068186012791A717B68CC
:102D60000B225A700448022110F04EFC0837BD4671
:102D700080BD00BFA04F00202969200080B582B02F
:102D800000AF78607B685733094A10681860127981
:102D90001A717B685733184603F064F97B680B227D
:102DA0005A700448012110F02FFC0837BD4680BD41
:102DB000A04F0020F169200080B400AF154B002225
:102DC0001A70144B00225A70124B002242F07F02FC
:102DD0009A700022DA700F4B002262F07E021A71A4
:102DE0004FF0FF325A710B4B0022DA7100221A7237
:102DF00000225A7200229A72064B0022DA720022D6
:102E00001A7300225A7300229A73BD465DF8047B40
:102E1000704700BF5451002080B483B000AF786089
:102E20000E4BB3F902309BB21AB27B689A4203DDB3
:102E30007B689AB2094B5A80084BB3F904309BB2B5
:102E40001AB27B689A4203DA7B689AB2034B9A8083
:102E50000C37BD465DF8047B704700BF545100201D
:102E600080B483B000AF0346FB71114B93F88231FD
:102E70000A2B08D90E4B93F882311A2B03D80C4B2E
:102E800093F882310DE00A4B93F881311A46FB79B1
:102E9000134403F00F03064A134493F884310B33B1
:102EA000DBB218460C37BD465DF8047B704700BFA7
:102EB000A04F002080B582B000AF0346FB71264AC8
:102EC000FB7982F86431244B93F86431192B40D894
:102ED00001A252F823F000BF472F2000412F20000D
:102EE0004D2F20004D2F2000412F20004D2F20007E
:102EF0004D2F20004D2F20004D2F20004D2F200062
:102F00004D2F20004D2F20004D2F20004D2F200051
:102F10004D2F2000472F20004D2F20004D2F200047
:102F20004D2F20004D2F20004D2F20004D2F200031
:102F30004D2F20004D2F20004D2F20004D2F200021
:102F400012F0D4FE05E012F0C7FE02E012F0BAFE65
:102F500000BF0837BD4680BDA04F002090B583B0AC
:102F600002AF13F087FB714B93F8A031002B0DD00B
:102F700013F0CCFD02466D4BD3F89831D31A6B4A4F
:102F8000D2F89C211344694AC2F89C31674B93F8EC
:102F9000A811664BB3F8A6311C46644BD3F8AC219C
:102FA000634B009308462146012311F025FF5F4B38
:102FB0000022C3F878215D4B0022C3F87C215D4BD1
:102FC000D3F80720594BD3F89C311344594AC2F81F
:102FD0000730584BD3F80B30544AB2F8A6211344AB
:102FE000544AC2F80B30534BD3F80B30002B0DDA98
:102FF000504BD3F80B305B084E4AC2F80B304D4BA8
:10300000D3F807305B084B4AC2F80730474B002221
:10301000C3F89C21454B002283F8A021434BD3F8F1
:103020006831002B24D04148002103F039F83F4B90
:10303000D3F8683193F85520013AD2B283F855207D
:103040003A4BD3F8683193F85530002B07D1374B02
:10305000D3F8683118460121FFF770FE04E0334BC6
:10306000D3F868310A225A70304B0022C3F8682125
:103070002E4BD3F86C31002B09D02C4BD3F86C318C
:103080001846FFF77BFE294B0022C3F86C21274B23
:10309000D3F87031002B09D0244BD3F87031184687
:1030A0000AF03AFA214B0022C3F870211F4BD3F8E3
:1030B0007431002B09D01D4BD3F8743118460AF037
:1030C0002BFA1A4B0022C3F874210020FFF7F2FEFE
:1030D000164B1B7C002B11D0144B93F8B011134BE3
:1030E000B3F8A631203B1C46104BD3F8AC21124B51
:1030F000009308462146012311F07EFE0B4BB3F8E6
:10310000A6311A46094BD3F8AC31D41811F0F4FFAC
:103110000346E31A203B054AB2F8A621934201D2A6
:1031200010F06EFE0437BD4690BD00BFA04F0020DA
:1031300061062000545100201908200080B400AF1F
:10314000034B1B7C1846BD465DF8047B704700BFEF
:10315000A04F002080B500AF0B4B00221A700A4B25
:1031600001225A70084B00229A7008480021102250
:1031700017F054FA044B0022DA740548002110229B
:1031800017F04CFA80BD00BF745100207751002029
:103190008851002080B400AF034B9B781846BD4691
:1031A0005DF8047B704700BF7451002080B400AF0D
:1031B000034BDB7C1846BD465DF8047B704700BFBF
:1031C0007451002090B482B000AF03463960FB71A7
:1031D000084AFB799370074B3A68033314685068C8
:1031E0009168D2681C6058609960DA600837BD4603
:1031F00090BC70477451002090B482B000AF034679
:103200003960FB71084AFB79D374074B3A68143371
:10321000146850689168D2681C6058609960DA60E0
:103220000837BD4690BC70477451002080B400AF91
:103230000C4B1B7883F00103DBB2002B01D0012380
:103240000AE0084B9B78002B05D0064BDB7C002B5B
:1032500001D0012300E000231846BD465DF8047B41
:10326000704700BF7451002080B400AF034B0122AF
:103270001A70BD465DF8047B704700BF7451002092
:1032800080B483B000AF786000BF0C37BD465DF8F6
:10329000047B704780B483B000AF7860396000BFB2
:1032A0000C37BD465DF8047B704700BF80B483B027
:1032B00000AF7860002318460C37BD465DF8047BEC
:1032C000704700BF80B483B000AF78600023184619
:1032D0000C37BD465DF8047B704700BF80B483B0F7
:1032E00000AF0346FB71002318460C37BD465DF85E
:1032F000047B704780B483B000AF0346FB710B467C
:10330000BB7113467B71002318460C37BD465DF830
:10331000047B704780B483B000AF78600023184608
:103320000C37BD465DF8047B704700BF80B483B0A6
:1033300000AF78603960012318460C37BD465DF850
:10334000047B704780B500AF0348002140F29642ED
:1033500017F064F980BD00BFDC42002080B483B068
:1033600000AF0023BB710023FB7110E0FA790D4917
:1033700013469B001344DB009B1A0B441B78002B65
:1033800002D0BB790133BB71FB790133FB71FB794F
:103390001D2BEBD9BB7918460C37BD465DF8047B75
:1033A000704700BFDC42002080B483B000AF03460A
:1033B000FB71FA79074913469B001344DB009B1A03
:1033C0000B441033DB889BB218460C37BD465DF8C2
:1033D000047B7047DC42002080B483B000AF03461A
:1033E000FB71FA79074913469B001344DB009B1AD3
:1033F0000B4418331B785BB218460C37BD465DF89A
:10340000047B7047DC42002080B483B000AF0346E9
:10341000FB71FA79074913469B001344DB009B1AA2
:103420000B4418339B7818460C37BD465DF8047B77
:10343000704700BFDC42002080B584B000AF034677
:10344000FB8007F10D03184608F022FC0346002B11
:103450002AD07B7B1A46174913469B001344DB0096
:103460009B1A0B441B78002B1ED07B7B1A461346FD
:103470009B001344DB009B1A18330E4A1344053398
:103480001846FCF7B9FF0346FB81FA89FB889A428C
:103490000AD97B7B1A4613469B001344DB009B1A18
:1034A000044A1344053300E0002318461037BD4694
:1034B00080BD00BFDC42002090B587B002AFFF2383
:1034C000BB730023BB600023FB733AE0FA7B3B49EC
:1034D00013469B001344DB009B1A0B441B78002B04
:1034E0002CD0FA7B354913469B001344DB009B1A12
:1034F0000B44DB78002B21D0FA7B304913469B002C
:103500001344DB009B1A0B4420339B78BA7B9A420E
:1035100014D3FA7B13469B001344DB009B1A274A03
:1035200013440533BB60FA7B244913469B001344C4
:10353000DB009B1A0B4420339B78BB73FB7B01336E
:10354000FB73FB7B1D2BC1D9BB68002B30D000F077
:1035500005FEBB68DB799BB21B029AB2BB681B7A83
:103560009BB21344FB80FB88184601F089FD03469B
:10357000BB80FB88184601F09DFD0346FB703B466F
:10358000184602F02DFC0346002B07D03B88BA8872
:103590009A4203D1012001F09DFD09E0BA88FC7830
:1035A000BB680093104603210122234601F056FF19
:1035B000BB6818461437BD4690BD00BFDC420020F2
:1035C00080B483B000AF0346FB71FA790749134614
:1035D0009B001344DB009B1A0B442033DB78184616
:1035E0000C37BD465DF8047B704700BFDC4200200D
:1035F00080B584B000AF78600023FB7313E0FA7BE2
:1036000013469B001344DB009B1A0F4A13440533F7
:10361000786819460AF034FF0346002B00D005E015
:10362000FB7B0133FB73FB7B1D2BE8D9FA7B06493F
:1036300013469B001344DB009B1A0B4420331B7979
:1036400018461037BD4680BDDC42002080B58CB0E6
:1036500000AF7860002387F82E307B681B78032B3F
:103660000DD107F1080207F11C03786811461A46CC
:103670000AF02AFD00BF002387F82F302BE07B687B
:103680001B789BB20D2030211A46002310F000F960
:1036900097F82E3025E007F11C0297F82F301046DE
:1036A000194601F087F80346002B0FD097F82F201A
:1036B0000E4913469B001344DB009B1A0B44DB7836
:1036C000002B03D0012387F82E3008E097F82F3025
:1036D000013387F82F3097F82F301D2BDBD997F85F
:1036E0002E3018463037BD4680BD00BFDC4200207A
:1036F00080B483B000AF0346FB71FA7910491346DA
:103700009B001344DB009B1A0B44DB78002B0CD08E
:10371000FA790B4913469B001344DB009B1A0B44B8
:103720001B78002B01D0012300E0002303F00103EC
:10373000DBB218460C37BD465DF8047B704700BF0E
:10374000DC42002080B584B000AF78600123BB73F9
:103750007B681B78022B0AD07B681B789BB20D20FC
:1037600030211A46002310F093F8BB7B1DE000BF08
:103770000023FB7315E0FB7B7868194601F01AF80B
:103780000346002B0AD0FA7B0A4913469B001344D8
:10379000DB009B1A0B445B78BB7305E0FB7B0133BA
:1037A000FB73FB7B1D2BE6D9BB7B18461037BD4650
:1037B00080BD00BFDC42002090B585B000AF03465D
:1037C000FB71FA79114913469B001344DB009B1AE5
:1037D0000B441B78002B12D0FA790C4913469B003E
:1037E0001344DB009B1A0B441033DB889CB208F0B7
:1037F000BDFA03469C4202D30123FB7301E0002380
:10380000FB73FB7B18461437BD4690BDDC4200209D
:1038100080B485B000AF0346FB71FA7910491346B6
:103820009B001344DB009B1A0B441B78002B0ED02B
:10383000FA790B4913469B001344DB009B1A0B4497
:1038400018339B78102B02D90123FB7301E000236E
:10385000FB73FB7B18461437BD465DF8047B70474D
:10386000DC42002090B589B002AFF8607A601A4659
:103870000B46FB721346BB720123BB750023FB751D
:103880000BE1FB7DF868194600F094FF0346002B1E
:1038900000F000810023BB75FA7D8C4913469B0024
:1038A0001344DB009B1A0B4497F82C205A70FA7DC6
:1038B000864913469B001344DB009B1A0B441833C4
:1038C0005B780133D8B2814913469B001344DB0077
:1038D0009B1A0B44183302465A70FA7D7B491346F3
:1038E0009B001344DB009B1A0B441833FA7A1A70BE
:1038F000FA7D13469B001344DB009B1A1833734A6E
:10390000134405337A681168196012791A71BB7A09
:10391000002B0BD0FA7D6D4913469B001344DB004E
:103920009B1A0B44203397F828209A70FA7D674938
:1039300013469B001344DB009B1A0B44DB7883F097
:103940000103DBB2002B4CD0FA7D604913469B008B
:103950001344DB009B1A0B4418331B785BB213F142
:10396000450F33DBFA7D594913469B001344DB00B6
:103970009B1A0B441B790133D8B2544913469B0060
:103980001344DB009B1A0B4402461A71FA7D4F491F
:1039900013469B001344DB009B1A0B441B79022B3C
:1039A00077D9FA7D494913469B001344DB009B1AE3
:1039B0000B4400221A71FA7D444913469B001344BC
:1039C000DB009B1A0B440122DA7062E0FA7D3F496A
:1039D00013469B001344DB009B1A0B4400221A7110
:1039E0005FE0FA7D394913469B001344DB009B1AC4
:1039F0000B44DB78002B4CD0FA7D344913469B00F6
:103A00001344DB009B1A0B4418331B785BB213F191
:103A1000500F33DAFA7D2D4913469B001344DB0027
:103A20009B1A0B441B790133D8B2284913469B00DB
:103A30001344DB009B1A0B4402461A71FA7D23499A
:103A400013469B001344DB009B1A0B441B79022B8B
:103A50001FD9FA7D1D4913469B001344DB009B1AB6
:103A60000B4400221A71FA7D184913469B00134437
:103A7000DB009B1A0B440022DA7012E0FA7D134936
:103A800013469B001344DB009B1A0B4400221A715F
:103A900007E006E0FB7D0133FB75FB7D1D2B7FF608
:103AA000F0AEBB7D002B0ED097F90B20BC7A97F8B7
:103AB0002830009397F82C300193F86811467A6803
:103AC000234600F085FC1C37BD4690BDDC4200203B
:103AD00080B584B000AF7860084611461A460346A8
:103AE000FB700B46BB7013467B7078680AF0ACFB2A
:103AF0000346002B00D0C7E00023FB73C0E0FB7B34
:103B00007868194600F056FE0346002B00F0B58099
:103B1000FA7B5F4913469B001344DB009B1A0B445E
:103B2000203301225A71FA7B594913469B001344F2
:103B3000DB009B1A0B44203300229A717B78002B08
:103B40000ED0FA7B13469B001344DB009B1A1833FC
:103B50004F4A13440533BA691168196012791A7112
:103B6000BB78002B00F08880FA7B494913469B0004
:103B70001344DB009B1A0B4418339B781A46FB78DE
:103B8000C3F1FF039A4243DDFA7B414913469B0090
:103B90001344DB009B1A0B4418331B790133D8B252
:103BA0003B4913469B001344DB009B1A0B4418331C
:103BB00002461A71FA7BF97B35480B469B000B4491
:103BC000DB005B1A034418339B785B08D8B230499A
:103BD00013469B001344DB009B1A0B441833024628
:103BE0009A70FA7BF97B2A480B469B000B44DB005A
:103BF0005B1A03441833DB785B08D8B224491346B8
:103C00009B001344DB009B1A0B4418330246DA7006
:103C1000FA7BF97B1E480B469B000B44DB005B1ACA
:103C2000034418339978FB780B44D8B218491346EB
:103C30009B001344DB009B1A0B44183302469A7016
:103C40007B78002B15D0FA7B114913469B00134457
:103C5000DB009B1A0B441833DB780133D8B20C49D4
:103C600013469B001344DB009B1A0B441833024697
:103C7000DA7008F097F807E006E0FB7B0133FB738E
:103C8000FB7B1D2B7FF63BAF1037BD4680BD00BFD1
:103C9000DC42002080B584B000AF78600023FB7365
:103CA00042E0FA7B13469B001344DB009B1A214A37
:103CB00013440533786819460AF0E2FB0346002BEB
:103CC0002FD0FA7BF97B1B480B469B000B44DB0093
:103CD0005B1A034420331B790133D8B215491346CC
:103CE0009B001344DB009B1A0B44203302461A71DD
:103CF000FA7B104913469B001344DB009B1A0B44CC
:103D000020331B79002B0BD1FA7B0A4913469B0009
:103D10001344DB009B1A0B44203301221A7106E086
:103D200005E0FB7B0133FB73FB7B1D2BB9D91037FF
:103D3000BD4680BDDC42002080B584B000AF786015
:103D40000023FB731EE0FA7B13469B001344DB0049
:103D50009B1A0F4A13440533786819460AF090FB02
:103D60000346002B0BD0FA7B094913469B001344F2
:103D7000DB009B1A0B44203300221A7105E0FB7B09
:103D80000133FB73FB7B1D2BDDD91037BD4680BD96
:103D9000DC42002080B584B000AF78600B46FB7039
:103DA0001346BB700023FB73FB78022B1DD17B688D
:103DB000591CBA7813469B001344DB009B1A124A25
:103DC00013449A1D0B461168526819605A607B684B
:103DD00002221A70BA780C4913469B001344DB0088
:103DE0009B1A0B441B78FB7308E0FB789BB20D20F9
:103DF00030211A4601230FF04BFD00BFFB7B184614
:103E00001037BD4680BD00BFDC42002090B585B0B4
:103E100000AF78600023FB7359E0FA7B13469B00E8
:103E20001344DB009B1A2D4A134405337868194666
:103E30000AF026FB0346002B46D0FA7B274913469F
:103E40009B001344DB009B1A0B4420335B79042B4B
:103E500015D8FA7B214913469B001344DB009B1ABB
:103E60000B4420335B790133D8B21C4913469B00C5
:103E70001344DB009B1A0B44203302465A71FC7B2F
:103E80000AF0B2F80346D8B2FA7B144913469B00F5
:103E90001344DB009B1A0B4420335B791A46012341
:103EA0009340DBB2013BDBB2DBB202461340DBB234
:103EB000D9B20A4A23469B002344DB001B1B134450
:103EC00020330A469A7105E0FB7B0133FB73FB7BD1
:103ED0001D2BA2D91437BD4690BD00BFDC42002087
:103EE00080B584B000AF78600023FB7336E0FA7BC6
:103EF00013469B001344DB009B1A1B4A13440533F3
:103F0000786819460AF0BCFA0346002B23D0FA7BE6
:103F1000154913469B001344DB009B1A0B442033C6
:103F20009B79002B16D0FA7B0F4913469B00134454
:103F3000DB009B1A0B4420339B79013BD8B20A4922
:103F400013469B001344DB009B1A0B4420330246AC
:103F50009A7106E005E0FB7B0133FB73FB7B1D2BB5
:103F6000C5D91037BD4680BDDC42002080B584B085
:103F700000AF78600023BB730023FB7322E0FA7B61
:103F800013469B001344DB009B1A124A134405336B
:103F9000786819460AF074FA0346002B0FD0FA7BB2
:103FA0000C4913469B001344DB009B1A0B4420333F
:103FB0009B79002B0CBF01230023BB7305E0FB7B27
:103FC0000133FB73FB7B1D2BD9D9BB7B1846103704
:103FD000BD4680BDDC42002080B584B000AF786073
:103FE0000023FB7329E0FA7B13469B001344DB009C
:103FF0009B1A154A13440533786819460AF040FAAB
:104000000346002B16D0FA7B0F4913469B0013443E
:10401000DB009B1A0B44203301225A71FA7B0A49B8
:1040200013469B001344DB009B1A0B4420330022F1
:104030009A7105E0FB7B0133FB73FB7B1D2BD2D90F
:104040001037BD4680BD00BFDC42002080B483B085
:1040500000AF03460A46FB711346BB80FA79074955
:1040600013469B001344DB009B1A0B441033BA88A1
:10407000DA800C37BD465DF8047B7047DC420020D7
:1040800080B584B000AF78600023FB7318E0FB7B41
:104090007868194600F08EFB0346002B0DD0FA7BA2
:1040A0000A4913469B001344DB009B1A0B44203340
:1040B0000122DA7007F076FE05E0FB7B0133FB732B
:1040C000FB7B1D2BE3D91037BD4680BDDC420020B1
:1040D00080B483B000AF03460A46FB711346BB7140
:1040E000FA79B879064913469B001344DB009B1A02
:1040F0000B4402469A700C37BD465DF8047B70474E
:10410000DC42002080B584B000AF78607B68DB794A
:104110009BB21B029AB27B681B7A9BB21344FB8151
:10412000FB89184600F0ACFF0346BB8107F10A0388
:10413000184601F055FE0346002B07D07B89BA894B
:104140009A4203D1002000F0C5FF04E0BB89184665
:10415000796801F061FA1037BD4680BD80B500AFC7
:1041600001F046FB80BD00BF80B485B000AF0346C0
:10417000FB71FA79394913469B001344DB009B1A03
:104180000B441833DB78002B33D1FA7933491346CB
:104190009B001344DB009B1A0B4418339B78042BC1
:1041A00023D9FA792D4913469B001344DB009B1A4F
:1041B0000B4418339B780F2B13D8FA7927491346F1
:1041C0009B001344DB009B1A0B4418339B789BB273
:1041D0001A46520013441B029BB2A3F50073FB81E5
:1041E00035E04FF6FF73FB8131E04FF42063FB8134
:1041F0002DE0FA79194913469B001344DB009B1A02
:104200000B4418339B789B02BB60BA6813465B0073
:1042100013441B021846FA79104913469B001344B5
:10422000DB009B1A0B441833DB78B0FBF3F3BB6065
:10423000BB68A3F50023BB60BB68B3F1806F03D3F9
:104240004FF6FF73FB8102E0BB689B0AFB81FB8991
:1042500018461437BD465DF8047B7047DC420020E9
:1042600080B588B000AF3B1D184607F025FD03461A
:1042700083F00103DBB2002B55D13B1D184607F03C
:104280001BFD0346002B09D03B1D184601F056FCD0
:10429000034683F00103DBB2002B44D10023FB77FC
:1042A0003EE0FA7F214913469B001344DB009B1A32
:1042B0000B441B78002B30D0FA7F13469B0013442D
:1042C000DB009B1A1833194A134405331846FCF7D0
:1042D00093F8B861BB6940F6AC5293421DD9FA7F9E
:1042E000124913469B001344DB009B1A0B442033F6
:1042F000DB7883F00103DBB2002B0ED0FA7F0B4991
:1043000013469B001344DB009B1A0B449B78002B45
:1043100003D1FB7F184600F083F9FB7F0133FB7765
:10432000FB7F1D2BBDD92037BD4680BDDC42002060
:10433000F0B58BB000AF244B93F894345A1C234B48
:1043400082FB030153181911D317C91A0B461B011D
:104350005B1A5B00D11ACAB21B4B83F894241A4B28
:1043600093F894343B70184B93F894341A461649DA
:1043700013469B001344DB009B1A0B44781C03F18B
:10438000200402461946D1F800E04E688D68C968DD
:10439000C2F800E056609560D16010331030A3423F
:1043A000EFD102461968116099889B7991809371C9
:1043B0003B460920194628220FF0F0F90123184640
:1043C0002C37BD46F0BD00BFDC42002089888888BC
:1043D000B0B586B000AFF8607A601A460B46FB7243
:1043E0001346BB72FB681B78022B09D0FB681B7855
:1043F0009BB20D2030211A4602230FF049FAEBE060
:10440000F86800F0EFF8034683F00103DBB2002BFD
:1044100000F0E2800023FB75D0E0FA7D704913467E
:104420009B001344DB009B1A0B441B7883F00103B1
:10443000DBB2002B00F0BF8097F90B3013F1500F67
:1044400000DABFE0FA7D664913469B001344DB00A7
:104450009B1A0B4401221A70FA7D614913469B0096
:104460001344DB009B1A0B4497F82C205A70FA7DFA
:104470005B4913469B001344DB009B1A0B4401224B
:10448000DA70FA7D564913469B001344DB009B1AF1
:104490000B4400221A71FA7D13469B001344DB0083
:1044A0009B1A4F4A13440533FA681568546890689C
:1044B000D1681D605C609860D960127C1A74FA7DC6
:1044C000474913469B001344DB009B1A0B441033EF
:1044D0004FF0FF329A714FF0FF32DA71FA7D4049A6
:1044E00013469B001344DB009B1A0B441833FA7AE3
:1044F0001A70FA7D3A4913469B001344DB009B1A5D
:104500000B44183301225A70FA7D354913469B003B
:104510001344DB009B1A0B44183300229A70FA7D77
:104520002F4913469B001344DB009B1A0B4418339E
:104530000022DA70FA7D13469B001344DB009B1ABD
:104540001833274A134405337A68116819601279C1
:104550001A71FA7D224913469B001344DB009B1A13
:104560000B44203301225A71FA7D1D4913469B00EA
:104570001344DB009B1A0B44203300229A71BB7A50
:10458000002B0CD0FA7D164913469B001344DB0028
:104590009B1A0B44203397F828209A7012E0FA7D7A
:1045A0000F4913469B001344DB009B1A0B44203336
:1045B000FF229A7006E0FB7D0133FB75FB7D1D2B0E
:1045C0007FF62BAFFB7D1E2B06D10D2013211E2263
:1045D00000230FF03DF900BF1837BD46B0BD00BF46
:1045E000DC42002080B584B000AF78600023FB730C
:1045F0000023FB730CE0FB7B7868194600F0DAF8C7
:104600000346002B01D0012306E0FB7B0133FB7343
:10461000FB7B1D2BEFD9002318461037BD4680BD0C
:1046200080B483B000AF0346FB71FA79604913464A
:104630009B001344DB009B1A0B4400221A70FA798A
:104640005B4913469B001344DB009B1A0B4400227A
:104650009A70FA79564913469B001344DB009B1A63
:104660000B440022DA70FA79514913469B00134437
:10467000DB009B1A0B4400221A71FA794C4913464D
:104680009B001344DB009B1A0B4410334FF0FF32A6
:104690009A714FF0FF32DA71FA79454913469B005F
:1046A0001344DB009B1A0B44183300221A70FA796A
:1046B0003F4913469B001344DB009B1A0B441833FD
:1046C00000225A70FA793A4913469B001344DB00E2
:1046D0009B1A0B44183300229A70FA793449134616
:1046E0009B001344DB009B1A0B4418330022DA7042
:1046F000FA792F4913469B001344DB009B1A0B44A5
:10470000183300221A7200225A72FA792849134685
:104710009B001344DB009B1A0B44183300229A7150
:104720000022DA71FA79224913469B001344DB0018
:104730009B1A0B44183300225A71FA791C4913460C
:104740009B001344DB009B1A0B4420330022DA70D9
:10475000FA79174913469B001344DB009B1A0B445C
:10476000203300221A71FA79114913469B00134431
:10477000DB009B1A0B44203301225A71FA790C4951
:1047800013469B001344DB009B1A0B44203300228A
:104790009A71FA79064913469B001344DB009B1A71
:1047A0000B4400225A710C37BD465DF8047B7047FC
:1047B000DC42002080B582B000AF78600B46FB7011
:1047C0007B681B78022B21D1FA78174913469B008E
:1047D0001344DB009B1A0B441B78002B11D0FA7892
:1047E00013469B001344DB009B1A0F4A1344053306
:1047F0007868194609F044FE0346002B01D00123D6
:1048000000E0002303F00103DBB209E07B681B78C2
:104810009BB20D2030211A4603230FF039F80023F4
:1048200018460837BD4680BDDC420020B0B588B0D0
:1048300002AF394800210A2215F0F0FE364B002263
:104840005A7036483649374A374B01F0BBFD3B1D9D
:1048500018460021112215F0E1FE06233B710220CB
:1048600008F0B8FB0346DB799BB21B029CB2022026
:1048700008F0B0FB03461B7A9BB223449BB2184658
:1048800000F0FEFB03461D46022008F0A3FB034692
:10489000DB799BB21B029CB2022008F09BFB034613
:1048A0001B7A9BB223449BB2184600F003FC0346DC
:1048B0001C463B1D0093284603210022234600F09E
:1048C000CDFDFF200A2110F005F903461A46124BD0
:1048D0005A71114B47F23052DA800F4B5C790E4B14
:1048E000DA880D4BDB881046194609F0B7FB034602
:1048F0001A460E4B0093204611460022002310F06A
:104900004DF9FF200A2110F0E5F803461A46024B44
:104910001A721837BD46B0BD98510020114A2000C8
:10492000214A2000314A2000414A2000ED4A20005F
:1049300080B582B000AF7860786807F0E3F903468D
:1049400083F00103DBB2002B00D01FE0114BDB78BA
:104950000133DAB20F4BDA700E4BDB78402B15D1F6
:104960000C4B1B79302B03D90B480A210EF04CFE5F
:10497000084B1B790F2B03D808480A210EF044FE80
:10498000044B0022DA70034B00221A710837BD462F
:1049900080BD00BF98510020794B2000014C2000C1
:1049A00080B582B000AF7860786807F0ABF9034655
:1049B00083F00103DBB2002B00D005E0044B1B7930
:1049C0000133DAB2024B1A710837BD4680BD00BF11
:1049D0009851002080B588B006AF7860786801F003
:1049E00053F90346002B0FD00023009300230193BB
:1049F0000023029300230393002304930720796884
:104A00000122012301F0F8FC0837BD4680BD00BF3C
:104A100080B400AF00231846BD465DF8047B7047A4
:104A200080B400AF00231846BD465DF8047B704794
:104A300080B400AF00231846BD465DF8047B704784
:104A400080B586B002AF03463960FB71FB79032B5A
:104A500002D0FB79092B1ED1184B01225A7209F0A2
:104A6000C3FA0346164AA2FB0312520B47F2305117
:104A700001FB02F29B1A9BB203F5EA433033FB8140
:104A80000E4B197AFA890F4B009308461146002203
:104A9000012310F083F8FB79062B02D0FB79072B5A
:104AA00003D109480A210EF0AFFDFB79082B02D192
:104AB0003868FFF7E5FA1037BD4680BD98510020F1
:104AC00073B2E745CD4A2000314B200080B483B05B
:104AD00000AF0346FB71044B00225A720C37BD46EF
:104AE0005DF8047B704700BF9851002080B584B00A
:104AF00000AF0346FB710A4BDA88094BDB8810468E
:104B0000194609F0ABFA0346FB60054B5B79184682
:104B1000F96810F099FA00F005F81037BD4680BD2D
:104B20009851002080B500AF00F088F980BD00BF2B
:104B300080B58CB006AF3B1D184607F0BDF80346A4
:104B4000FB75FB7D83F00103DBB2002B10D13A1D16
:104B50000023009300230193002302930023039377
:104B600000230493072011460122012301F044FC95
:104B70001837BD4680BD00BF80B592B006AFFEF7C6
:104B8000DDFA034683F00103DBB2002B00D032E0F4
:104B90001A4B5B7A002B00D02DE007F11C0318465E
:104BA00007F08AF8034687F82F3097F82F3083F004
:104BB0000103DBB2002B00D01DE03B46184601216B
:104BC00000F07EF8034683F00103DBB2002B00D037
:104BD00011E007F11C023B460093002301930023E0
:104BE0000293002303930023049301201146012222
:104BF000012301F001FC3037BD4680BD98510020F3
:104C000080B592B006AFFEF799FA034683F0010330
:104C1000DBB2002B00D03EE0204B5B7A002B00D0B3
:104C200039E007F11C03184607F046F8034687F8F9
:104C30002F3097F82F3083F00103DBB2002B00D028
:104C400029E007F11C03184600F03EFE0346012B45
:104C500000D820E03A4607F11C031046194601220D
:104C600000F088F8034683F00103DBB2002B00D08C
:104C700011E007F11C02002300933B46019300233F
:104C80000293002303930023049302201146012280
:104C9000012301F0B1FB3037BD4680BD98510020A3
:104CA00080B483B000AF0346FB71044AFB795370B4
:104CB0000C37BD465DF8047B704700BF985100205B
:104CC00090B585B000AF78600B46FB707868002126
:104CD000192215F0A3FC0023BB730023FB7338E0FB
:104CE00009F082F903461C4601F0FEF80346B4FBC6
:104CF000F3F203FB02F3E31ABB81BB89184600F011
:104D000003FD0346002B21D0BA7B13469B001344BE
:104D10007A681344BA89A3F80120BA7B13469B0032
:104D200013447A68D41809F05FF9034603F00F03BF
:104D30009BB2A4F80330BA7B13469B0013447A68F5
:104D4000134401221A70BB7B0133BB73FB7B01331D
:104D5000FB73FB7B042BC3D9BA7BFB789A4202D34B
:104D6000FB78002B01D1002300E001231846143703
:104D7000BD4690BD90B58DB000AFF860B9601346E8
:104D8000FB71F8680021192215F048FC002387F810
:104D90002E30002387F82F303CE097F82F309AB25E
:104DA00007F114031046194600F00EFB97F8253062
:104DB000012B2AD197F82E2013469B001344FA6842
:104DC000134497F82F2092B2A3F8012097F82E20D1
:104DD00013469B001344FA68134497F82A2092B2B2
:104DE000A3F8032097F82E2013469B001344FA687B
:104DF000134401221A7097F82E30013387F82E30B1
:104E000097F82E30052B00D10CE097F82F300133A6
:104E100087F82F3097F82F309CB201F065F80346E1
:104E20009C42BAD397F82E20FB799A4201D20023F4
:104E300000E0012318463437BD4690BD90B5A7B0B9
:104E400006AFFEF77BF9034683F00103DBB2002BCC
:104E500000D010E107F16803184606F02DFF034665
:104E600087F87F3097F87F3083F00103DBB2002BA7
:104E700000D000E107F1680207F15403104619461B
:104E800000F04EFF0346002B1FD007F154031846D5
:104E900000F0FAFE0346002B12D007F15402002363
:104EA0000093002301930023029300230393002324
:104EB0000493072011460122012301F09DFADAE054
:104EC00007F154031846FFF71DF907F16803184668
:104ED00000F034FE034683F00103DBB2002B7BD0ED
:104EE00097F86F309BB21B029AB297F870309BB262
:104EF0001344A7F87C30B7F87C30184600F0C0F8AF
:104F00000346A7F87A30B7F87C30184600F0D2F89C
:104F1000034687F8793007F11A03184600F060FF5E
:104F20000346002B08D07B8BB7F87A209A4203D136
:104F3000012000F0CFF84FE0B7F87A30184600F0C3
:104F4000E3FB0346002B0DD0B7F87A2097F87940A1
:104F500007F168030093104603210122234600F065
:104F60007DFA39E0B7F87A203B461046194600F042
:104F70002BFA07F11C0318460021192215F04EFBED
:104F800001233B77B7F87A30A7F81D30BB7D9BB281
:104F9000A7F81F3007F1380318460121FFF790FEEC
:104FA000034683F00103DBB2002B00D063E07C7C7E
:104FB0003A4607F13803009307F11C0301930023DD
:104FC000029300230393002304930320114601223C
:104FD000234601F011FA4EE007F16803184600F08D
:104FE00073FC0346002B02D1FFF7C6FD43E0234BC1
:104FF0005B7A002B00D03EE007F16803184600F012
:10500000A7FC034683F00103DBB2002B00D032E0A3
:1050100007F11C0318460021192215F0FFFA07F1C9
:10502000680207F11C031046194600F0CDFC034648
:10503000002B20D007F1380318460121FFF740FE6E
:10504000034683F00103DBB2002B00D013E007F12D
:10505000680207F13803009307F11C030193002352
:10506000029300230393002304930320114601229B
:10507000012301F0C1F98437BD4690BD985100204D
:1050800080B483B000AF0346FB80FB88084AA2FBD4
:1050900003125209642101FB02F29B1A9BB20133F5
:1050A0009BB218460C37BD465DF8047B704700BFC5
:1050B0001F85EB5180B483B000AF0346FB80FB88B3
:1050C000DBB203F00F03DBB218460C37BD465DF8C8
:1050D000047B704780B483B000AF0346FB71044A81
:1050E000FB7913700C37BD465DF8047B704700BF39
:1050F0009851002080B400AF034B1B781846BD4682
:105100005DF8047B704700BF9851002080B582B0E5
:1051100000AF154800214FF4417215F07FFA0023CB
:10512000FB710CE0FA791346DB0013449B000E4A36
:105130001344184601F08EF8FB790133FB71FB79BB
:10514000142BEFD9084B012283F8FE22064B1522BF
:10515000A3F8FA2207F004FF0346002B01D000F069
:1051600005F80837BD4680BDA451002080B588B041
:1051700002AF0023BB82164BB3F8F832002B02D1EA
:10518000652000F0E3F8002000F0FAF8012000F0BC
:1051900009F93B4618460021112215F03FFA062373
:1051A0003B70BB8AFB820BE0FA8A3B4600931046B9
:1051B00003210122002300F051F9FB8A0133FB8215
:1051C000FA8ABB8A01339A42EEDB1837BD4680BDAE
:1051D000A4510020B0B588B000AF4F4B93F8003316
:1051E00001334D4AB2F8FA2293FBF2F102FB01F2CD
:1051F0009B1ADAB2484B83F80023474B93F80033ED
:105200003B70454B93F800331946434A0B46DB008D
:105210000B449B0013441B88A7F801303E4B93F8C6
:10522000003319463C4A0B46DB000B449B001344F9
:105230009B78FB70384B93F800331946364A0B467F
:10524000DB000B449B001344DB783B71324B93F83B
:1052500000331946304A0B46DB000B449B001344D5
:105260001B797B712C4B93F800331A461346DB00F5
:1052700013449B00284A13445A1DBB1D15685468EB
:105280009068D1681D605C609860D960127C1A7467
:10529000214B93F8003319461F4A0B46DB000B44A1
:1052A0009B00134410339B79FB751B4B93F8003321
:1052B0001946194A0B46DB000B449B00134410337C
:1052C000DB793B76144B93F800331946124A0B46B0
:1052D000DB000B449B00134418331B787B760E4B8A
:1052E00093F800331A461346DB0013449B0018332F
:1052F000094A13445A1C07F11A03116819601279FC
:105300001A713B46062019461F220EF047FA012368
:1053100018462037BD46B0BDA451002080B582B0EC
:1053200000AF094B93F8FE323B71074B93F8FF3205
:105330007B713B1D0720194602220EF02FFA012334
:1053400018460837BD4680BDA451002080B582B004
:1053500000AF0346FB8013F021FC084AFB88A2F84B
:10536000F832FB88152B03D8044AFB88A2F8FA32DE
:1053700013F008FC0837BD4680BD00BFA4510020D3
:1053800080B582B000AF0346FB7113F007FC044AFE
:10539000FB7982F8FC3213F0F5FB0837BD4680BD7F
:1053A000A451002080B582B000AF0346FB7113F01A
:1053B000F5FB044AFB7982F8FD3213F0E3FB083772
:1053C000BD4680BDA451002080B584B000AF034627
:1053D0003960FB80204BFB601FE0FB681B88FA886C
:1053E0009A4217D1FB689A783B685A74FB68DA785E
:1053F0003B689A743B68FA889A82FB681A793B6822
:105400009A753A68FB68053310461946112215F063
:105410008FF81EE0FB682433FB600F4BB3F8FA32C1
:105420005A1E1346DB0013449B000B4A1A44FB68C8
:105430009A42D2D23B6800225A743B6800229A7486
:105440003B6800229A753B6818460021112215F02E
:10545000E5F81037BD4680BDA451002090B589B055
:1054600000AF0446084611461A462346FB80034611
:105470007B710B463B711346FB7013F08FFB654B42
:10548000FB6102E0FB692433FB61FB699B78002B25
:105490000CD0604BB3F8FA325A1E1346DB001344AB
:1054A0009B005C4A1A44FB699A42EBD2594BB3F811
:1054B000FA325A1E1346DB0013449B00554A1A4425
:1054C000FB699A4209D213F05DFB0E2016210022DF
:1054D00000230EF0BDF9012397E0FB69FA881A80DA
:1054E000FB697A799A70FB693A79DA70FB69FA7824
:1054F0001A71FB6905331846396B112215F018F83B
:1055000007F10C031846FCF7C1FF7B7B9BB21B0223
:105510009AB23B7B9BB213449AB2FB699A83FB7BA2
:105520009BB21B029AB2BB7B9BB213449AB2FB693B
:105530005A833A7CFB695A76364BD3F8F432002B07
:1055400007D1FB69FA691A62324AFB69C2F8F43280
:1055500058E0304BD3F8F432BB61BB691B6A7B6106
:10556000BB691A88FB691B889A4205D2FB691A88B5
:105570007B691B889A423FD3BB691A88FB691B88E9
:105580009A4205D27B691A88BB691B889A4233D933
:10559000FB691A887B691B889A4205D27B691A8845
:1055A000BB691B889A4227D9BB691A88FB691B888B
:1055B0009A421ED1FB691B880E203E211A46002309
:1055C0000EF046F9FB6900221A80FB6900229A70EE
:1055D000FB690022DA70FB6900221A71FB6905334E
:1055E00018460021112215F019F813F0CBFA012307
:1055F0000BE07B69BB61B0E7BB69FA691A62FB69C2
:105600007A691A6213F0BEFA002318462437BD46A1
:1056100090BD00BFA451002080B584B000AF034608
:105620003960FB8013F0BAFA364BFB6011E0FB687F
:105630001B88FA889A4209D1FB68053338681946F5
:1056400008F01EFF0346002B00D00FE0FB68243358
:10565000FB602C4BB3F8FA325A1E1346DB0013449E
:105660009B00284A1A44FB689A42E0D2254BB3F8C3
:10567000FA325A1E1346DB0013449B00214A1A4497
:10568000FB689A4209D213F07DFA0E202D210022E8
:1056900000230EF0FDF8012330E0FB681A6AFB6876
:1056A0009A4207D1FB6800221A62164B0022C3F807
:1056B000F4221DE0134BD3F8F432BB60BB681A6AC6
:1056C000FB689A420BD100BFFB681A6ABB681A627A
:1056D0000C4BD3F8F422FB689A4209D103E0BB6873
:1056E0001B6ABB60EAE7FB681B6A064AC2F8F43231
:1056F000F86800F0AFFD13F045FA002318461037A4
:10570000BD4680BDA451002080B584B000AF0346E3
:10571000FB8013F043FA134BB3F8F832FA889A423D
:1057200003D313F02FFA002318E00E4BD3F8F43212
:10573000FB60FB681B88FA889A4203D113F022FAB7
:1057400000230BE0FB681B6AFB60064BD3F8F422D6
:10575000FB689A42EDD113F015FA01231846103771
:10576000BD4680BDA451002080B584B000AF034683
:105770003960FB710023FB7331E0FA7B1346DB00D9
:1057800013449B00194A134405331846396808F03E
:1057900077FE0346002B1FD0FA7B14491346DB002B
:1057A00013449B000B449B78012B09D0FA7B0F49D3
:1057B0001346DB0013449B000B449B78022B0BD158
:1057C000FA7B0A491346DB0013449B000B441B88F9
:1057D00018463968FFF720FFFB7B0133FB73FB7B27
:1057E000142BCAD91037BD4680BD00BFA45100207C
:1057F00080B582B000AF0023FB7134E0FA791E4916
:105800001346DB0013449B000B449B78032B27D1EA
:10581000FA7919491346DB0013449B000B44DB78EB
:10582000002B1DD0FA7914491346DB0013449B006A
:105830000B445B79022B13D1FA790F491346DB0035
:1058400013449B000B441988FA791346DB00134478
:105850009B00094A1344053308461946FFF7DCFE4E
:10586000FB790133FB71FB79142BC7D90020FFF7BB
:1058700031FC0837BD4680BDA451002080B582B000
:1058800000AF13F08BF90023BB710023FB710FE015
:10589000FA790C491346DB0013449B000B449B78B8
:1058A000002B02D1BB790133BB71FB790133FB7152
:1058B000FB79142BECD913F065F9BB79184608373E
:1058C000BD4680BDA451002080B584B000AF786093
:1058D00013F064F90023BB730023FB732BE0FA7B06
:1058E0001A491346DB0013449B000B44DB7883F01A
:1058F0000103DBB2002B1BD0FA7B14491346DB00FB
:1059000013449B000B449B78012B11D1FA7B134667
:10591000DB0013449B000D4A134405331846796895
:1059200008F0AEFD0346002B02D0BB7B0133BB73F6
:10593000FB7B0133FB73FB7B142BD0D913F022F9D3
:10594000BB7B18461037BD4680BD00BFA451002068
:1059500080B584B000AF786013F020F90023BB73EA
:105960000023FB7324E0FA7B1346DB0013449B0007
:10597000144A134405331846796808F081FD03463C
:10598000002B12D0FA7B0F491346DB0013449B0017
:105990000B441033DB79DBB25BB2002B01DA01235D
:1059A000BB7313F0EFF8BB7B08E0FB7B0133FB73A9
:1059B000FB7B142BD7D913F0E5F8BB7B18461037C7
:1059C000BD4680BDA451002080B584B000AF786092
:1059D000396013F0E3F80023BB810023FB733BE045
:1059E000FA7B1346DB0013449B00534A13440533F0
:1059F0001846796808F044FD0346002B29D0FA7B4D
:105A00004D491346DB0013449B000B441033DB79F4
:105A1000002B1ED0FA7B48491346DB0013449B0041
:105A20000B4418331B781A46642303FB02F1FA7BFC
:105A300041481346DB0013449B0003441033DB79D9
:105A400091FBF3F37B817A89BB899A4201D97B89E7
:105A5000BB81FB7B0133FB73FB7B142BC0D9BB8960
:105A6000002B03D113F08EF8002361E00023FB73B9
:105A700058E0FA7B1346DB0013449B002E4A134484
:105A800005331846796808F0FBFC0346002B46D026
:105A9000FA7B29491346DB0013449B000B44103367
:105AA000DB79002B3BD0FA7B23491346DB00134400
:105AB0009B000B4418331B781A46642303FB02F146
:105AC000FA7B1D481346DB0013449B00034410334C
:105AD000DB7991FBF3F37B81BA897B89D31A322B73
