:020000040800F2
:1000000000000120C1CA010801CB010801CB010891
:1000100001CB010801CB010801CB01080000000061
:1000200000000000000000000000000001CB0108FB
:1000300001CB01080000000001CB010801CB010841
:100040005902000865020008710200087D020008DC
:1000500099020008A5020008B1020008BD020008CC
:10006000C9020008D5020008E102000809030008DF
:1000700015030008210300082D03000839030008B8
:1000800045030008510300085D03000801CB010887
:1000900001CB010801CB010801CB0108990300083D
:1000A000A5030008B1030008BD030008C903000848
:1000B000D5030008E1030008010400080D0400084E
:1000C0001904000825040008310400083D04000854
:1000D000610400086D040008AD040008B9040008BC
:1000E000C5040008D1040008F9040008050500084B
:1000F000110500081D050008290500083505000840
:10010000410500084D05000859050008650500086F
:10011000710500087D05000889050008950500089F
:10012000A1050008AD050008B9050008C5050008CF
:1001300000000000000000000000000000000000BF
:1001400000000000000000000000000000000000AF
:10015000000000000000000000000000000000009F
:10016000000000000000000000000000000000008F
:10017000000000000000000000000000000000007F
:10018000000000000000000000000000000000006F
:10019000000000000000000000000000000000005F
:1001A000000000000000000000000000000000004F
:1001B000000000000000000000000000000000003F
:1001C000000000000000000000000000000000002F
:1001D000000000000000000000000000000000001F
:0401E0005FF8E0F1F3
:1001E400D8EC01080000002058000020580000202E
:1001F400C433002080B400AFBD465DF8047B704773
:1002040080B500AF15F0D6FE80BD00BF80B400AF4E
:10021400FEE700BF80B400AFFEE700BF80B400AFCC
:10022400FEE700BF80B400AFBD465DF8047B7047B5
:1002340080B400AFBD465DF8047B704780B400AF66
:10024400BD465DF8047B704780B400AFBD465DF8E1
:10025400047B704780B400AFBD465DF8047B7047F3
:1002640080B400AFBD465DF8047B704780B400AF36
:10027400BD465DF8047B704780B500AF022019F0DD
:100284009BFB0346002B04D0022019F0F1FB19F06C
:100294006BFB80BD80B400AFBD465DF8047B704746
:1002A40080B400AFBD465DF8047B704780B400AFF6
:1002B400BD465DF8047B704780B400AFBD465DF871
:1002C400047B704780B400AFBD465DF8047B704783
:1002D40080B400AFBD465DF8047B704780B500AFC5
:1002E40016F0CAFB102017F0B7FA0346002B06D00D
:1002F400102017F0D5FA16F01BFE1CF031FB16F097
:10030400B5FB80BD80B400AFBD465DF8047B70478B
:1003140080B400AFBD465DF8047B704780B400AF85
:10032400BD465DF8047B704780B400AFBD465DF800
:10033400047B704780B400AFBD465DF8047B704712
:1003440080B400AFBD465DF8047B704780B400AF55
:10035400BD465DF8047B704780B400AFBD465DF8D0
:10036400047B704780B400AFBD465DF8047B7047E2
:1003740080B400AFBD465DF8047B704780B400AF25
:10038400BD465DF8047B704780B400AFBD465DF8A0
:10039400047B704780B400AFBD465DF8047B7047B2
:1003A40080B400AFBD465DF8047B704780B400AFF5
:1003B400BD465DF8047B704780B400AFBD465DF870
:1003C400047B704780B400AFBD465DF8047B704782
:1003D40080B400AFBD465DF8047B704780B500AFC4
:1003E400054802211BF0CAFA0346002B03D0024839
:1003F40002211BF0DFFA80BD0004004080B400AF8E
:10040400BD465DF8047B704780B400AFBD465DF81F
:10041400047B704780B400AFBD465DF8047B704731
:1004240080B400AFBD465DF8047B704780B400AF74
:10043400BD465DF8047B704780B500AF16F01CFB29
:100444000548012119F010FE0346002B01D016F0D7
:1004540099FF16F00BFB80BD0030014080B400AF63
:10046400BD465DF8047B704780B500AF16F004FB11
:100474000C4820211BF084FF0346002B05D00948BB
:1004840020211BF099FF17F087F8064840211BF044
:1004940077FF0346002B01D017F05EF816F0E6FA5A
:1004A40080BD00BF0038014080B400AFBD465DF898
:1004B400047B704780B400AFBD465DF8047B704791
:1004C40080B400AFBD465DF8047B704780B500AFD3
:1004D40016F0D2FA4FF4003017F0BEF90346002BA1
:1004E40005D04FF4003017F0DBF916F039FE16F0A2
:1004F400BDFA80BD80B400AFBD465DF8047B704793
:1005040080B400AFBD465DF8047B704780B400AF93
:10051400BD465DF8047B704780B400AFBD465DF80E
:10052400047B704780B400AFBD465DF8047B704720
:1005340080B400AFBD465DF8047B704780B400AF63
:10054400BD465DF8047B704780B400AFBD465DF8DE
:10055400047B704780B400AFBD465DF8047B7047F0
:1005640080B400AFBD465DF8047B704780B400AF33
:10057400BD465DF8047B704780B400AFBD465DF8AE
:10058400047B704780B400AFBD465DF8047B7047C0
:1005940080B400AFBD465DF8047B704780B400AF03
:1005A400BD465DF8047B704780B400AFBD465DF87E
:1005B400047B704780B400AFBD465DF8047B704790
:1005C40080B400AFBD465DF8047B704780B500AFD2
:1005D40015F076FC13F072FC00F006F813F080FCC2
:1005E4000023184680BD00BF80B500AF14F0EAFEBA
:1005F40013F000FD0DF024F80DF09CFA0DF05AFFF5
:1006040000F020F804F068FE06F0C0F903F006F8E4
:1006140004F014FA0AF09CFA08F000FD0AF074FBE6
:100624000BF00EFB0BF080FB0BF0DEFC0CF08EFDF0
:100634000FF04CF901203F210022002313F086FD26
:1006440080BD00BFB0B582B002AF344800214FF482
:10065400DA721CF087FA3248002110221CF082FA68
:100664002E4B002283F882212C4B012283F8A121F6
:100674002A4B002283F8A221284B40F28F22A3F8B0
:10068400A621264B0122C3F86021244B254A03F5F9
:10069400C27413460FCB84E80F000DF021F8034613
:1006A400012B03D1012002F02FFC02E0002002F014
:1006B4002BFC02F097FC1C4B00229A711BF098FF54
:1006C4001A481BF031FF1A481BF03CFF012000219F
:1006D40014F088FE03461A46104B83F8A8210F4BEA
:1006E40093F8A8410D4BB3F8A6311D4616F090FCC3
:1006F4000246104B009320462946012314F0F4FFD0
:1007040002F098FE0020002114F06CFE03461A4605
:10071400024B83F8B021BD46B0BD00BFF8040020F1
:10072400BC0600202CCD0108AC060020690B000893
:10073400390C0008A509000880B584B000AF7860C2
:1007440018F0E4F8264B1A787B681B789A4204D098
:1007540018F0E2F84FF0FF333EE00023FB60204B3B
:10076400B3F801309AB27B68B3F801309BB29A4275
:100774000CD118F0D1F81A4BB3F803309BB21A46D7
:100784007B68B3F803309BB2D31A25E0144BB3F85B
:1007940001309BB21A467B68B3F801309BB2D31A7E
:1007A400012B13D10E4BB3F803309BB2FB607B6873
:1007B400B3F803309BB21A46FB689B1A03F57F43D8
:1007C400FF33FB60FB680133FB6002E04FF0FF3353
:1007D400FB6018F0A1F8FB6818461037BD4680BDD1
:1007E400F804002080B485B000AF786039607B687D
:1007F4001A783B681B789A4202D04FF6FF733BE0AD
:100804000023FB817B68B3F801309AB23B68B3F8EC
:1008140001309BB29A420BD17B68B3F803309AB291
:100824003B68B3F803309BB2D31A9BB29BB223E06C
:100834007B68B3F801309BB21A463B68B3F80130C9
:100844009BB2D31A012B13D17B68B3F803309BB24C
:10085400FB81FA893B68B3F803309BB2D31A9BB28D
:10086400013B9BB2FB81FB8901339BB2FB8102E01C
:100874004FF6FF73FB81FB891BB218461437BD4644
:100884005DF8047B704700BF80B586B000AF0346B7
:100894003960FB800023FB750023BB7500237B7547
:1008A40000237B8200233B8207F1080318460021C2
:1008B40005221CF057F902F04FFA03461A4640F29B
:1008C400311303FB02F31F4A82FB03121213DB17DB
:1008D400D31A7B75FA887B7D92FBF3F33B823B8AC8
:1008E400DBB23B723B8A1B0A9BB2DBB27B72386879
:1008F40001F0CAFE0023FB751EE0FB7D3A68134439
:100904001B789AB2FB7D07F118010B4413F8103CD5
:100914009BB213449AB2BB7D9BB213447B82FB7D92
:100924003A6813447A8AD2B21A707B8A1B0A9BB241
:10093400BB75FB7D0133FB75FB7D042BDDD91837BB
:10094400BD4680BDAD8BDB6880B483B000AF7860FA
:1009540039607B681B789AB27B6801331B789BB241
:100964001B029BB213449AB23B68A3F803207B6832
:1009740002331B789AB27B6803331B789BB21B0249
:100984009BB213449AB23B68A3F801207B681A799E
:100994003B681A700C37BD465DF8047B704700BF96
:1009A40080B584B002AF0346FB7115F01BF8024614
:1009B4001B4BC3F8AC211A4B93F8A811184BD3F86E
:1009C400AC21184B0093084640F28F21012314F008
:1009D4008BFE134B40F28F22A3F8A621104B1B7CF5
:1009E400002B13D10CF07CFE0346012B0BD101200C
:1009F40002F08AFA01F02CFE05F068FD03461A465F
:100A0400074B1A8104E000F0BFF901E000F02CFC70
:100A1400054B1B680133044A13600837BD4680BD8B
:100A2400F8040020A5090008BC06002080B582B0A7
:100A340000AF0346FB71444B93F86431023B162B21
:100A44006CD801A252F823F03B0B0008210B0008DC
:100A5400A90A0008AF0A0008B50A0008BB0A000882
:100A6400C10A0008C70A0008CD0A0008D30A000812
:100A7400D90A0008DF0A0008210B0008E50A00086B
:100A8400EB0A0008F10A0008F70A0008FD0A00084A
:100A9400030B0008090B00080F0B0008150B0008D6
:100AA4001B0B000800F098FD46E000F0EBFD43E06E
:100AB40000F0FAFD40E000F015FE3DE000F05AFEC3
:100AC4003AE000F0D3FE37E000F002FF34E000F03B
:100AD40011FF31E000F02CFF2EE000F08BFF2BE043
:100AE40001F0C4F828E001F0F3F825E001F002F980
:100AF40022E001F01DF91FE001F05AF91CE001F0B9
:100B040029FB19E001F000FC16E001F00FFC13E0F2
:100B140001F02AFC10E001F06FFC0DE00A4B93F8A1
:100B240064319AB2084BDB880920262113F04CFB70
:100B340002F02AFB00E000BF044B5B680133034A68
:100B440053600837BD4680BDF8040020BC06002071
:100B540080B582B000AF0346FB7113F0DBFD0837AC
:100B6400BD4680BD80B584B000AF78602F4BD3F80C
:100B7400AC317A68D31AFB602C4B1B7C002B03D15D
:100B8400F86800F0BFF948E0284B93F86431073B5C
:100B9400102B35D801A252F823F000BFE50B000852
:100BA400050C0008050C0008050C0008ED0B0008F6
:100BB400ED0B0008050C0008050C0008050C0008E6
:100BC400050C0008F50B0008F50B0008050C0008DF
:100BD400050C0008050C0008050C0008FD0B0008B6
:100BE400F86800F091FD18E0F86800F0CDFE14E01C
:100BF400F86801F0A3F810E0F86801F0C7FB0CE016
:100C04000A4B93F864319AB2084BDB8809202721F8
:100C140013F0BAFA02F0B8FA00BF054B9B6801332F
:100C2400034A93601037BD4680BD00BFF80400201E
:100C3400BC06002080B584B000AF78602F4BD3F899
:100C4400AC317A68D31AFB602C4B1B7C002B03D18C
:100C5400F86800F073F948E0284B93F86431083BD6
:100C6400102B35D801A252F823F000BFB50C0008B0
:100C7400D50C0008D50C0008D50C0008D50C0008CC
:100C8400BD0C0008D50C0008D50C0008D50C0008D4
:100C9400D50C0008D50C0008C50C0008D50C0008BC
:100CA400D50C0008D50C0008D50C0008CD0C0008A4
:100CB400F86800F071FD18E0F86800F0ADFE14E08B
:100CC400F86801F087F810E0F86801F0A7FB0CE081
:100CD4000A4B93F864319AB2084BDB880920282127
:100CE40013F052FA02F050FA00BF054BDB680133EF
:100CF400034AD3601037BD4680BD00BFF80400200E
:100D0400BC06002080B582B000AF0D4B1B783B7051
:100D14000B4BB3F801309BB2A7F80130084BB3F882
:100D240003309BB2A7F803303B4604201946052242
:100D340013F0D0F9012318460837BD4680BD00BF23
:100D4400F804002080B582B000AF0023FB71074B8C
:100D54001B7CFB71FB1D00201946012213F0BAF91C
:100D6400012318460837BD4680BD00BFF8040020A3
:100D740080B500AF052003490F2213F0ABF901231E
:100D8400184680BDAC06002090B583B002AF594B25
:100D940093F86431022B00D1A8E016F039F9024629
:100DA400544BC3F89821534B012283F8A021514B93
:100DB40093F86431012B1BD0012002F091F91BF050
:100DC4001DFC0DF099FB0346DBB203F00F03DBB20D
:100DD4000B33DAB2474B83F88021464B93F88031CA
:100DE40018461BF0C3FB1BF081FC1BF09BFC3BE093
:100DF400414BD3F807303F4AB2F8A62113443E4A88
:100E0400C2F807303C4BD3F80B303A4AB2F8A6216B
:100E14001344394AC2F80B30364BB3F803309AB254
:100E2400364BA3FB0213D9090B469B000B445B0111
:100E3400D31A9BB2002B13D11BF0E0FB0DF05CFB2B
:100E44000346DBB203F00F03DBB20B33DAB2294BF8
:100E540083F88021274B93F8803118461BF086FBDA
:100E64001BF044FC1BF05EFC224B93F86431012B15
:100E74001FD1204B93F88331012B1AD11BF0BEFBF9
:100E84001C4B93F88231184602F000F903461A46C7
:100E9400184B83F88021174B93F8803118461BF0C8
:100EA40065FB1BF023FC1BF03DFC124B002283F876
:100EB4008321104BB3F803309BB201339AB20D4B2C
:100EC400A3F803200B4B93F8B0110A4BB3F8A631E7
:100ED400203B1C46074BD3F8AC21094B0093084632
:100EE4002146012314F000FC13F022FC0437BD4614
:100EF40090BD00BFF8040020AC060020CDCCCCCCC3
:100F0400550B000880B582B000AF78600A4B93F8A7
:100F14006431012B00D00CE013F0FCFB022002F042
:100F2400DFF8054A7B68C2F87831034A7B68C2F867
:100F34007C310837BD4680BDF8040020B0B596B0BA
:100F440002AF7860A34B93F86431022B0AD0A14B13
:100F540093F864319BB2092024211A46002313F02C
:100F640013F933E1032002F0BBF809200CF03EFE34
:100F74000246984BC3F86C21964BD3F86C31002B86
:100F840006D1092036210022002313F0FDF81DE1CB
:100F9400904BD3F86C3109221A708E4BD3F86C3114
:100FA40009225A708B4BD3F86C318A4AD2F86C21DF
:100FB400C9325A60874BD3F86C315868854BD3F8E3
:100FC4006C3103F10801834BD3F86C3103F1C50490
:100FD400804BD3F86C3103F1C6027E4BD3F86C31ED
:100FE400C73300920193822223461BF0A1FB794B65
:100FF400D3F86C311B7A012B05D9764BD3F86C31BD
:101004001B7A802B0AD9734BD3F86C311B7A9BB2B1
:1010140009204121002213F0B7F8CAE06D4BD3F840
:101024006C31184602210DF017FE6A4BD3F86C316F
:1010340093F8C730002B00D1BBE0664BD3F86C218A
:1010440007F11003104619460EF0E8F93B7C002B1B
:1010540000D1AEE05F4BD3F86C31BA7C83F85320F7
:101064005C4BD3F86C317A7E83F85420594BD3F817
:101074006C3142331A4607F13D031D685C68986879
:10108400D968156054609060D1601B7C1374514B17
:10109400D3F86C2107F110031046194602F0B2FA96
:1010A4000346002B00D184E04A4BD3F86C3193F80B
:1010B400A930002B13D0474B1B7C002B79D1BB7C70
:1010C400002B76D1434BD3F86C2107F11003104663
:1010D400194601F04BFB0346002B00D169E03D4B60
:1010E400D3F86C217B7C104619460DF071FD00236A
:1010F400FB813B7C012B21D1FB7D012B1ED1BB7CD1
:10110400002B1BD104200CF025FB024607F1100331
:101114000B33184611460DF03BFC0346002B0DD053
:101124002C4BD3F86C2107F10E031046194600F03E
:1011340053F80346002B01D0012300E00023002BC9
:1011440000D136E01BF05AFA15F062FF0246214B3B
:10115400D3F89831D31A1F4AD2F89C2113441D4A5C
:10116400C2F89C311B4BD3F86C21FB89DBB21046CF
:1011740019460DF02DFD174BD3F87C31184601F0BC
:1011840017FE012001F0C0FE124BDB88092022214A
:101194001A46002312F0DAFF0E4BD3F86C311846CE
:1011A40001F0FAFE0B4B0022C3F86C2101F0ECFFB6
:1011B4000CE0084BD3F86C3118460CF06FFD054B6E
:1011C4000022C3F86C21012001F08AFF5037BD468C
:1011D400B0BD00BFF804002080B584B000AF7860D3
:1011E40039607868396801F019FB0346012B2DD169
:1011F40001F0F8FC1B4BDB88184605F03FF905F0BD
:1012040065F903461A46174B1A810023FB730EE057
:10121400144B93F880310B3BFA7B12490A4492F841
:101224008421934200D105E0FB7B0133FB73FB7BFC
:101234000F2BEDD905F0D6F903461A46FB7B9B1A12
:10124400DAB2084B83F88121012306E00920462104
:101254000322002312F098FF002318461037BD46DE
:1012640080BD00BFF804002080B58AB002AF00231F
:10127400BB7701F095F915F0BDFBC04BDB88002B63
:1012840001D115F0A5FB0CF02BFA0346002B2CD151
:10129400BA4BDA68B94BD3F860319A4208D9B74BE4
:1012A400DA68B64BD3F86031D31AB44AD3601CE081
:1012B400B24B0122C3F86021002001F025FEAF4BA0
:1012C400DB88092021211A46002312F05DFF062045
:1012D4000021002213F034F8A94B9B790133DAB2D0
:1012E400A74B9A7101F050FF6FE1A44B93F864315E
:1012F400002B0CD0A14B93F864319AB29F4BDB883E
:101304000920252112F040FF01F03EFF5DE19B4BD7
:101314000122C3F86021994BDA88984B1B899A42C1
:101324006FD105F0C3F805F05DF90346184601F0E6
:10133400ADFE03461A46914B83F8802105F0C6F8AA
:1013440003461A468D4B1A810CF0F2F90346002B22
:101354005AD00CF0C5F90346002B55D1874B1A8996
:10136400864BDB889A420AD9844B1B891A46834BE5
:10137400DB88D31A1A46814BC3F860210DE005F0CF
:10138400B9F803461A467D4B1B8913447B4AD2881D
:101394009B1A1A46794BC3F86021784B93F8A8013D
:1013A400764BD3F8603140F28F2202FB03F1734B8A
:1013B400D3F8AC21734B0093012314F095F96F4BD0
:1013C400D3F860319BB21A4692011A445200134476
:1013D4001A4691001A460B4613449AB2674BA3F877
:1013E400A6210023FB7704E001F0DAF8FB7F013348
:1013F400FB77FA7F614BD3F86031013B9A42F3D318
:1014040002E001F0C1FEE0E005F086F803467B77D8
:101414007B7F022B00F0BA80032B02D0012B40F01B
:10142400C980564B0022C3F8682107F10C03184603
:1014340005F0AEF805F0EAF80346002B4ED007F1AC
:101444000C0318460DF088F90346002B33D107F13D
:101454000C0318460CF058FF0246484BC3F86821A9
:10146400464BD3F86831002B08D107F10C0318461A
:101474000CF046FE0246414BC3F8682105F060F8C3
:101484000346002B2AD13D4BD3F86831002B0BD0F7
:101494003A4BD3F86831012283F8A82007F10C03F2
:1014A4001846012103F0BAFB07F10C031846012189
:1014B40003F02EFB12E00CF06DFE02462F4BC3F836
:1014C40068212E4BD3F86831002B07D10123BB7759
:1014D4000CF0D2FD0246294BC3F86821274BD3F800
:1014E4006831002B05D17B7F012B4FD101F04CFEDD
:1014F4006BE0042001F0F4FD204BD3F8683109229D
:101504005A70BB7F012B1FD13B1D184601F0BCF85C
:101514000AF0FCFF03461B0A9BB2DBB2013BDBB2C1
:10152400FB70164BD3F86831D3F898203B1D104656
:10153400194605221BF04CFA104BD3F86831D3F846
:1015440098300533FA781A700C4BD3F8683193F855
:1015540056200132D2B283F85620084B93F8A801E2
:10156400064BD3F8783103F13501044BD3F8AC21A1
:10157400054B0093012314F0B7F826E0F80400208B
:10158400AC060020A5090008310A00080F2001F06C
:10159400A7FD0F4B93F8A8010D4BD3F8783103F155
:1015A4005F010B4BD3F8AC210A4B0093012314F0D9
:1015B4009BF80AE07B7F9AB2054BDB8809201F2148
:1015C40012F002FE01F0E0FD00BF2037BD4680BDF1
:1015D400F8040020310A000880B582B002AF05206B
:1015E40001F07EFD244B93F8A801234BD3F8783106
:1015F40003F1A301204BD3F8AC21204B009301232A
:1016040014F072F81C4BD3F868311D4819460DF0DC
:101614003FFB194B93F8BD30002B08D0184801F05C
:10162400B1FF0346002B02D001F0AEFD21E01448C7
:1016340002210DF0F3FA104B93F8803118461AF09A
:1016440095FF0D4B9A690C4B1B7F9BB210461946B4
:101654001AF0F4FF1BF00AF815F0DAFC0246064B08
:10166400C3F89821044B012283F8A021062001F03D
:1016740037FDBD4680BD00BFF8040020310A0008D4
:101684000C05002080B500AF064B93F864319AB284
:10169400044BDB880920292112F076FD01F074FD4A
:1016A40080BD00BFF804002080B582B002AF0720DF
:1016B40001F016FD094B93F8A801084BD3F87831D3
:1016C40003F1D001054BD3F8AC21054B0093012362
:1016D40014F00AF81AF0E6FFBD4680BDF8040020B5
:1016E400310A000880B500AF064B93F864319AB212
:1016F400044BDB8809202E2112F046FD01F044FD45
:1017040080BD00BFF804002090B585B002AF7860BA
:10171400082001F0E5FC144B93F8A811124BB3F820
:10172400A6311C46104BD3F8AC21104B009308464D
:101734002146012313F0D8FF0B4A7B68C2F87831A5
:10174400094B93F8A801084BD3F8783103F1A401AD
:10175400054BD3F8AC21064B0093012313F0C4FFCF
:101764000C37BD4690BD00BFF8040020A509000851
:10177400310A000880B500AF064B93F864319AB281
:10178400044BDB8809202D2112F0FEFC01F0FCFC47
:1017940080BD00BFF804002090B587B002AF786028
:1017A400092001F09DFC2E4B93F8A8112C4BB3F8A3
:1017B400A6311C462A4BD3F8AC212A4B0093084689
:1017C4002146012313F090FF1AF018FF15F020FCB6
:1017D4000246234BD3F89831D31A214AD2F89C21DC
:1017E40013441F4AC2F89C311D4A7B68C2F8783101
:1017F4001B4BD3F86831423318460CF0ADFF034657
:10180400012B02D10023FB7301E00123FB73FB7B5B
:10181400012B10D1124B93F8A801114BD3F8783156
:1018240003F191010E4BD3F8AC210F4B009301232C
:1018340013F05AFF10E00A48012104F05DFF084B41
:10184400D3F868311846002101F07EFB044B0022D6
:10185400C3F8682101F098FC1437BD4690BD00BF61
:10186400F8040020A5090008310A000880B582B0F8
:1018740002AF0A2001F034FC134B93F8A801124B79
:10188400D3F8783103F1A5010F4BD3F8AC210F4BFA
:101894000093012313F028FF0B4B93F88031184673
:1018A4001AF064FE1AF022FF15F0B2FB0246064B52
:1018B400C3F89821044B012283F8A0210B2001F0E6
:1018C4000FFCBD4680BD00BFF8040020310A0008AB
:1018D40080B500AF064B93F864319AB2044BDB88B1
:1018E40009202A2112F050FC01F04EFC80BD00BFFB
:1018F400F804002080B582B002AF0C2001F0F0FBA8
:101904001AF010FF084B93F8A801074BD3F878316D
:1019140003F1C501044BD3F8AC21044B009301231C
:1019240013F0E2FEBD4680BDF8040020310A000831
:1019340080B500AF1348002104F0DEFE114BD3F84C
:10194400683193F85520013AD2B283F855200D4BF3
:10195400D3F8683193F85530002B07D1094BD3F8ED
:1019640068311846012101F0EFFA04E0054BD3F881
:1019740068310A225A70034B0022C3F8682101F02F
:1019840003FC80BDF804002090B585B002AF7860F8
:101994000D2001F0A5FB144B93F8A811124BB3F8DA
:1019A400A6311C46104BD3F8AC21104B00930846CB
:1019B4002146012313F098FE0B4A7B68C2F8783164
:1019C400094B93F8A801084BD3F8783103F162016D
:1019D400054BD3F8AC21064B0093012313F084FE8E
:1019E4000C37BD4690BD00BFF8040020A5090008CF
:1019F400310A000880B500AF064B93F864319AB2FF
:101A0400044BDB880920302112F0BEFB01F0BCFB43
:101A140080BD00BFF8040020B0B594B002AF786078
:101A24000E2001F05DFB8F4B93F8A8118D4BB3F89A
:101A3400A6311C468B4BD3F8AC218B4B0093084644
:101A44002146012313F050FE1AF0D8FD15F0E0FAF8
:101A54000246844BD3F89831D31A824AD2F89C2197
:101A64001344804AC2F89C317E4A7B68C2F87831BC
:101A740009200CF0BBF802467A4BC3F87421794B69
:101A8400D3F87431002B08D1092036210022002319
:101A940012F07AFB01F078FBE1E0724BD3F8743179
:101AA40009221A706F4BD3F8743109225A706D4BA6
:101AB400D3F874316B4AD2F87421C9325A60694B35
:101AC400D3F874315868674BD3F8743103F10801C3
:101AD400644BD3F8743103F1C504624BD3F8743109
:101AE40003F1C6025F4BD3F87431C73300920193FC
:101AF400822223461AF01CFE5A4BD3F874311B7A07
:101B0400012B05D9574BD3F874311B7A802B0AD992
:101B1400544BD3F874311B7A9BB209204121012222
:101B240012F032FB8FE04F4BD3F874311846022188
:101B34000DF092F84B4BD3F8743193F8C730002B67
:101B440000D180E0474BD3F8742107F10803104615
:101B540019460DF063FC3B7A002B00D173E0414B36
:101B6400D3F87431BA7A83F853203E4BD3F87431E6
:101B74007A7C83F854203B4BD3F8743142331A46B1
:101B840007F135031D685C689868D968156054606E
:101B94009060D1601B7C1374324BD3F8742107F12D
:101BA40008031046194601F02DFD0346002B00D111
:101BB40049E02C4BD3F8743193F8A930002B09D0A9
:101BC400284BD3F87431184601F0E8FC0346002B87
:101BD40000D038E0234BD3F874217B7A10461946A1
:101BE4000CF0F6FF1F4BD3F8683107F108021046DA
:101BF400194600F09DFC0346002B00D123E00BF0B6
:101C04006FFD0346002B0FD1164BD3F874314233CA
:101C140018460AF049FC0346002B05D0B7F84630B5
:101C24001BB2184601F028F90E48012104F064FDA6
:101C34000C4BD3F868311846002101F085F9094BA3
:101C44000022C3F86821074BD3F8743118460CF00E
:101C540025F8044B0022C3F8742101F095FA4837A3
:101C6400BD46B0BDF8040020A509000880B582B0C7
:101C740002AF102001F034FA134B93F8A801124B71
:101C8400D3F8783103F180010F4BD3F8AC210F4B1B
:101C94000093012313F028FD0B4B93F88031184671
:101CA4001AF064FC1AF022FD15F0B2F90246064B54
:101CB400C3F89821044B012283F8A021112001F0DC
:101CC4000FFABD4680BD00BFF8040020310A0008A9
:101CD40080B500AF064B93F864319AB2044BDB88AD
:101CE40009202B2112F050FA01F04EFA80BD00BFFA
:101CF400F804002080B582B002AF122001F0F0F9A0
:101D04001AF010FD084B93F8A801074BD3F878316B
:101D140003F1D601044BD3F8AC21044B0093012307
:101D240013F0E2FCBD4680BDF8040020310A00082F
:101D340080B500AF01F028FA80BD00BF90B585B032
:101D440002AF7860132001F0CBF9164B93F8A81179
:101D5400144BB3F8A6311C46124BD3F8AC21124BEA
:101D6400009308462146012313F0BEFC0D4A7B680C
:101D7400C2F878310B4A7B68C2F87C31094B93F87E
:101D8400A801084BD3F8783103F1A401054BD3F82B
:101D9400AC21064B0093012313F0A6FC0C37BD467F
:101DA40090BD00BFF8040020A5090008310A00080E
:101DB40080B500AF064B93F864319AB2044BDB88CC
:101DC40009202D2112F0E0F901F0DEF980BD00BFF9
:101DD400F8040020B0B59AB002AF78600023FB830A
:101DE400142001F07DF9B04B93F8A811AE4BB3F871
:101DF400A6311C46AC4BD3F8AC21AC4B009308463F
:101E04002146012313F070FC1AF0F8FB15F000F9D9
:101E14000246A54BD3F89831D31AA34AD2F89C2191
:101E24001344A14AC2F89C3109200BF0DFFE02469C
:101E34009D4BC3F86C219C4BD3F86C31002B08D11B
:101E4400092036210022002312F09EF901F09CF9AA
:101E54007BE1954BD3F86C3109221A70924BD3F87D
:101E64006C3109225A70904BD3F86C318E4AD2F8F7
:101E74006C21C9325A608C4BD3F86C3158688A4B48
:101E8400D3F86C3103F10801874BD3F86C3103F1BB
:101E9400C504854BD3F86C3103F1C602824BD3F8E9
:101EA4006C31C73300920193822223461AF040FC1E
:101EB4007D4BD3F86C311B7A012B05D97A4BD3F8BF
:101EC4006C311B7A802B0AD9774BD3F86C311B7A8F
:101ED4009BB209204121022212F056F929E1724BEA
:101EE400D3F86C31184602210CF0B6FE6E4BD3F8D1
:101EF4006C3193F8C730002B00D11AE16A4BD3F848
:101F04006C2107F12003104619460DF087FA97F863
:101F14002030002B00D10CE1634BD3F86C3197F8DF
:101F2400222083F85320604BD3F86C3197F8292092
:101F340083F854205C4BD3F86C3197F8272083F84E
:101F4400A120594BD3F86C3142331A4607F14D03A3
:101F54001D685C689868D968156054609060D160A9
:101F64001B7C1374504BD3F86C2107F120031046EB
:101F7400194601F047FB0346002B00D1D9E04A4B38
:101F8400D3F86C3193F8A930002B23D001F0BEFABA
:101F94000346002B09D0444BD3F86C31184601F0AA
:101FA400FDFA0346002B15D0C3E03F4BD3F86C3148
:101FB40093F85330002B0CD13B4BD3F86C213A4BA4
:101FC400D3F86C3193F8BD30104619460CF044FE3A
:101FD40000E0AEE0344BD3F86C2197F82130104682
:101FE40019460CF0F5FD97F82230002B1ED197F816
:101FF4002730012B1AD104200BF0ACFB024607F169
:1020040020030B33184611460CF0C2FC0346002B88
:102014000CD0254BD3F86C2107F11E03104619464A
:10202400FFF7DAF80346002B00D182E01E4BD3F809
:102034006C21FB8BDBB2104619460CF0C9FD1A4A21
:102044007B68C2F8783107F12003184600F03AFAA9
:102054000346002B00D16CE0134BD3F86C31124AC9
:10206400D2F87C2192B2C2F1AB0292B292B2A3F83E
:10207400A62097F82530012B1CD10B4B93F8A131E6
:10208400012B17D1084B93F8A801074BD3F87831EB
:1020940003F17B01044BD3F8AC21054B00930123DE
:1020A40013F022FB51E000BFF8040020A50900084A
:1020B400310A00080BF014FB0346002B2CD1244BEF
:1020C400D3F86C31423318460AF0EEF90346002B7C
:1020D4001CD101F01BFA0346002B17D007F10C03A7
:1020E40018460AF0BDF90346002B0FD007F10C0384
:1020F40018460AF0B5F90346002B0DD007F10C037E
:10210400184604F0DDF80346002B05D1104BD3F834
:102114007C31184600F04CFE0D4BD3F86C31184658
:1021240000F03AFF0A4B0022C3F86C2101F02CF8AE
:102134000BE0074BD3F86C3118460BF0AFFD044BA2
:102144000022C3F86C2101F01FF86037BD46B0BD12
:10215400F804002090B583B002AF152000F0C0FF52
:10216400674B93F8A801664BD3F8783103F1AD01BE
:10217400634BD3F8AC21634B0093012313F0B4FAFF
:1021840009200BF033FD02465D4BC3F870215C4B14
:10219400D3F87031002B12D10920362100220023FC
:1021A40011F0F2FF564BD3F86C31184600F0F4FEF0
:1021B400534B0022C3F86C2100F0E6FF9CE0504B27
:1021C400D3F8703109221A704D4BD3F870310922BB
:1021D4005A704B4BD3F87C319BB2C3F1AB039BB227
:1021E4009AB2474BA3F8A421454BD3F8703102228D
:1021F40083F85320424BD3F87031414AD2F86C2112
:1022040092F8542083F854203D4BD3F870313C4A63
:10221400D2F86C2192F8A92083F8A920384BD3F87E
:102224007031374AD2F86C2192F8AA2083F8AA2098
:10223400334BD3F87031324AD2F86C2192F8AB2088
:1022440083F8AB202E4BD3F870112D4BD3F870319B
:1022540093F853202A4BD3F86C3193F85440284B0D
:10226400D3F86C31423300930846114600222346CA
:102274000CF088FF224BD3F8703193F8A930002B6F
:1022840011D01F4BD3F87031184601F07BF9034687
:10229400002B08D01A4BD3F8703118460BF0FEFC13
:1022A40000F072FF28E0164BD3F870311846022173
:1022B4000CF0B4FC124B93F8803118461AF056F91E
:1022C4000F4BD3F870315A680D4BD3F870311B7A29
:1022D4009BB2104619461AF0B1F91AF0C7F914F076
:1022E40097FE0246064BC3F89821054B012283F85A
:1022F400A021162000F0F4FE0437BD4690BD00BFB7
:10230400F8040020310A000880B500AF064B93F8AA
:1023140064319AB2044BDB8809202C2111F034FF7C
:1023240000F032FF80BD00BFF804002080B582B009
:1023340002AF172000F0D4FE094B93F8A801084B14
:10234400D3F8783103F1DA01054BD3F8AC21054B0E
:102354000093012313F0C8F91AF0A4F9BD4680BD17
:10236400F8040020310A000880B500AF064B93F84A
:1023740064319AB2044BDB8809202F2111F004FF49
:1023840000F002FF80BD00BFF804002090B585B0C6
:1023940002AF7860182000F0A3FE144B93F8A81144
:1023A400124BB3F8A6311C46104BD3F8AC21104B9A
:1023B400009308462146012313F096F90B4A7B68E3
:1023C400C2F87831094B93F8A801084BD3F8783157
:1023D40003F16201054BD3F8AC21064B00930123B2
:1023E40013F082F90C37BD4690BD00BFF8040020FD
:1023F400A5090008310A000880B500AF064B93F820
:1024040064319AB2044BDB880920302111F0BCFE00
:1024140000F0BAFE80BD00BFF804002090B585B07E
:1024240002AF7860192000F05BFE244B93F8A811EA
:10243400224BB3F8A6311C46204BD3F8AC21204BD9
:10244400009308462146012313F04EF91B4A7B688A
:10245400C2F87831194BD3F8703118460BF01EFCD2
:10246400164B0022C3F870210BF03AF90346002BF7
:1024740009D1124BD3F86C31423318460AF014F8E0
:102484000346002B04D101F041F80346002B05D18B
:102494000A4BD3F87C31184600F08AFC074BD3F87A
:1024A4006C31184600F078FD044B0022C3F86C210F
:1024B40000F06AFE0C37BD4690BD00BFF804002052
:1024C400A509000890B583B000AF78607B681B78DD
:1024D400012B27D17B689B78012B03D07B689B78E9
:1024E400002B1FD17B6803F10B0404200BF032F99D
:1024F4000346204619460CF04BFA0346002B11D034
:102504007B681C3318460BF0C9F90346002B07D12E
:102514007B681C3318460CF01FF90346002B01D0CE
:10252400012300E00023DBB218460C37BD4690BD02
:1025340090B583B000AF786039607B681B78012B5D
:1025440027D17B689B78022B23D17B6803F10B0492
:1025540004200BF0FFF80346204619460CF018FA45
:102564000346002B15D07B681C3318460BF096F9F4
:102574000346002B0DD07B6803F12D023B684233E8
:10258400104619460CF004FA0346002B01D001232F
:1025940000E00023DBB218460C37BD4690BD00BFF7
:1025A40080B582B000AF284BB3F803309BB201333F
:1025B4009AB2254BA3F80320234BB3F803309BB204
:1025C400002B14D1204BB3F801309BB201339AB2E3
:1025D4001D4BA3F801201C4BB3F801309BB2002B18
:1025E40005D1194B1B780133DAB2174B1A7003F07B
:1025F40081FF0346FB80FB88002B06D1124BDB884E
:1026040001339AB2104BDA800BE00F4BDB880133B5
:10261400FA8893FBF2F102FB01F29B1A9AB20A4B7D
:10262400DA80094B93F881315A1C084B1340002B74
:1026340003DA013B63F00F030133DAB2024B83F890
:1026440081210837BD4680BDF80400200F000080BA
:1026540080B400AF0B4B0022DA800A4B002283F8CF
:102664008121084B00221A70064B00225A70002266
:102674009A70044B0022DA7000221A71BD465DF88C
:10268400047B7047F804002080B483B000AF786006
:10269400164BB3F803309BB2DAB27B681A707B68CE
:1026A4000133124AB2F8032092B2120A92B2D2B2A1
:1026B4001A707B6802330D4AB2F8012092B2D2B28A
:1026C4001A707B680333094AB2F8012092B2120AE5
:1026D40092B2D2B21A707B680433044A12781A7028
:1026E4000C37BD465DF8047B704700BFF80400203A
:1026F40080B483B000AF054BB3F8A431FB80FB88F2
:1027040018460C37BD465DF8047B7047F80400207A
:1027140080B483B000AF78603960074BD3F80720EA
:102724007B681A60044BD3F80B203B681A600C37A3
:10273400BD465DF8047B7047AC06002080B483B0CE
:1027440000AF0346FB71084BD3F86C31FA7983F878
:10275400A020054BD3F86C31012283F8A3200C3759
:10276400BD465DF8047B7047F804002090B585B041
:1027740000AF786039603B685B78786819460CF084
:1027840027FA0023FB813B681B78012B20D13B688F
:10279400DB79012B1CD13B689B78002B18D13B685B
:1027A40003F10B0404200AF0D5FF03462046194622
:1027B4000CF0EEF80346002B0AD007F10E037868FC
:1027C4001946FEF709FD0346002B01D0012300E062
:1027D4000023002B01D100231CE03B685B78786860
:1027E40019460CF0CFF900F091FE0346002B07D0F8
:1027F400786800F0D3FE0346002B0AD1012309E0D8
:102804007B6893F8BD30786819460CF025FA0123EB
:1028140000E0002318461437BD4690BD80B58EB045
:1028240002AF78603960002387F82F30002387F8DF
:102834002E30002387F82D30002387F82C30002316
:1028440087F82B30002387F82A3035E07B685A68F4
:1028540097F82B3013441B78BB847B685A6897F82D
:102864002B30013313441B781B029AB2BB8C1343E5
:102874009BB2BB8497F82B30023387F82B30BB8C88
:1028840087F82830BB8C03F4F043DB12012B03D10F
:10289400BB8C1BB2002B07DB97F82B2097F8283052
:1028A400134487F82B3007E0012387F82A3097F880
:1028B4002B3087F8293005E07B681B7A97F82B20AA
:1028C4009A42C3D397F82A30002B01D1002359E14F
:1028D40023E17B685A6897F82B3013441B78BB8438
:1028E4007B685A6897F82B30013313441B781B021A
:1028F4009AB2BB8C13439BB2BB8497F82B30023340
:1029040087F82B30BB8CDB0B9BB287F8233097F80E
:102914002330012B1BD1BB8C03F4F043DB1287F86B
:102924002230BB8C87F8273097F82230092B00D04F
:102934000CE07B685A6897F82B3013441B781846D0
:1029440000F026FA012387F82F3000BFDEE0BB8CAD
:1029540003F4FE431B1287F82230BB8C87F8273020
:1029640097F822301B2B27D01C2B18D01A2B00D001
:10297400CCE07B685A6897F82B301344184600F073
:1029840005F97B685A6897F82B30053313441B7894
:102994001846FFF7D3FE012387F82D30B6E07B6895
:1029A4005A6897F82B3013441B78184600F0E0F966
:1029B400012387F82E30A9E07B685A6897F82B30FA
:1029C40013441B78184602F0E5FD7B685A6897F8B3
:1029D4002B30013313441B78184602F0C9FD03F071
:1029E40089FD034687F8213097F82130002B40F009
:1029F40089807B685A6897F82B30023313441B781C
:102A0400BB847B685A6897F82B30033313441B78D4
:102A14001B029AB2BB8C13439BB2BB84BB8C18467B
:102A240002F08CFD7B685A6897F82B30043313440A
:102A34001B7887F8203007F108031846002111227B
:102A44001AF090F806233B72002387F8263053E0EF
:102A54007B68596897F82B0097F8262013469B004B
:102A64001344034405330B441B78FB837B68596888
:102A740097F82B0097F8262013469B001344034431
:102A840006330B441B781B029AB2FB8B13439BB295
:102A9400FB837B68596897F82B0097F82620134628
:102AA4009B001344034407330B441B78BB837B68AC
:102AB400596897F82B0097F8262013469B00134477
:102AC400034408330B441B781B029AB2BB8B134399
:102AD4009BB2BB83BB8BDBB2FA8B009307F1080379
:102AE4000193104603210122002302F0B5FD97F85B
:102AF4002630013387F8263097F8262097F82030BF
:102B04009A42A5D3012387F82C3000BF97F82B20D5
:102B140097F82730134487F82B3097F82B2097F831
:102B2400291097F828300B449A4213DA97F82F307B
:102B3400002B3FF4CEAE97F82E30002B3FF4C9AEF5
:102B440097F82D30002B3FF4C4AE97F82C30002BAF
:102B54003FF4BFAE97F82F30002B12D097F82E30E9
:102B6400002B0ED097F82D30002B0AD097F82C307C
:102B7400002B06D07B681B7A9AB23B681A8001232B
:102B840000E0002318463037BD4680BD80B483B0D2
:102B940000AF78607B681B789AB27B6801331B783E
:102BA4009BB21B029BB213449AB20D4BA3F80320B1
:102BB4007B6802331B789AB27B6803331B789BB221
:102BC4001B029BB213449AB2054BA3F801207B6805
:102BD4001A79034B1A700C37BD465DF8047B7047B5
:102BE400F804002080B582B000AF03F083FC0346F4
:102BF400BB80314B1B783B60BA883B68B3FBF2F176
:102C040002FB01F29B1A3B603B681B043B602A4BAE
:102C1400B3F801309BB21A463B6813443B60BA8850
:102C24003B68B3FBF2F102FB01F29B1A3B603B6889
:102C34001B043B60204BB3F803309BB21A463B683D
:102C440013443B60BA883B68B3FBF2F102FB01F228
:102C54009B1A3B603B689AB2174BDA80164BDB88B1
:102C6400184603F00BFC03F031FC03461A46124BE2
:102C74001A810023FB710EE00F4B93F880310B3B5C
:102C8400FA790D490A4492F88421934200D105E06F
:102C9400FB790133FB71FB790F2BEDD903F0A2FC17
:102CA40003461A46FB799B1ADAB2034B83F8812157
:102CB4000837BD4680BD00BFF804002080B483B04F
:102CC40000AF0346FB71044AFB7982F8A1310C374B
:102CD400BD465DF8047B7047F804002080B483B0DF
:102CE40000AF0346FB71FB790A2B02D9FB791A2B3F
:102CF40003D9FB79002B00D007E0064AFB7982F860
:102D04008231044B012283F883210C37BD465DF8E0
:102D1400047B7047F804002080B483B000AF0346FE
:102D2400FB71044AFB7982F8A2310C37BD465DF889
:102D3400047B7047F804002080B483B000AF0346DE
:102D4400FB80044AFB88A2F8A6310C37BD465DF827
:102D5400047B7047F804002080B400AF034BB3F841
:102D6400A6311846BD465DF8047B7047F804002080
:102D740080B483B000AF0346FB71044AFB7982F848
:102D840094310C37BD465DF8047B7047F80400208D
:102D940080B483B000AF0346FB71044AFB7982F828
:102DA40095310C37BD465DF8047B7047F80400206C
:102DB40080B588B002AF786012F00CFE02462B4B4F
:102DC400D3F8AC31D31A3B61284BB3F8A631FB607E
:102DD4007B68AB3BBB603A697B689A4202D2BB68B2
:102DE4007B6103E0FA68BB6813447B617A693B69E1
:102DF400D31A042B05DC7B6903F28F237B61FFF775
:102E0400CFFB1A4B93F8A811184BD3F8AC21184BED
:102E1400009308467969012312F066FC7B699AB233
:102E2400124BA3F8A621114B40F2D662DA600F4B85
:102E34001B7C012B0ED1BB6813F1050F02DBBB68B1
:102E4400052B07DDBB689BB2092023211A4600230A
:102E540011F09AF9074B1B780133DAB2054B1A705B
:102E6400B86800F0EFF81837BD4680BDF8040020BC
:102E7400A5090008AC06002080B586B002AF7860D2
:102E84001E4BB3F8A631FB60FA687B681344BB6041
:102E94001A4B93F8A811194BD3F8AC21184B009393
:102EA4000846B968012312F01FFCBB689AB2134BA1
:102EB400A3F8A621114B40F2D662DA600F4B1B7CBB
:102EC400012B0ED17B6813F1050F02DB7B68052B08
:102ED40007DD7B689BB2092023211A46012311F0E8
:102EE40053F9084B5B780133DAB2064B5A707868B1
:102EF40000F0A8F81037BD4680BD00BFF8040020DC
:102F0400A5090008AC06002080B582B000AF0346D6
:102F1400FB710C4AFB7913740A4B1B7C012B09D1FE
:102F240013F09CFE00F05EF802200021002211F054
:102F340007FA03E013F0A0FE03F0AEFB0837BD462A
:102F440080BD00BFF804002080B582B000AF786077
:102F54000B46FB707B68FA7883F841207B68573313
:102F64000A4A1068186012791A717B680B225A7029
:102F74000748022110F0E4FF064A064B1B6943F0A0
:102F8400020313610837BD4680BD00BFF80400206A
:102F9400896F00080004014080B582B000AF7860FA
:102FA4007B6857330C4A1068186012791A717B6871
:102FB4005733184603F082FB7B680B225A7007488C
:102FC400012110F0BDFF064A054B1B6943F00203C3
:102FD40013610837BD4680BDF80400205170000815
:102FE4000004014080B400AF154B00221A70144B4A
:102FF40000225A70124B002242F07F029A70002283
:10300400DA700F4B002262F07E021A714FF0FF3229
:103014005A710B4B0022DA7100221A7200225A7282
:1030240000229A72064B0022DA7200221A730022DE
:103034005A7300229A73BD465DF8047B704700BF43
:10304400AC06002080B483B000AF78600E4BB3F9B7
:1030540002309BB21AB27B689A4203DD7B689AB253
:10306400094B5A80084BB3F904309BB21AB27B68FF
:103074009A4203DA7B689AB2034B9A800C37BD46B6
:103084005DF8047B704700BFAC06002080B483B0B9
:1030940000AF0346FB71114B93F882310A2B08D918
:1030A4000E4B93F882311A2B03D80C4B93F88231D0
:1030B4000DE00A4B93F881311A46FB79134403F06F
:1030C4000F03064A134493F884310B33DBB21846DA
:1030D4000C37BD465DF8047B704700BFF804002040
:1030E40080B582B000AF0346FB71264AFB7982F8B3
:1030F4006431244B93F86431192B40D801A252F85F
:1031040023F000BF77310008713100087D310008D9
:103114007D310008713100087D3100087D310008DF
:103124007D3100087D3100087D3100087D310008C3
:103134007D3100087D3100087D3100087D310008B3
:10314400773100087D3100087D3100087D310008A9
:103154007D3100087D3100087D3100087D31000893
:103164007D3100087D3100087D31000813F060FCDA
:1031740005E013F057FC02E013F04EFC00BF0837E3
:10318400BD4680BDF804002090B58DB002AF19F0A3
:1031940035FA9E4B93F8A031012B0DD113F038FF73
:1031A40002469A4BD3F89831D31A984AD2F89C2104
:1031B4001344964AC2F89C31944B93F8A811934B4C
:1031C400B3F8A6311C46914BD3F8AC21904B009335
:1031D40008462146012312F087FA8C4B0022C3F8DB
:1031E40078218A4B0022C3F87C218A4BD3F807202C
:1031F400864BD3F89C311344864AC2F80730854B7A
:10320400D3F80B30814AB2F8A6211344814AC2F89C
:103214000B30804BD3F80B30002B0DDA7D4BD3F8F9
:103224000B305B087B4AC2F80B307A4BD3F807307B
:103234005B08784AC2F80730744B0022C3F89C211B
:10324400724B002283F8A021704BD3F86831002B15
:1032540024D06E48002103F04FFA6C4BD3F8683148
:1032640093F85520013AD2B283F85520674BD3F82E
:10327400683193F85530002B07D1644BD3F868318B
:1032840018460121FFF760FE04E0604BD3F8683173
:103294000A225A705D4B0022C3F8682103F03CF9FE
:1032A400034687F8273097F82730022B29D1574B4C
:1032B400D3F86C31002B07D0544BD3F86C31423324
:1032C4001846022101F0AAFC03F04EF90346002B34
:1032D4000CD03B46184609F0C3F80346002B10D027
:1032E4003B461846022101F013FC0AE007F11403DF
:1032F400184603F04DF907F114031846022101F0B2
:1033040007FC424BD3F86C31002B09D03F4BD3F868
:103314006C311846FFF740FE3C4B0022C3F86C2189
:103324003A4BD3F87031002B09D0384BD3F87031B5
:1033340018460AF0B3FC354B0022C3F87021334B16
:10334400D3F87431002B09D0304BD3F874311846BC
:103354000AF0A4FC2D4B0022C3F8742103F02EF9CB
:1033640003461A46294BDB889A421FD103F0FCF826
:103374000346002B1AD003F0CFF80346012B15D1D6
:1033840007F11403184603F003F907F11403184670
:103394000AF0BAFF0346002B08D11C4BDA8807F168
:1033A400140310460121012202F02AFB0020FFF73A
:1033B40097FE164B1B7C012B11D1144B93F8B011C3
:1033C400124BB3F8A631203B1C46104BD3F8AC216A
:1033D400114B009308462146012312F085F90B4B4B
:1033E400B3F8A6311A46094BD3F8AC31D41812F00D
:1033F400F1FA0346E31A203B044AB2F8A6219342A9
:1034040001D211F095F92C37BD4690BDF804002087
:10341400A5090008AC060020550B000880B400AFD5
:10342400034B1B7C1846BD465DF8047B704700BF08
:10343400F804002080B500AF0B4B00221A700A4B31
:1034440001225A70084B00229A7008480021102269
:1034540019F088FB044B0022DA740548002110227D
:1034640019F080FB80BD00BFCC060020CF060020F1
:10347400E006002080B400AF034B9B781846BD469D
:103484005DF8047B704700BFCC06002080B400AF19
:10349400034BDB7C1846BD465DF8047B704700BFD8
:1034A400CC06002090B482B000AF03463960FB71B3
:1034B400084AFB799370074B3A68033314685068E1
:1034C4009168D2681C6058609960DA600837BD461C
:1034D40090BC7047CC06002090B482B000AF034685
:1034E4003960FB71084AFB79D374074B3A6814338B
:1034F400146850689168D2681C6058609960DA60FA
:103504000837BD4690BC7047CC06002080B400AF9D
:103514000A4B1B78002B01D101230AE0074B9B784F
:10352400002B05D0054BDB7C002B01D0012300E0F0
:1035340000231846BD465DF8047B7047CC06002086
:1035440080B400AF034B01221A70BD465DF8047BC2
:10355400704700BFCC06002080B483B000AF786011
:1035640000BF0C37BD465DF8047B704780B483B060
:1035740000AF7860396000BF0C37BD465DF8047B4E
:10358400704700BF80B483B000AF78600023184652
:103594000C37BD465DF8047B704700BF80B483B030
:1035A40000AF7860002318460C37BD465DF8047BF5
:1035B400704700BF80B483B000AF0346FB710023A3
:1035C40018460C37BD465DF8047B704780B483B061
:1035D40000AF0346FB710B46BB7113467B7100239E
:1035E40018460C37BD465DF8047B704780B483B041
:1035F40000AF7860002318460C37BD465DF8047BA5
:10360400704700BF80B483B000AF78603960012395
:1036140018460C37BD465DF8047B704780B500AF93
:103624000348002140F2964219F09CFA80BD00BF85
:103634005800002080B483B000AF0023BB71002386
:10364400FB7110E0FA790D4913469B001344DB002B
:103654009B1A0B441B78012B02D1BB790133BB713C
:10366400FB790133FB71FB791D2BEBD9BB79184630
:103674000C37BD465DF8047B704700BF580000203E
:1036840080B483B000AF0346FB71FA79074913464F
:103694009B001344DB009B1A0B441033DB889BB262
:1036A40018460C37BD465DF8047B7047580000206F
:1036B40080B483B000AF0346FB71FA79074913461F
:1036C4009B001344DB009B1A0B4418331B785BB23A
:1036D40018460C37BD465DF8047B7047580000203F
:1036E40080B483B000AF0346FB71FA7907491346EF
:1036F4009B001344DB009B1A0B4418339B78184639
:103704000C37BD465DF8047B704700BF58000020AD
:1037140080B584B000AF0346FB8007F10D03184663
:1037240008F08AFE0346002B2AD07B7B1A461749F1
:1037340013469B001344DB009B1A0B441B78012B9C
:103744001ED17B7B1A4613469B001344DB009B1A55
:1037540018330E4A134405331846FCF7EDFF0346AD
:10376400FB81FA89FB889A420AD97B7B1A46134665
:103774009B001344DB009B1A044A1344053300E006
:10378400002318461037BD4680BD00BF58000020F6
:1037940080B483B000AFFF23BB7100233B600023E0
:1037A400FB713AE0FA79224913469B001344DB008B
:1037B4009B1A0B441B78012B2CD1FA791C49134614
:1037C4009B001344DB009B1A0B44DB78012B21D1B3
:1037D400FA79174913469B001344DB009B1A0B44E8
:1037E40020339B78BA799A4214D3FA7913469B0012
:1037F4001344DB009B1A0E4A134405333B60FA79E9
:103804000B4913469B001344DB009B1A0B442033E3
:103814009B78BB71FB790133FB71FB791D2BC1D9FB
:103824003B6818460C37BD465DF8047B704700BF03
:103834005800002080B483B000AF0346FB71FA79CE
:10384400074913469B001344DB009B1A0B442033A7
:10385400DB7818460C37BD465DF8047B704700BF23
:103864005800002080B584B000AF78600023FB735B
:1038740013E0FA7B13469B001344DB009B1A0F4AA8
:1038840013440533786819460BF082F80346002B7D
:1038940000D005E0FB7B0133FB73FB7B1D2BE8D9D8
:1038A400FA7B064913469B001344DB009B1A0B4426
:1038B40020331B7918461037BD4680BD58000020C0
:1038C40080B58CB000AF7860002387F82E307B6819
:1038D4001B78032B0DD107F1080207F11C0378684C
:1038E40011461A460AF078FE00BF002387F82F30ED
:1038F4002BE07B681B789BB20D203B211A460023EA
:1039040010F062FC97F82E3025E007F11C0297F8BE
:103914002F301046194601F057F80346002B0FD0FC
:1039240097F82F200E4913469B001344DB009B1A83
:103934000B44DB78012B03D1012387F82E3008E0F8
:1039440097F82F30013387F82F3097F82F301D2B3D
:10395400DBD997F82E3018463037BD4680BD00BFFE
:103964005800002080B483B000AF0346FB71FA799D
:103974000F4913469B001344DB009B1A0B44DB786E
:10398400002B0CD0FA790A4913469B001344DB0040
:103994009B1A0B441B78002B01D0012300E0002369
:1039A400DBB218460C37BD465DF8047B704700BF98
:1039B4005800002080B584B000AF78600123BB7349
:1039C4007B681B78022B0AD07B681B789BB20D2086
:1039D4003B211A46012310F0F7FBBB7B1DE000BF1F
:1039E4000023FB7315E0FB7B7868194600F0ECFFBD
:1039F4000346002B0AD0FA7B0A4913469B00134462
:103A0400DB009B1A0B445B78BB7305E0FB7B013343
:103A1400FB73FB7B1D2BE6D9BB7B18461037BD46D9
:103A240080BD00BF5800002090B585B000AF0346AC
:103A3400FB71FA79114913469B001344DB009B1A6E
:103A44000B441B78012B12D1FA790C4913469B00C5
:103A54001344DB009B1A0B441033DB889CB208F040
:103A640055FD03469C4202D30123FB7301E000236E
:103A7400FB73FB7B18461437BD4690BD58000020ED
:103A840080B485B000AF0346FB71FA791049134640
:103A94009B001344DB009B1A0B441B78012B0ED1B3
:103AA400FA790B4913469B001344DB009B1A0B4421
:103AB40018339B78102B02D90123FB7301E00023F8
:103AC400FB73FB7B18461437BD465DF8047B7047D7
:103AD4005800002090B589B002AFF8607A601A46A9
:103AE4000B46FB721346BB720123BB750023FB75A7
:103AF40008E1FB7DF868194600F066FF0346002BD9
:103B040000F0FD800023BB75FA7D8B4913469B00B2
:103B14001344DB009B1A0B4497F82C205A70FA7D4F
:103B2400854913469B001344DB009B1A0B4418334E
:103B34005B780133D8B2804913469B001344DB0001
:103B44009B1A0B44183302465A70FA7D7A4913467D
:103B54009B001344DB009B1A0B441833FA7A1A7047
:103B6400FA7D13469B001344DB009B1A1833724AF8
:103B7400134405337A681168196012791A71BB7A93
:103B8400012B0BD1FA7D6C4913469B001344DB00D7
:103B94009B1A0B44203397F828209A70FA7D6649C3
:103BA40013469B001344DB009B1A0B44DB78002B69
:103BB4004CD1FA7D604913469B001344DB009B1AE9
:103BC4000B4418331B785BB213F1450F33DBFA7DDA
:103BD400594913469B001344DB009B1A0B441B7981
:103BE4000133D8B2544913469B001344DB009B1A9B
:103BF4000B4402461A71FA7D4F4913469B00134445
:103C0400DB009B1A0B441B79022B77D9FA7D4A49B6
:103C140013469B001344DB009B1A0B4400221A71C9
:103C2400FA7D454913469B001344DB009B1A0B4461
:103C34000122DA7062E0FA7D3F4913469B00134487
:103C4400DB009B1A0B4400221A715FE0FA7D3A49AB
:103C540013469B001344DB009B1A0B44DB78012BB7
:103C64004CD1FA7D344913469B001344DB009B1A64
:103C74000B4418331B785BB213F1500F33DAFA7D1F
:103C84002D4913469B001344DB009B1A0B441B79FC
:103C94000133D8B2284913469B001344DB009B1A16
:103CA4000B4402461A71FA7D234913469B001344C0
:103CB400DB009B1A0B441B79022B1FD9FA7D1E498A
:103CC40013469B001344DB009B1A0B4400221A7119
:103CD400FA7D194913469B001344DB009B1A0B44DD
:103CE4000022DA7012E0FA7D134913469B00134454
:103CF400DB009B1A0B4400221A7107E006E0FB7DEF
:103D04000133FB75FB7D1D2B7FF6F3AEBB7D012BD1
:103D14000ED197F90B20BC7A97F82830009397F8C6
:103D24002C300193F86811467A68234600F060FC51
:103D34001C37BD4690BD00BF5800002080B584B03C
:103D440000AF7860084611461A460346FB700B46DE
:103D5400BB7013467B7078680AF0FEFC0346012BA7
:103D640000D1C7E00023FB73C0E0FB7B78681946F1
:103D740000F02AFE0346002B00F0B580FA7B5F4971
:103D840013469B001344DB009B1A0B44203301228F
:103D94005A71FA7B594913469B001344DB009B1A62
:103DA4000B44203300229A717B78012B0ED1FA7BCD
:103DB40013469B001344DB009B1A18334F4A1344E9
:103DC4000533BA691168196012791A71BB78002B2E
:103DD40000F08880FA7B494913469B001344DB00BA
:103DE4009B1A0B4418339B781A46FB78C3F1FF03E4
:103DF4009A4243DDFA7B414913469B001344DB009E
:103E04009B1A0B4418331B790133D8B23B49134630
:103E14009B001344DB009B1A0B44183302461A71AF
:103E2400FA7BF97B35480B469B000B44DB005B1A9D
:103E3400034418339B785B08D8B2304913469B007F
:103E44001344DB009B1A0B44183302469A70FA7B26
:103E5400F97B2A480B469B000B44DB005B1A0344A6
:103E64001833DB785B08D8B2244913469B0013440B
:103E7400DB009B1A0B4418330246DA70FA7BF97B99
:103E84001E480B469B000B44DB005B1A03441833AB
:103E94009978FB780B44D8B2184913469B00134415
:103EA400DB009B1A0B44183302469A707B78012B73
:103EB40015D1FA7B114913469B001344DB009B1A6E
:103EC4000B441833DB780133D8B20C4913469B00FA
:103ED4001344DB009B1A0B4418330246DA7008F0D3
:103EE40031FB07E006E0FB7B0133FB73FB7B1D2BFF
:103EF4007FF63BAF1037BD4680BD00BF58000020A1
:103F040080B584B000AF78600023FB7342E0FA7B95
:103F140013469B001344DB009B1A214A13440533C8
:103F2400786819460AF034FD0346002B2FD0FA7B3B
:103F3400F97B1B480B469B000B44DB005B1A0344D4
:103F440020331B790133D8B2154913469B0013441F
:103F5400DB009B1A0B44203302461A71FA7B10498A
:103F640013469B001344DB009B1A0B4420331B793C
:103F7400002B0BD1FA7B0A4913469B001344DB0048
:103F84009B1A0B44203301221A7106E005E0FB7BE7
:103F94000133FB73FB7B1D2BB9D91037BD4680BDA4
:103FA4005800002080B584B000AF78600023FB7314
:103FB4001EE0FA7B13469B001344DB009B1A0F4A56
:103FC40013440533786819460AF0E2FC0346002BD3
:103FD4000BD0FA7B094913469B001344DB009B1A60
:103FE4000B44203300221A7105E0FB7B0133FB7381
:103FF400FB7B1D2BDDD91037BD4680BD580000204A
:1040040080B584B000AF78600B46FB701346BB707C
:104014000023FB73FB78022B1DD17B68591CBA78F3
:1040240013469B001344DB009B1A124A13449A1D47
:104034000B461168526819605A607B6802221A7034
:10404400BA780C4913469B001344DB009B1A0B44BB
:104054001B78FB7308E0FB789BB20D203B211A46CA
:10406400022310F0B1F800BFFB7B18461037BD46A1
:1040740080BD00BF5800002090B585B000AF7860C7
:104084000023FB7359E0FA7B13469B001344DB00C7
:104094009B1A2D4A13440533786819460AF078FCB4
:1040A4000346002B46D0FA7B274913469B00134452
:1040B400DB009B1A0B4420335B79042B15D8FA7B65
:1040C400214913469B001344DB009B1A0B44203305
:1040D4005B790133D8B21C4913469B001344DB00BF
:1040E4009B1A0B44203302465A71FC7B0AF004FAF3
:1040F4000346D8B2FA7B144913469B001344DB00F1
:104104009B1A0B4420335B791A4601239340DBB29C
:10411400013BDBB2DBB202461340DBB2D9B20A4A3E
:1041240023469B002344DB001B1B134420330A4615
:104134009A7105E0FB7B0133FB73FB7B1D2BA2D93A
:104144001437BD4690BD00BF5800002080B584B030
:1041540000AF78600023FB7336E0FA7B13469B00C4
:104164001344DB009B1A1B4A134405337868194631
:104174000AF00EFC0346002B23D0FA7B15491346A4
:104184009B001344DB009B1A0B4420339B79002BC8
:1041940016D0FA7B0F4913469B001344DB009B1A8D
:1041A4000B4420339B79013BD8B20A4913469B0048
:1041B4001344DB009B1A0B44203302469A7106E039
:1041C40005E0FB7B0133FB73FB7B1D2BC5D910374B
:1041D400BD4680BD5800002080B584B000AF786033
:1041E4000023BB730023FB7323E0FA7B13469B007D
:1041F4001344DB009B1A154A1344053378681946A7
:104204000AF0C6FB0346002B10D0FA7B0F49134675
:104214009B001344DB009B1A0B4420339B79002B37
:104224000CBF01230023DBB2BB7305E0FB7B01332E
:10423400FB73FB7B1D2BD8D9FB7B1E2B01D10123E8
:10424400BB73BB7B18461037BD4680BD58000020A9
:1042540080B584B000AF78600023FB7329E0FA7B5B
:1042640013469B001344DB009B1A154A1344053381
:10427400786819460AF08CFB0346002B16D0FA7BAB
:104284000F4913469B001344DB009B1A0B44203355
:1042940001225A71FA7B0A4913469B001344DB003E
:1042A4009B1A0B44203300229A7105E0FB7B0133F7
:1042B400FB73FB7B1D2BD2D91037BD4680BD00BFDD
:1042C4005800002080B483B000AF03460A46FB7157
:1042D4001346BB80FA79074913469B001344DB005D
:1042E4009B1A0B441033BA88DA800C37BD465DF84C
:1042F400047B70475800002080B584B000AF78601C
:104304000023FB7318E0FB7B7868194600F05CFB24
:104314000346002B0DD0FA7B0A4913469B00134435
:10432400DB009B1A0B4420330122DA7008F00AF9EF
:1043340005E0FB7B0133FB73FB7B1D2BE3D91037BB
:10434400BD4680BD5800002080B483B000AF034652
:104354000A46FB711346BB71FA79074913469B0061
:104364001344DB009B1A0B44BA799A700C37BD4690
:104374005DF8047B704700BF5800002080B485B00E
:1043840000AF0346FB71FA79394913469B00134485
:10439400DB009B1A0B441833DB78002B33D1FA79FA
:1043A400334913469B001344DB009B1A0B44183318
:1043B4009B78042B23D9FA792D4913469B00134487
:1043C400DB009B1A0B4418339B780F2B13D8FA7914
:1043D400274913469B001344DB009B1A0B441833F4
:1043E4009B789BB21A46520013441B029BB2A3F55E
:1043F4000073FB8135E04FF6FF73FB8131E04FF42E
:104404002063FB812DE0FA79194913469B0013447C
:10441400DB009B1A0B4418339B789B02BB60BA6881
:1044240013465B0013441B021846FA7910491346DD
:104434009B001344DB009B1A0B441833DB78B0FB5E
:10444400F3F3BB60BB68A3F50023BB60BB68B3F1A7
:10445400806F03D34FF6FF73FB8102E0BB689B0AB6
:10446400FB81FB8918461437BD465DF8047B704711
:104474005800002080B588B000AF3B1D184607F0F7
:10448400EFFF0346002B5ED03B1D184607F0E8FF04
:104494000346002B06D03B1D184601F02DFE0346B3
:1044A400002B50D00023FB774AE0FA7F27491346BC
:1044B4009B001344DB009B1A0B441B78012B3CD15B
:1044C400FA7F13469B001344DB009B1A18331F4AE0
:1044D400134405331846FCF72FF9B861BB6940F65D
:1044E400AC52934229D9FA7F184913469B001344CE
:1044F400DB009B1A0B442033DB78002B1DD1FA7FA1
:10450400124913469B001344DB009B1A0B449B780F
:10451400002B12D1FA7F13469B001344DB009B1A35
:104524000A4A13440533184609F0EEFE0346002BED
:1045340003D1FB7F184600F07DF9FB7F0133FB7745
:10454400FB7F1D2BB1D92037BD4680BD580000200C
:10455400F0B58BB000AF244B93F894345A1C234B22
:1045640082FB030153181911D317C91A0B461B01F7
:104574005B1A5B00D11ACAB21B4B83F894241A4B02
:1045840093F894343B70184B93F894341A461649B4
:1045940013469B001344DB009B1A0B44781C03F165
:1045A400200402461946D1F800E04E688D68C968B7
:1045B400C2F800E056609560D16010331030A34219
:1045C400EFD102461968116099889B7991809371A3
:1045D4003B460920194628220FF07CFD012318468A
:1045E4002C37BD46F0BD00BF58000020898888885C
:1045F400B0B586B000AFF8607A601A460B46FB721D
:104604001346BB72FB681B78022B09D0FB681B782E
:104614009BB20D203B211A4603230FF0D5FDE5E0A4
:10462400F86800F0E9F80346002B40F0DF8000232F
:10463400FB75CDE0FA7D6F4913469B001344DB0004
:104644009B1A0B441B78002B40F0BF8097F90B306A
:1046540013F1500F00DABFE0FA7D664913469B0060
:104664001344DB009B1A0B4401221A70FA7D614942
:1046740013469B001344DB009B1A0B4497F82C2031
:104684005A70FA7D5B4913469B001344DB009B1A66
:104694000B440122DA70FA7D564913469B001344F9
:1046A400DB009B1A0B4400221A71FA7D13469B000F
:1046B4001344DB009B1A4F4A13440533FA68156808
:1046C40054689068D1681D605C609860D960127C01
:1046D4001A74FA7D474913469B001344DB009B1A66
:1046E4000B4410334FF0FF329A714FF0FF32DA71FE
:1046F400FA7D404913469B001344DB009B1A0B448C
:104704001833FA7A1A70FA7D3A4913469B00134417
:10471400DB009B1A0B44183301225A70FA7D354989
:1047240013469B001344DB009B1A0B4418330022EE
:104734009A70FA7D2F4913469B001344DB009B1AA1
:104744000B4418330022DA70FA7D13469B0013449D
:10475400DB009B1A1833274A134405337A6811681F
:10476400196012791A71FA7D224913469B00134489
:10477400DB009B1A0B44203301225A71FA7D1D4938
:1047840013469B001344DB009B1A0B442033002286
:104794009A71BB7A012B0CD1FA7D164913469B0002
:1047A4001344DB009B1A0B44203397F828209A709B
:1047B40012E0FA7D0F4913469B001344DB009B1A59
:1047C4000B442033FF229A7006E0FB7D0133FB7516
:1047D400FB7D1D2B7FF62EAFFB7D1E2B06D10D20FE
:1047E40018211E2200230FF0CFFC00BF1837BD464E
:1047F400B0BD00BF5800002080B584B000AF786021
:104804000023FB730023FB730CE0FB7B78681946E1
:1048140000F0DAF80346002B01D0012306E0FB7B0D
:104824000133FB73FB7B1D2BEFD900231846103794
:10483400BD4680BD80B483B000AF0346FB71FA79F6
:10484400604913469B001344DB009B1A0B4400226F
:104854001A70FA795B4913469B001344DB009B1AD8
:104864000B4400229A70FA79564913469B0013446C
:10487400DB009B1A0B440022DA70FA795149134683
:104884009B001344DB009B1A0B4400221A71FA7933
:104894004C4913469B001344DB009B1A0B44103312
:1048A4004FF0FF329A714FF0FF32DA71FA794549CD
:1048B40013469B001344DB009B1A0B44183300225D
:1048C4001A70FA793F4913469B001344DB009B1A84
:1048D4000B44183300225A70FA793A4913469B0064
:1048E4001344DB009B1A0B44183300229A70FA79A4
:1048F400344913469B001344DB009B1A0B441833C2
:104904000022DA70FA792F4913469B001344DB0026
:104914009B1A0B44183300221A7200225A72FA7935
:10492400284913469B001344DB009B1A0B4418339D
:1049340000229A710022DA71FA79224913469B0007
:104944001344DB009B1A0B44183300225A71FA7982
:104954001C4913469B001344DB009B1A0B44203371
:104964000022DA70FA79174913469B001344DB00DE
:104974009B1A0B44203300221A71FA791149134609
:104984009B001344DB009B1A0B44203301225A7111
:10499400FA790C4913469B001344DB009B1A0B4421
:1049A400203300229A71FA79064913469B00134476
:1049B400DB009B1A0B4400225A710C37BD465DF88C
:1049C400047B70475800002080B582B000AF786047
:1049D4000B46FB707B681B78022B1FD1FA781649B3
:1049E40013469B001344DB009B1A0B441B78002BDB
:1049F40011D0FA7813469B001344DB009B1A0E4A2D
:104A0400134405337868194609F0C2FF0346002BA6
:104A140001D0012300E00023DBB209E07B681B78AE
:104A24009BB20D203B211A4604230FF0CDFB00233B
:104A340018460837BD4680BD5800002090B589B09F
:104A440002AF2D480021122218F08CF82A4B0022C4
:104A54005A702A482A492B4A2B4B02F01DF83B1D59
:104A640018460021112218F07DF806233B7102201C
:104A740008F070FE0346184600F0BCFB03461C46D3
:104A8400022008F067FE0346184600F0D5FB0346F3
:104A940000933B1D0193204602210022012300F0D4
:104AA400DBFDFF200A2110F09DFC03461A46124B41
:104AB400DA71114B47F230521A810F4BDC790E4BED
:104AC4001A890D4B1B891046194609F04FFD034600
:104AD4001A460E4B0093204611460022002310F084
:104AE400DFFCFF200A2110F07DFC03461A46024B2E
:104AF4009A721C37BD4690BDF00600206D4C00082C
:104B04007D4C00088D4C00089D4C0008514D000858
:104B140080B582B000AF78600B46FB70786807F010
:104B2400C3FC0346002B00D16EE0FB78012B02D0BE
:104B3400022B07D068E0364BDB780133DAB2344B12
:104B4400DA7006E0324B5B790133DAB2304B5A71DA
:104B540000BF2F4BDB78402B25D12D4B00221A733D
:104B64002B4B00229A732A4B1A79294B1A74284B1F
:104B74001B79302B06D9264B01221A7325480A21AA
:104B84000FF0DEF9224B1B790F2B06D8204B0122A4
:104B94009A7321480A210FF0D3F91D4B0022DA70D1
:104BA4001B4B00221A71786801F07AF90346002B36
:104BB40000D129E0164B5B79402B25D1144B002200
:104BC4005A73134B0022DA73114B9A79104B5A74AF
:104BD4000F4B9B79302B06D90D4B01225A730D488C
:104BE4000A210FF0ADF90A4B9B790F2B06D8084B1D
:104BF4000122DA7308480A210FF0A2F9044B0022BB
:104C04005A71034B00229A710837BD4680BD00BF1C
:104C1400F0060020D54D0008714E000880B582B022
:104C240000AF78600B46FB70786807F03DFC0346E4
:104C3400002B00D113E0FB78012B02D0022B07D00C
:104C44000DE0084B1B790133DAB2064B1A7106E00A
:104C5400044B9B790133DAB2024B9A7100BF0837D7
:104C6400BD4680BDF006002080B400AF0023184686
:104C7400BD465DF8047B704780B400AF002318463E
:104C8400BD465DF8047B704780B400AF002318462E
:104C9400BD465DF8047B704780B586B002AF03461D
:104CA4003960FB71FB79032B02D0FB79092B1ED1F0
:104CB4001A4B0122DA7209F01FFC0346184AA2FBC0
:104CC4000312520B47F2305101FB02F29B1A9BB2C2
:104CD40003F5EA433033FB81104B997AFA89114B7F
:104CE4000093084611460022012310F0D9FBFB79FA
:104CF400062B02D0FB79072B03D10B480A210FF0B6
:104D04001FF9FB79082B02D13868FFF7F5FA3868E8
:104D1400FFF7F6F81037BD4680BD00BFF00600204F
:104D240073B2E745314D0008954D000880B483B057
:104D340000AF0346FB71044B0022DA720C37BD4608
:104D44005DF8047B704700BFF006002080B584B096
:104D540000AF0346FB710A4B1A89094B1B891046A5
:104D6400194609F003FC0346FB60054BDB79184642
:104D7400F96810F0D7FD00F005F81037BD4680BD86
:104D8400F006002080B500AF00F0B2F980BD00BF8E
:104D940080B58CB006AF3B1D184607F061FB034697
:104DA400FB75FB7D002B10D03A1D002300930023DC
:104DB4000193002302930023039300230493072009
:104DC40011460122012301F081FE1837BD4680BD42
:104DD40090B593B006AFFEF721FB0346002B00D13C
:104DE4003FE0214BDB7A002B00D03AE007F11C03B3
:104DF400184607F035FB034687F82E3097F82E3017
:104E0400002B00D12DE0184B1B7B002B03D001237A
:104E140087F82F3008E0144B5B7B002B03D0022370
:104E240087F82F3000E01CE03B461846012100F0D3
:104E34008FF80346002B00D113E007F11C0297F80A
:104E44002F403B4600930023019300230293002349
:104E5400039300230493012011460122234601F009
:104E640035FE3437BD4690BDF006002090B593B0B2
:104E740006AFFEF7D3FA0346002B00D153E02B4BC9
:104E8400DB7A002B00D04EE007F11C03184607F034
:104E9400E7FA034687F82E3097F82E30002B00D11E
:104EA40041E0224B9B7B002B0AD007F11C031846E0
:104EB40000F0F6FF0346012B02D81C4B00229A7324
:104EC4001A4B9B7B002B03D0012387F82F3008E07B
:104ED400164BDB7B002B03D0022387F82F3000E036
:104EE40021E0394607F11C0297F82F300846114695
:104EF400012200F087F80346002B00D113E007F1EC
:104F04001C0297F82F40002300933B460193002393
:104F140002930023039300230493022011460122E9
:104F2400234601F0D3FD3437BD4690BDF006002082
:104F340080B483B000AF0346FB71044AFB7953701D
:104F44000C37BD465DF8047B704700BFF0060020B7
:104F540090B585B000AF78600B46FB70786800218F
:104F6400192217F0FFFD0023BB730023FB7338E005
:104F740009F0C2FA03461C4601F0BCFA0346B4FB2E
:104F8400F3F203FB02F3E31ABB81BB89184600F07A
:104F9400E3FE0346012B21D1BA7B13469B00134445
:104FA4007A681344BA89A3F80120BA7B13469B009C
:104FB40013447A68D41809F09FFA034603F00F03E8
:104FC4009BB2A4F80330BA7B13469B0013447A685F
:104FD400134401221A70BB7B0133BB73FB7B013387
:104FE400FB73FB7B042BC3D9BA7BFB789A4202D3B5
:104FF400FB78002B01D1002300E00123184614376D
:10500400BD4690BD90B58DB000AFF860B960114653
:105014001A460B46FB711346BB71F868002119222E
:1050240017F0A0FD002387F82E30002387F82F30D7
:105034004AE097F82F309AB207F114031046194644
:1050440000F0BAFA07F11403B868194609F0A0FC95
:105054000346002B33D097F82530BA799A422ED1E3
:1050640097F82B30002B2AD197F82E2013469B005B
:105074001344FA68134497F82F2092B2A3F801203E
:1050840097F82E2013469B001344FA68134497F8AC
:105094002A2092B2A3F8032097F82E2013469B00EF
:1050A4001344FA68134401221A7097F82E3001331E
:1050B40087F82E3097F82E30052B00D10CE097F8A6
:1050C4002F30013387F82F3097F82F309CB201F03E
:1050D40011FA03469C42ACD397F82E20FB799A42EE
:1050E40001D2002300E0012318463437BD4690BDA9
:1050F40080B59EB006AFFEF791F90346002B00D1B0
:1051040073E007F14C03184607F0AAF9034687F841
:105114005F3097F85F30002B00D166E007F14C0256
:1051240007F138031046194601F010F90346012B24
:1051340012D107F1380200230093002301930023C6
:1051440002930023039300230493072011460122B2
:10515400012301F0BBFC48E007F14C03184600F0C2
:105164009FFE0346002B05D1214B01221A73FFF742
:105174002FFE3AE01E4BDB7A002B00D035E007F11E
:105184004C03184600F016FF0346002B00D12CE018
:105194003B4618460021192217F0E4FC07F14C02A3
:1051A4003B461046194600F03FFF0346002B1CD037
:1051B40007F11C0318460121FFF7CAFE0346002B22
:1051C40000D112E007F14C0207F11C0300933B46A7
:1051D40001930023029300230393002304930320E9
:1051E40011460122012301F071FC6037BD4680BDE8
:1051F400F006002080B485B000AF78607B68DB796E
:105204009BB21B029AB27B681B7A9BB21344FB814C
:10521400FB89084AA2FB03125209642101FB02F232
:105224009B1A9BB201339BB218461437BD465DF8F6
:10523400047B70471F85EB5180B485B000AF786064
:105244007B68DB799BB21B029AB27B681B7A9BB2A8
:105254001344FB81FB89DBB203F00F03DBB2184676
:105264001437BD465DF8047B704700BF80B483B03B
:1052740000AF0346FB71044AFB7913700C37BD463B
:105284005DF8047B704700BFF006002080B400AFD7
:10529400034B1B781846BD465DF8047B704700BF7E
:1052A400F006002080B483B000AF0346FB71FB79A5
:1052B400012B02D0022B03D005E0064B1B7C03E03C
:1052C400044B5B7C00E0002318460C37BD465DF8B8
:1052D400047B7047F006002080B582B000AF2148FF
:1052E400002140F6EC0217F03DFC0023BB7124E0E2
:1052F400BB796C2202FB03F31A4A1344184601F0EB
:10530400D5FA0023FB7112E0B979FA791346DB0070
:1053140013449B006C2202FB01F213442033114A14
:105324001344184601F0FCFAFB790133FB71FB7955
:10533400012BE9D9BB790133BB71BB79142BD7D9C4
:10534400084B012283F8E628064B1522A3F8E2282D
:1053540008F0C6F90346012B01D100F005F808371F
:10536400BD4680BD0407002080B588B002AF00238D
:10537400BB82174BB3F8E038002B02D1652000F054
:10538400DDF8002000F0F4F8012000F003F93B46BA
:1053940018460021112217F0E5FB06233B70BB8A57
:1053A400FB820DE0FA8A002300933B4601931046EA
:1053B40003210122002300F04FF9FB8A0133FB8211
:1053C400FA8ABB8A01339A42ECDB1837BD4680BDAA
:1053D40004070020B0B588B000AF4B4B93F8E83811
:1053E4000133494AB2F8E22893FBF2F102FB01F2DD
:1053F4009B1ADAB2444B83F8E828434B93F8E83815
:105404003B70414B93F8E83819463F4A6C2303FB41
:1054140001F313441B88A7F801303B4B93F8E83899
:105424001946394A6C2303FB01F313449B78FB7040
:10543400354B93F8E8381946334A6C2303FB01F3E0
:105444001344DB783B71304B93F8E83819462E4A05
:105454006C2303FB01F313445B797B712A4B93F8B0
:10546400E8381A466C2303FB02F3274A13449A1DB7
:10547400BB1D156854689068D1681D605C609860B5
:10548400D960127C1A74204B93F8E83819461E4AE6
:105494006C2303FB01F313441033DB79FB751A4BC4
:1054A40093F8E8381946184A6C2303FB01F31344B4
:1054B40018331B783B76144B93F8E8381946124A94
:1054C4006C2303FB01F3134418335B787B760E4B98
:1054D40093F8E8381A466C2303FB02F318330A4A9C
:1054E40013449A1C07F11A031168196012791A718E
:1054F4003B46062019461F220EF0ECFD01231846F8
:105504002037BD46B0BD00BF0407002080B582B07F
:1055140000AF094B93F8E6383B71074B93F8E73833
:105524007B713B1D0720194602220EF0D3FD012397
:1055340018460837BD4680BD0407002080B582B0F8
:1055440000AF0346FB8013F0E1F9084AFB88A2F898
:10555400E038FB88152B03D8044AFB88A2F8E2380C
:1055640013F0DAF90837BD4680BD00BF04070020F8
:1055740080B582B000AF0346FB7113F0C7F9044A4B
:10558400FB7982F8E43813F0C7F90837BD4680BDCB
:105594000407002080B582B000AF0346FB7113F00E
:1055A400B5F9044AFB7982F8E53813F0B5F9083700
:1055B400BD4680BD0407002080B584B000AF03461B
:1055C4003960FB80234BFB6023E0FB681B88FA886F
:1055D4009A421BD1FB689A783B685A74FB68DA7864
:1055E4003B689A743B68FA889A82FB685A793B68EC
:1055F4009A75FB681A793B68DA753A68FB68063372
:1056040010461946112217F0E3F920E0FB686C33C9
:10561400FB60104BB3F8E238013B6C2202FB03F34E
:105624000C4A1A44FB689A42CFD23B6800225A744F
:105634003B6800229A743B6800229A753B680022FA
:10564400DA753B6818460021112217F08BFA1037DF
:10565400BD4680BD0407002090B58BB000AF044662
:10566400084611461A462346FB8003467B710B46C7
:105674003B711346FB7013F049F90023BB760023FA
:105684007B768C4B7B627B6A9B78002B2ED07B6A6B
:105694001B88FA889A4225D10023FB7619E0FA7E0A
:1056A400796A1346DB0013449B000B4420331B78B8
:1056B400002B0BD101237B76FA7E1346DB001344C7
:1056C4009B0020337A6A1344FB6105E0FB7E0133BF
:1056D400FB76FB7E012BE2D97B7E002B02D00123DB
:1056E400BB7612E07B6A6C337B6202E00123BB76FB
:1056F4000BE0704BB3F8E238013B6C2202FB03F37E
:105704006C4A1A447B6A9A42BDD2BB7E002B09D1F3
:1057140013F002F90E201B21002200230EF034FDA9
:10572400012367E17B7E002B00F0C68000233B76DB
:105734007B6A1B79002B0CD0FB78002B0ED07B6A84
:105744009B78022B0AD17B79012B07D101233B766D
:1057540004E0FB78002B01D001233B763B7E002B39
:105764006DD07B6A9A78FB691A707B6ADA78FB6978
:105774005A707B6A5A79FB69DA707B6A1A79FB6919
:105784009A70FB691A1D7B6A06331046194611226A
:1057940017F01EF97B6ADA7DFB695A757B6A1A7EFB
:1057A400FB699A757B6A5A7EFB69DA757B6A9A7E15
:1057B400FB691A767B6AB3F81D309AB2FB69A3F8C9
:1057C4001B207B6AB3F81D309AB2FB69A3F81B2037
:1057D4007B6A9A6EFB691A627B6A7A799A707B6A31
:1057E4003A79DA707B6A97F838205A717B6AFA78CA
:1057F4001A717B6A06331846F96B112217F0E8F820
:1058040007F10C031846FCF73FFF7B7B9BB21B029E
:105814009AB23B7B9BB213449AB27B6AA3F81D20D5
:10582400FB7B9BB21B029AB2BB7B9BB213449AB222
:105834007B6AA3F81B203A7C7B6A9A7635E0FB6985
:105844007A791A70FB693A795A70FB6997F83820AB
:10585400DA70FB69FA789A70FB6904331846F96BBD
:10586400112217F0B5F807F10C031846FCF70CFFEA
:105874007B7B9BB21B029AB23B7B9BB213449AB2D2
:10588400FB69A3F81B20FB7B9BB21B029AB2BB7B78
:105894009BB213449AB2FB69A3F819203A7CFB69C2
:1058A4001A767B6A9A6EFB691A6213F035F8002344
:1058B400A0E000BF040700207B6AFA881A807B6A94
:1058C4007A799A707B6A3A79DA707B6A97F8382029
:1058D4005A717B6AFA781A717B6A06331846F96B37
:1058E400112217F075F807F10C031846FCF7CCFEEB
:1058F4007B7B9BB21B029AB23B7B9BB213449AB252
:105904007B6AA3F81D20FB7B9BB21B029AB2BB7B74
:105914009BB213449AB27B6AA3F81B203A7C7B6A3D
:105924009A76364BD3F8DC38002B07D17B6A7A6A37
:105934009A66324A7B6AC2F8DC3858E02F4BD3F8B7
:10594400DC383B623B6A9B6E7B613B6A1A887B6AEC
:105954001B889A4205D27B6A1A887B691B889A4203
:105964003FD33B6A1A887B6A1B889A4205D27B69BB
:105974001A883B6A1B889A4233D97B6A1A887B69E6
:105984001B889A4205D27B691A883B6A1B889A4213
:1059940027D93B6A1A887B6A1B889A421ED17B6A84
:1059A4001B880E2045211A4600230EF0EDFB7B6A6E
:1059B40000221A807B6A00229A707B6A0022DA70C5
:1059C4007B6A00225A717B6A063318460021112231
:1059D40017F0C8F812F0A0FF01230BE07B693B62CB
:1059E400B0E73B6A7A6A9A667B6A7A699A6612F0C9
:1059F40093FF002318462C37BD4690BD04070020B2
:105A040080B588B000AF3B600346FB800B467B71DA
:105A140013463B7112F07AFF0023BB7700237B7798
:105A2400B74B3B6156E03B691B88FA889A424ED1DA
:105A34003B6906333868194608F0AAFF0346002B71
:105A440002D00123BB7751E00023FB7736E0FA7FD5
:105A54001346DB0013449B0020333A691344043398
:105A64003868194608F094FF0346002B23D0FA7FC8
:105A740039691346DB0013449B000B4420331B7825
:105A84007A799A4217D1FA7F39691346DB001344B5
:105A94009B000B4420335B783A799A420BD1012363
:105AA4007B77FA7F1346DB0013449B0020333A696B
:105AB4001344BB6105E0FB7F0133FB77FB7F012BC4
:105AC400C5D97B7F002B02D00123BB770EE03B6955
